{
  "address": "0x63d878eBF4deCcC675c29e5606f0993749068614",
  "abi": [
    {
      "inputs": [
        {
          "internalType": "address",
          "name": "owner_",
          "type": "address"
        }
      ],
      "stateMutability": "nonpayable",
      "type": "constructor"
    },
    {
      "anonymous": false,
      "inputs": [
        {
          "indexed": true,
          "internalType": "address",
          "name": "buyer",
          "type": "address"
        },
        {
          "indexed": true,
          "internalType": "uint256",
          "name": "entryId",
          "type": "uint256"
        },
        {
          "indexed": true,
          "internalType": "uint256",
          "name": "bidId",
          "type": "uint256"
        },
        {
          "indexed": false,
          "internalType": "uint64",
          "name": "timestamp",
          "type": "uint64"
        }
      ],
      "name": "Bid",
      "type": "event"
    },
    {
      "anonymous": false,
      "inputs": [
        {
          "indexed": false,
          "internalType": "uint256",
          "name": "bidId",
          "type": "uint256"
        },
        {
          "indexed": false,
          "internalType": "uint256",
          "name": "entryId",
          "type": "uint256"
        }
      ],
      "name": "BidSelected",
      "type": "event"
    },
    {
      "anonymous": false,
      "inputs": [
        {
          "indexed": false,
          "internalType": "uint256",
          "name": "bidId",
          "type": "uint256"
        },
        {
          "indexed": false,
          "internalType": "uint256",
          "name": "entryId",
          "type": "uint256"
        },
        {
          "indexed": false,
          "internalType": "uint256",
          "name": "value",
          "type": "uint256"
        }
      ],
      "name": "BidWithdrawn",
      "type": "event"
    },
    {
      "anonymous": false,
      "inputs": [
        {
          "indexed": false,
          "internalType": "uint64",
          "name": "prevBiddingPeriod",
          "type": "uint64"
        },
        {
          "indexed": false,
          "internalType": "uint64",
          "name": "newBiddingPeriod",
          "type": "uint64"
        }
      ],
      "name": "BiddingPeriodUpdated",
      "type": "event"
    },
    {
      "anonymous": false,
      "inputs": [
        {
          "indexed": false,
          "internalType": "uint64",
          "name": "prevGracePeriod",
          "type": "uint64"
        },
        {
          "indexed": false,
          "internalType": "uint64",
          "name": "newGracePeriod",
          "type": "uint64"
        }
      ],
      "name": "GracePeriodUpdated",
      "type": "event"
    },
    {
      "anonymous": false,
      "inputs": [
        {
          "indexed": false,
          "internalType": "address",
          "name": "buyer",
          "type": "address"
        },
        {
          "indexed": false,
          "internalType": "uint256",
          "name": "entryId",
          "type": "uint256"
        },
        {
          "indexed": false,
          "internalType": "uint256",
          "name": "bidId",
          "type": "uint256"
        },
        {
          "indexed": false,
          "internalType": "uint256",
          "name": "installmentNumber",
          "type": "uint256"
        }
      ],
      "name": "InstallmentPaid",
      "type": "event"
    },
    {
      "anonymous": false,
      "inputs": [
        {
          "indexed": false,
          "internalType": "uint256",
          "name": "entryId",
          "type": "uint256"
        },
        {
          "indexed": false,
          "internalType": "uint256",
          "name": "bidId",
          "type": "uint256"
        },
        {
          "indexed": false,
          "internalType": "uint256",
          "name": "installmentPaid",
          "type": "uint256"
        },
        {
          "indexed": false,
          "internalType": "uint256",
          "name": "value",
          "type": "uint256"
        }
      ],
      "name": "Liquidated",
      "type": "event"
    },
    {
      "anonymous": false,
      "inputs": [
        {
          "indexed": true,
          "internalType": "address",
          "name": "user",
          "type": "address"
        },
        {
          "indexed": true,
          "internalType": "address",
          "name": "newOwner",
          "type": "address"
        }
      ],
      "name": "OwnerUpdated",
      "type": "event"
    },
    {
      "anonymous": false,
      "inputs": [
        {
          "indexed": false,
          "internalType": "uint256",
          "name": "bidId",
          "type": "uint256"
        },
        {
          "indexed": false,
          "internalType": "uint256",
          "name": "entryId",
          "type": "uint256"
        },
        {
          "indexed": false,
          "internalType": "uint256",
          "name": "value",
          "type": "uint256"
        },
        {
          "indexed": false,
          "internalType": "uint256",
          "name": "paymentsClaimed",
          "type": "uint256"
        }
      ],
      "name": "PaymentWithdrawn",
      "type": "event"
    },
    {
      "anonymous": false,
      "inputs": [
        {
          "indexed": true,
          "internalType": "address",
          "name": "seller",
          "type": "address"
        },
        {
          "indexed": true,
          "internalType": "address",
          "name": "contractAddress",
          "type": "address"
        },
        {
          "indexed": false,
          "internalType": "uint256",
          "name": "tokenId",
          "type": "uint256"
        },
        {
          "indexed": true,
          "internalType": "uint256",
          "name": "entryId",
          "type": "uint256"
        },
        {
          "indexed": false,
          "internalType": "uint64",
          "name": "timestamp",
          "type": "uint64"
        }
      ],
      "name": "Sell",
      "type": "event"
    },
    {
      "anonymous": false,
      "inputs": [
        {
          "indexed": false,
          "internalType": "address",
          "name": "seller",
          "type": "address"
        },
        {
          "indexed": false,
          "internalType": "uint256",
          "name": "entryId",
          "type": "uint256"
        }
      ],
      "name": "SellWithdrawn",
      "type": "event"
    },
    {
      "inputs": [],
      "name": "ONE_MONTH",
      "outputs": [
        {
          "internalType": "uint64",
          "name": "",
          "type": "uint64"
        }
      ],
      "stateMutability": "view",
      "type": "function"
    },
    {
      "inputs": [
        {
          "internalType": "uint256",
          "name": "entryId_",
          "type": "uint256"
        },
        {
          "internalType": "uint256",
          "name": "bidPrice_",
          "type": "uint256"
        },
        {
          "internalType": "enum ProjectY.InstallmentPlan",
          "name": "installment_",
          "type": "uint8"
        }
      ],
      "name": "bid",
      "outputs": [
        {
          "internalType": "uint256",
          "name": "",
          "type": "uint256"
        }
      ],
      "stateMutability": "payable",
      "type": "function"
    },
    {
      "inputs": [],
      "name": "biddingPeriod",
      "outputs": [
        {
          "internalType": "uint64",
          "name": "",
          "type": "uint64"
        }
      ],
      "stateMutability": "view",
      "type": "function"
    },
    {
      "inputs": [
        {
          "internalType": "uint256",
          "name": "entryId_",
          "type": "uint256"
        }
      ],
      "name": "getAllBidsOnNFT",
      "outputs": [
        {
          "components": [
            {
              "internalType": "bool",
              "name": "isSelected",
              "type": "bool"
            },
            {
              "internalType": "address",
              "name": "buyerAddress",
              "type": "address"
            },
            {
              "internalType": "uint64",
              "name": "timestamp",
              "type": "uint64"
            },
            {
              "internalType": "uint256",
              "name": "bidPrice",
              "type": "uint256"
            },
            {
              "internalType": "uint256",
              "name": "entryId",
              "type": "uint256"
            },
            {
              "internalType": "uint256",
              "name": "pricePaid",
              "type": "uint256"
            },
            {
              "internalType": "enum ProjectY.InstallmentPlan",
              "name": "bidInstallment",
              "type": "uint8"
            }
          ],
          "internalType": "struct ProjectY.BuyerInfo[]",
          "name": "allBidsOnNFT_",
          "type": "tuple[]"
        },
        {
          "internalType": "uint256[]",
          "name": "bidIds_",
          "type": "uint256[]"
        }
      ],
      "stateMutability": "view",
      "type": "function"
    },
    {
      "inputs": [
        {
          "internalType": "uint256",
          "name": "bidId_",
          "type": "uint256"
        }
      ],
      "name": "getBuyerInfo",
      "outputs": [
        {
          "components": [
            {
              "internalType": "bool",
              "name": "isSelected",
              "type": "bool"
            },
            {
              "internalType": "address",
              "name": "buyerAddress",
              "type": "address"
            },
            {
              "internalType": "uint64",
              "name": "timestamp",
              "type": "uint64"
            },
            {
              "internalType": "uint256",
              "name": "bidPrice",
              "type": "uint256"
            },
            {
              "internalType": "uint256",
              "name": "entryId",
              "type": "uint256"
            },
            {
              "internalType": "uint256",
              "name": "pricePaid",
              "type": "uint256"
            },
            {
              "internalType": "enum ProjectY.InstallmentPlan",
              "name": "bidInstallment",
              "type": "uint8"
            }
          ],
          "internalType": "struct ProjectY.BuyerInfo",
          "name": "",
          "type": "tuple"
        }
      ],
      "stateMutability": "view",
      "type": "function"
    },
    {
      "inputs": [
        {
          "internalType": "uint256",
          "name": "bidId_",
          "type": "uint256"
        }
      ],
      "name": "getDownPaymentAmount",
      "outputs": [
        {
          "internalType": "uint256",
          "name": "",
          "type": "uint256"
        }
      ],
      "stateMutability": "view",
      "type": "function"
    },
    {
      "inputs": [],
      "name": "getHistoricTotalBidIds",
      "outputs": [
        {
          "internalType": "uint256",
          "name": "",
          "type": "uint256"
        }
      ],
      "stateMutability": "view",
      "type": "function"
    },
    {
      "inputs": [],
      "name": "getHistoricTotalEntryIds",
      "outputs": [
        {
          "internalType": "uint256",
          "name": "",
          "type": "uint256"
        }
      ],
      "stateMutability": "view",
      "type": "function"
    },
    {
      "inputs": [
        {
          "internalType": "uint256",
          "name": "entryId_",
          "type": "uint256"
        }
      ],
      "name": "getInstallmentAmountPerMonth",
      "outputs": [
        {
          "internalType": "uint256",
          "name": "amount_",
          "type": "uint256"
        }
      ],
      "stateMutability": "view",
      "type": "function"
    },
    {
      "inputs": [
        {
          "internalType": "uint256",
          "name": "bidId_",
          "type": "uint256"
        },
        {
          "internalType": "uint64",
          "name": "installmentNumber_",
          "type": "uint64"
        }
      ],
      "name": "getInstallmentMonthTimestamp",
      "outputs": [
        {
          "internalType": "uint64",
          "name": "",
          "type": "uint64"
        }
      ],
      "stateMutability": "view",
      "type": "function"
    },
    {
      "inputs": [
        {
          "internalType": "uint256",
          "name": "bidId_",
          "type": "uint256"
        }
      ],
      "name": "getIsBidIdValid",
      "outputs": [
        {
          "internalType": "bool",
          "name": "isValid_",
          "type": "bool"
        }
      ],
      "stateMutability": "view",
      "type": "function"
    },
    {
      "inputs": [
        {
          "internalType": "uint256",
          "name": "entryId_",
          "type": "uint256"
        }
      ],
      "name": "getIsEntryIdValid",
      "outputs": [
        {
          "internalType": "bool",
          "name": "",
          "type": "bool"
        }
      ],
      "stateMutability": "view",
      "type": "function"
    },
    {
      "inputs": [],
      "name": "getNFTsOpenForSale",
      "outputs": [
        {
          "components": [
            {
              "internalType": "bool",
              "name": "onSale",
              "type": "bool"
            },
            {
              "internalType": "address",
              "name": "sellerAddress",
              "type": "address"
            },
            {
              "internalType": "address",
              "name": "contractAddress",
              "type": "address"
            },
            {
              "internalType": "uint8",
              "name": "installmentsPaid",
              "type": "uint8"
            },
            {
              "internalType": "uint8",
              "name": "paymentsClaimed",
              "type": "uint8"
            },
            {
              "internalType": "uint64",
              "name": "timestamp",
              "type": "uint64"
            },
            {
              "internalType": "uint256",
              "name": "tokenId",
              "type": "uint256"
            },
            {
              "internalType": "uint256",
              "name": "sellingPrice",
              "type": "uint256"
            },
            {
              "internalType": "uint256",
              "name": "totalBids",
              "type": "uint256"
            },
            {
              "internalType": "uint256",
              "name": "selectedBidId",
              "type": "uint256"
            },
            {
              "internalType": "enum ProjectY.InstallmentPlan",
              "name": "installment",
              "type": "uint8"
            }
          ],
          "internalType": "struct ProjectY.SellerInfo[]",
          "name": "nftsOpenForSale_",
          "type": "tuple[]"
        },
        {
          "internalType": "uint256[]",
          "name": "entryIds_",
          "type": "uint256[]"
        }
      ],
      "stateMutability": "view",
      "type": "function"
    },
    {
      "inputs": [
        {
          "internalType": "uint256",
          "name": "entryId_",
          "type": "uint256"
        }
      ],
      "name": "getSellerInfo",
      "outputs": [
        {
          "components": [
            {
              "internalType": "bool",
              "name": "onSale",
              "type": "bool"
            },
            {
              "internalType": "address",
              "name": "sellerAddress",
              "type": "address"
            },
            {
              "internalType": "address",
              "name": "contractAddress",
              "type": "address"
            },
            {
              "internalType": "uint8",
              "name": "installmentsPaid",
              "type": "uint8"
            },
            {
              "internalType": "uint8",
              "name": "paymentsClaimed",
              "type": "uint8"
            },
            {
              "internalType": "uint64",
              "name": "timestamp",
              "type": "uint64"
            },
            {
              "internalType": "uint256",
              "name": "tokenId",
              "type": "uint256"
            },
            {
              "internalType": "uint256",
              "name": "sellingPrice",
              "type": "uint256"
            },
            {
              "internalType": "uint256",
              "name": "totalBids",
              "type": "uint256"
            },
            {
              "internalType": "uint256",
              "name": "selectedBidId",
              "type": "uint256"
            },
            {
              "internalType": "enum ProjectY.InstallmentPlan",
              "name": "installment",
              "type": "uint8"
            }
          ],
          "internalType": "struct ProjectY.SellerInfo",
          "name": "",
          "type": "tuple"
        }
      ],
      "stateMutability": "view",
      "type": "function"
    },
    {
      "inputs": [],
      "name": "getTotalBidIds",
      "outputs": [
        {
          "internalType": "uint256",
          "name": "",
          "type": "uint256"
        }
      ],
      "stateMutability": "view",
      "type": "function"
    },
    {
      "inputs": [],
      "name": "getTotalEntryIds",
      "outputs": [
        {
          "internalType": "uint256",
          "name": "",
          "type": "uint256"
        }
      ],
      "stateMutability": "view",
      "type": "function"
    },
    {
      "inputs": [
        {
          "internalType": "uint256",
          "name": "bidId_",
          "type": "uint256"
        }
      ],
      "name": "getTotalInstallments",
      "outputs": [
        {
          "internalType": "uint8",
          "name": "",
          "type": "uint8"
        }
      ],
      "stateMutability": "view",
      "type": "function"
    },
    {
      "inputs": [
        {
          "internalType": "address",
          "name": "user_",
          "type": "address"
        }
      ],
      "name": "getUserNFTsOngoingInstallmentPhase",
      "outputs": [
        {
          "components": [
            {
              "internalType": "bool",
              "name": "onSale",
              "type": "bool"
            },
            {
              "internalType": "address",
              "name": "sellerAddress",
              "type": "address"
            },
            {
              "internalType": "address",
              "name": "contractAddress",
              "type": "address"
            },
            {
              "internalType": "uint8",
              "name": "installmentsPaid",
              "type": "uint8"
            },
            {
              "internalType": "uint8",
              "name": "paymentsClaimed",
              "type": "uint8"
            },
            {
              "internalType": "uint64",
              "name": "timestamp",
              "type": "uint64"
            },
            {
              "internalType": "uint256",
              "name": "tokenId",
              "type": "uint256"
            },
            {
              "internalType": "uint256",
              "name": "sellingPrice",
              "type": "uint256"
            },
            {
              "internalType": "uint256",
              "name": "totalBids",
              "type": "uint256"
            },
            {
              "internalType": "uint256",
              "name": "selectedBidId",
              "type": "uint256"
            },
            {
              "internalType": "enum ProjectY.InstallmentPlan",
              "name": "installment",
              "type": "uint8"
            }
          ],
          "internalType": "struct ProjectY.SellerInfo[]",
          "name": "sellerInfos_",
          "type": "tuple[]"
        },
        {
          "components": [
            {
              "internalType": "bool",
              "name": "isSelected",
              "type": "bool"
            },
            {
              "internalType": "address",
              "name": "buyerAddress",
              "type": "address"
            },
            {
              "internalType": "uint64",
              "name": "timestamp",
              "type": "uint64"
            },
            {
              "internalType": "uint256",
              "name": "bidPrice",
              "type": "uint256"
            },
            {
              "internalType": "uint256",
              "name": "entryId",
              "type": "uint256"
            },
            {
              "internalType": "uint256",
              "name": "pricePaid",
              "type": "uint256"
            },
            {
              "internalType": "enum ProjectY.InstallmentPlan",
              "name": "bidInstallment",
              "type": "uint8"
            }
          ],
          "internalType": "struct ProjectY.BuyerInfo[]",
          "name": "buyerInfos_",
          "type": "tuple[]"
        },
        {
          "internalType": "uint256[]",
          "name": "downPayments_",
          "type": "uint256[]"
        },
        {
          "internalType": "uint256[]",
          "name": "monthlyPayments_",
          "type": "uint256[]"
        },
        {
          "internalType": "uint256[]",
          "name": "entryIds_",
          "type": "uint256[]"
        },
        {
          "internalType": "uint256[]",
          "name": "bidIds_",
          "type": "uint256[]"
        }
      ],
      "stateMutability": "view",
      "type": "function"
    },
    {
      "inputs": [
        {
          "internalType": "address",
          "name": "user_",
          "type": "address"
        }
      ],
      "name": "getUserNFTsOpenForSale",
      "outputs": [
        {
          "components": [
            {
              "internalType": "bool",
              "name": "onSale",
              "type": "bool"
            },
            {
              "internalType": "address",
              "name": "sellerAddress",
              "type": "address"
            },
            {
              "internalType": "address",
              "name": "contractAddress",
              "type": "address"
            },
            {
              "internalType": "uint8",
              "name": "installmentsPaid",
              "type": "uint8"
            },
            {
              "internalType": "uint8",
              "name": "paymentsClaimed",
              "type": "uint8"
            },
            {
              "internalType": "uint64",
              "name": "timestamp",
              "type": "uint64"
            },
            {
              "internalType": "uint256",
              "name": "tokenId",
              "type": "uint256"
            },
            {
              "internalType": "uint256",
              "name": "sellingPrice",
              "type": "uint256"
            },
            {
              "internalType": "uint256",
              "name": "totalBids",
              "type": "uint256"
            },
            {
              "internalType": "uint256",
              "name": "selectedBidId",
              "type": "uint256"
            },
            {
              "internalType": "enum ProjectY.InstallmentPlan",
              "name": "installment",
              "type": "uint8"
            }
          ],
          "internalType": "struct ProjectY.SellerInfo[]",
          "name": "userNFTsOpenForSale_",
          "type": "tuple[]"
        },
        {
          "internalType": "uint256[]",
          "name": "entryIds_",
          "type": "uint256[]"
        }
      ],
      "stateMutability": "view",
      "type": "function"
    },
    {
      "inputs": [],
      "name": "gracePeriod",
      "outputs": [
        {
          "internalType": "uint64",
          "name": "",
          "type": "uint64"
        }
      ],
      "stateMutability": "view",
      "type": "function"
    },
    {
      "inputs": [
        {
          "internalType": "uint256",
          "name": "entryId_",
          "type": "uint256"
        }
      ],
      "name": "liquidate",
      "outputs": [],
      "stateMutability": "payable",
      "type": "function"
    },
    {
      "inputs": [
        {
          "internalType": "address",
          "name": "",
          "type": "address"
        },
        {
          "internalType": "address",
          "name": "",
          "type": "address"
        },
        {
          "internalType": "uint256",
          "name": "",
          "type": "uint256"
        },
        {
          "internalType": "bytes",
          "name": "",
          "type": "bytes"
        }
      ],
      "name": "onERC721Received",
      "outputs": [
        {
          "internalType": "bytes4",
          "name": "",
          "type": "bytes4"
        }
      ],
      "stateMutability": "nonpayable",
      "type": "function"
    },
    {
      "inputs": [],
      "name": "owner",
      "outputs": [
        {
          "internalType": "address",
          "name": "",
          "type": "address"
        }
      ],
      "stateMutability": "view",
      "type": "function"
    },
    {
      "inputs": [
        {
          "internalType": "uint256",
          "name": "entryId_",
          "type": "uint256"
        }
      ],
      "name": "payInstallment",
      "outputs": [],
      "stateMutability": "payable",
      "type": "function"
    },
    {
      "inputs": [
        {
          "internalType": "uint256",
          "name": "bidId_",
          "type": "uint256"
        }
      ],
      "name": "selectBid",
      "outputs": [],
      "stateMutability": "nonpayable",
      "type": "function"
    },
    {
      "inputs": [
        {
          "internalType": "address",
          "name": "contractAddress_",
          "type": "address"
        },
        {
          "internalType": "uint256",
          "name": "tokenId_",
          "type": "uint256"
        },
        {
          "internalType": "uint256",
          "name": "sellingPrice_",
          "type": "uint256"
        },
        {
          "internalType": "enum ProjectY.InstallmentPlan",
          "name": "installment_",
          "type": "uint8"
        }
      ],
      "name": "sell",
      "outputs": [
        {
          "internalType": "uint256",
          "name": "",
          "type": "uint256"
        }
      ],
      "stateMutability": "nonpayable",
      "type": "function"
    },
    {
      "inputs": [
        {
          "internalType": "uint64",
          "name": "biddingPeriod_",
          "type": "uint64"
        }
      ],
      "name": "setBiddingPeriod",
      "outputs": [],
      "stateMutability": "nonpayable",
      "type": "function"
    },
    {
      "inputs": [
        {
          "internalType": "uint64",
          "name": "gracePeriod_",
          "type": "uint64"
        }
      ],
      "name": "setGracePeriod",
      "outputs": [],
      "stateMutability": "nonpayable",
      "type": "function"
    },
    {
      "inputs": [
        {
          "internalType": "address",
          "name": "newOwner",
          "type": "address"
        }
      ],
      "name": "setOwner",
      "outputs": [],
      "stateMutability": "nonpayable",
      "type": "function"
    },
    {
      "inputs": [
        {
          "internalType": "uint256",
          "name": "bidId_",
          "type": "uint256"
        }
      ],
      "name": "withdrawBid",
      "outputs": [],
      "stateMutability": "nonpayable",
      "type": "function"
    },
    {
      "inputs": [
        {
          "internalType": "uint256",
          "name": "entryId_",
          "type": "uint256"
        }
      ],
      "name": "withdrawPayment",
      "outputs": [],
      "stateMutability": "nonpayable",
      "type": "function"
    },
    {
      "inputs": [
        {
          "internalType": "uint256",
          "name": "entryId_",
          "type": "uint256"
        }
      ],
      "name": "withdrawSell",
      "outputs": [
        {
          "internalType": "uint256",
          "name": "",
          "type": "uint256"
        }
      ],
      "stateMutability": "nonpayable",
      "type": "function"
    }
  ],
  "transactionHash": "0xa7dcffc45f5b1619f801907adacf02472d160929ec727efa1ceb525250b01b3e",
  "args": [
    "0xde43f899587aaa2Ea6aD243F3d68a5027F2C6a94"
  ],
  "numDeployments": 1,
  "solcInputHash": "53e852deab44459db4f8c68a8874e112",
  "bytecode": "0x6080604052600380546001600160801b0319166a093a800000000000093a801790553480156200002e57600080fd5b5060405162003ed138038062003ed18339810160408190526200005191620000a1565b600080546001600160a01b0319166001600160a01b03831690811782556040518392907f8292fce18fa69edf4db7b94ea2e58241df0ae57f97e0a6c9b29067028bf92d76908290a35050620000d3565b600060208284031215620000b457600080fd5b81516001600160a01b0381168114620000cc57600080fd5b9392505050565b613dee80620000e36000396000f3fe6080604052600436106101e35760003560e01c80637b4ed02411610102578063e2f8a01711610095578063f8de03ac11610064578063f8de03ac1461063a578063f9fb2f081461064d578063fd5f0a2514610662578063fdcd2b871461068257600080fd5b8063e2f8a017146105bf578063e380dbd3146105d2578063e412690f146105f2578063f8c3b22b1461060857600080fd5b8063b04cb62b116100d1578063b04cb62b1461053c578063cdd265c314610552578063cff2f4ff1461057f578063dbd3cd621461059f57600080fd5b80637b4ed0241461048f5780638da5cb5b146104bd578063a06db7dc146104f5578063a7d53ac31461051c57600080fd5b806353654c7f1161017a5780635f8909bd116101495780635f8909bd14610408578063643164c21461042857806366da4011146104485780636ac1da9f1461045d57600080fd5b806353654c7f1461035057806355a5133b1461038d5780635aee8703146103ad5780635d21d50c146103da57600080fd5b806320988cef116101b657806320988cef146102a1578063319d7acc146102d0578063415f12401461031d57806341cb961a1461033057600080fd5b8063022a0e01146101e85780630eaaf4c81461021b57806313af40351461023d578063150b7a021461025d575b600080fd5b3480156101f457600080fd5b506102086102033660046136b0565b610697565b6040519081526020015b60405180910390f35b34801561022757600080fd5b5061023b6102363660046136b0565b6107e0565b005b34801561024957600080fd5b5061023b6102583660046136e5565b610a3f565b34801561026957600080fd5b50610288610278366004613716565b630a85bd0160e11b949350505050565b6040516001600160e01b03199091168152602001610212565b3480156102ad57600080fd5b506102b862278d0081565b6040516001600160401b039091168152602001610212565b3480156102dc57600080fd5b5061030d6102eb3660046136b0565b60009081526006602052604090205461010090046001600160a01b0316151590565b6040519015158152602001610212565b61023b61032b3660046136b0565b610ab4565b34801561033c57600080fd5b5061020861034b3660046136b0565b610fff565b34801561035c57600080fd5b5061030d61036b3660046136b0565b60009081526007602052604090205461010090046001600160a01b0316151590565b34801561039957600080fd5b5061023b6103a8366004613808565b611251565b3480156103b957600080fd5b506103cd6103c83660046136b0565b61134b565b60405161021291906138b6565b3480156103e657600080fd5b506103fa6103f53660046136b0565b611403565b60405161021292919061392e565b34801561041457600080fd5b506003546102b8906001600160401b031681565b34801561043457600080fd5b506102b8610443366004613953565b611555565b34801561045457600080fd5b50610208611604565b34801561046957600080fd5b5061047d6104783660046136e5565b611614565b60405161021296959493929190613a80565b34801561049b57600080fd5b506104af6104aa3660046136e5565b61197c565b604051610212929190613b02565b3480156104c957600080fd5b506000546104dd906001600160a01b031681565b6040516001600160a01b039091168152602001610212565b34801561050157600080fd5b506003546102b890600160401b90046001600160401b031681565b34801561052857600080fd5b5061023b6105373660046136b0565b611b23565b34801561054857600080fd5b5061020860055481565b34801561055e57600080fd5b5061057261056d3660046136b0565b611fe4565b6040516102129190613b15565b34801561058b57600080fd5b5061020861059a3660046136b0565b6120c1565b3480156105ab57600080fd5b5061023b6105ba3660046136b0565b61239f565b61023b6105cd3660046136b0565b612853565b3480156105de57600080fd5b5061023b6105ed366004613808565b612cea565b3480156105fe57600080fd5b5061020860045481565b34801561061457600080fd5b506106286106233660046136b0565b612dd0565b60405160ff9091168152602001610212565b610208610648366004613b33565b612e5f565b34801561065957600080fd5b506102086130a9565b34801561066e57600080fd5b5061020861067d366004613b68565b6130b4565b34801561068e57600080fd5b506104af6132af565b60006106a2826133ee565b6000828152600760209081526040808320815160e081018352815460ff8082161515835261010082046001600160a01b031695830195909552600160a81b90046001600160401b031692810192909252600181015460608301526002810154608083015260038082015460a084015260048201549293919260c0850192169081111561073057610730613823565b600381111561074157610741613823565b90525060c0810151606082015191925090600182600381111561076657610766613823565b0361078b576064610778826022613bc4565b6107829190613be3565b95945050505050565b600282600381111561079f5761079f613823565b036107b2576103e86107788260af613bc4565b60038260038111156107c6576107c6613823565b036107d857606461077882600c613bc4565b949350505050565b6107e9816133ee565b6000818152600760209081526040808320815160e081018352815460ff8082161515835261010082046001600160a01b031695830195909552600160a81b90046001600160401b031692810192909252600181015460608301526002810154608083015260038082015460a084015260048201549293919260c0850192169081111561087757610877613823565b600381111561088857610888613823565b90525060208101519091506001600160a01b031633146108e25760405162461bcd60e51b815260206004820152601060248201526f21a0a62622a92fa727aa2fa12aaca2a960811b60448201526064015b60405180910390fd5b6003546080820151600090815260066020526040902060010154610919916001600160401b0390811691600160b01b900416613c05565b6001600160401b0316426001600160401b0316101561094a5760405162461bcd60e51b81526004016108d990613c30565b8051156109995760405162461bcd60e51b815260206004820152601d60248201527f4249444445525f53484f554c445f4e4f545f42455f53454c454354454400000060448201526064016108d9565b600082815260076020526040812080546001600160e81b03191681556001810182905560028082018390556003820192909255600401805460ff191690556109e09061344b565b608081015160a08201516040805185815260208101939093528201527fc831c925df82af925c5acf662137a6a6c907c47cb7a2428a43d540faf0ca1f389060600160405180910390a1610a3b81602001518260a001516134a2565b5050565b6000546001600160a01b03163314610a695760405162461bcd60e51b81526004016108d990613c67565b600080546001600160a01b0319166001600160a01b0383169081178255604051909133917f8292fce18fa69edf4db7b94ea2e58241df0ae57f97e0a6c9b29067028bf92d769190a350565b34610abe826135c0565b6000828152600660208181526040808420815161016081018352815460ff80821615158352610100918290046001600160a01b0390811696840196909652600184015495861694830194909452600160a01b850484166060830152600160a81b850484166080830152600160b01b9094046001600160401b031660a0820152600282015460c082015260038083015460e083015260048301549482019490945260058201546101208201529381015490926101408501929190911690811115610b8957610b89613823565b6003811115610b9a57610b9a613823565b905250610120810151909150610baf816133ee565b6000818152600760209081526040808320815160e081018352815460ff8082161515835261010082046001600160a01b031695830195909552600160a81b90046001600160401b031692810192909252600181015460608301526002810154608083015260038082015460a084015260048201549293919260c08501921690811115610c3d57610c3d613823565b6003811115610c4e57610c4e613823565b90525060208401519091506001600160a01b0316336001600160a01b031614158015610c90575060208101516001600160a01b0316336001600160a01b031614155b610ccd5760405162461bcd60e51b815260206004820152600e60248201526d24a72b20a624a22fa1a0a62622a960911b60448201526064016108d9565b6000610cdd846101200151612dd0565b90508060ff16846060015160ff1614158015610cfb575060ff811615155b610d3f5760405162461bcd60e51b8152602060048201526015602482015274494e5354414c4c4d454e54535f434f4d504c45544560581b60448201526064016108d9565b6000610d5e8486606001516001610d569190613c8d565b60ff16611555565b6003546001600160401b039182169250610d8191600160401b9091041682613cb2565b426001600160401b031611610dcf5760405162461bcd60e51b8152602060048201526014602482015273494e5354414c4c4d454e545f4f4e5f545241434b60601b60448201526064016108d9565b60208301516000610ddf89610fff565b9050600060648660a00151605f610df69190613bc4565b610e009190613be3565b90506000610e0e8383613cb2565b9050898114610e5f5760405162461bcd60e51b815260206004820152601960248201527f494e56414c49445f4c49515549444154494f4e5f56414c55450000000000000060448201526064016108d9565b60008881526007602052604081208054610100600160a81b03191661010033021781556003018054859290610e95908490613cb2565b909155505060008b81526006602052604090206001018054600160a01b900460ff16906014610ec383613cca565b91906101000a81548160ff021916908360ff160217905550507f0754dfeac3bda94a63c8cbba6a1b91577cded1851cecd7905261a0830526be888b89600660008f815260200190815260200160002060010160149054906101000a900460ff1684604051610f4d9493929190938452602084019290925260ff166040830152606082015260800190565b60405180910390a1610f60600187613ce9565b60ff16896060015160ff1603610fe85760008b8152600660205260409020600101546001600160a01b03166342842e0e30338c60c001516040518463ffffffff1660e01b8152600401610fb593929190613d0c565b600060405180830381600087803b158015610fcf57600080fd5b505af1158015610fe3573d6000803e3d6000fd5b505050505b610ff284836134a2565b5050505050505050505050565b600061100a826135c0565b6000828152600660208181526040808420815161016081018352815460ff80821615158352610100918290046001600160a01b0390811696840196909652600184015495861694830194909452600160a01b850484166060830152600160a81b850484166080830152600160b01b9094046001600160401b031660a0820152600282015460c082015260038083015460e0830152600483015494820194909452600582015461012082015293810154909261014085019291909116908111156110d5576110d5613823565b60038111156110e6576110e6613823565b9052506101208101519091506110fb816133ee565b6000818152600760209081526040808320815160e081018352815460ff8082161515835261010082046001600160a01b031695830195909552600160a81b90046001600160401b031692810192909252600181015460608301526002810154608083015260038082015460a084015260048201549293919260c0850192169081111561118957611189613823565b600381111561119a5761119a613823565b90525060c081015190915060018160038111156111b9576111b9613823565b036111e2576064826060015160216111d19190613bc4565b6111db9190613be3565b9450611248565b60028160038111156111f6576111f6613823565b0361120f576103e8826060015160a56111d19190613bc4565b600381600381111561122357611223613823565b036112485760648260600151600b61123b9190613bc4565b6112459190613be3565b94505b50505050919050565b6000546001600160a01b0316331461127b5760405162461bcd60e51b81526004016108d990613c67565b806001600160401b03166000036112cb5760405162461bcd60e51b81526020600482015260146024820152731253959053125117d1d49050d157d411549253d160621b60448201526064016108d9565b600354604080516001600160401b03600160401b9093048316815291831660208301527f1791c47e23c9c1c43f9cca012afe3c7c1da3d3ce9dd13bd69969d5a92a3dbbe8910160405180910390a1600380546001600160401b03909216600160401b026fffffffffffffffff000000000000000019909216919091179055565b61135361361c565b61135c826133ee565b600082815260076020908152604091829020825160e081018452815460ff8082161515835261010082046001600160a01b031694830194909452600160a81b90046001600160401b031693810193909352600181015460608401526002810154608084015260038082015460a08501526004820154919260c085019216908111156113e9576113e9613823565b60038111156113fa576113fa613823565b90525092915050565b6005546060908190806001600160401b0381111561142357611423613700565b60405190808252806020026020018201604052801561145c57816020015b61144961361c565b8152602001906001900390816114415790505b509250806001600160401b0381111561147757611477613700565b6040519080825280602002602001820160405280156114a0578160200160208202803683370190505b50915060005b8181101561154e576114bc61036b826001613cb2565b1561153c5784600760006114d1846001613cb2565b8152602001908152602001600020600201540361153c576114f3816001613cb2565b83828151811061150557611505613d30565b602090810291909101015261151e6103c8826001613cb2565b84828151811061153057611530613d30565b60200260200101819052505b8061154681613d46565b9150506114a6565b5050915091565b6000611560836133ee565b816001600160401b03166000036115b95760405162461bcd60e51b815260206004820152601a60248201527f494e56414c49445f494e5354414c4c4d454e545f4e554d42455200000000000060448201526064016108d9565b62278d006115c8600184613d5f565b6115d29190613d87565b6000848152600760205260409020546115fb9190600160a81b90046001600160401b0316613c05565b90505b92915050565b600061160f60015490565b905090565b606080808080806001600160a01b0387166116635760405162461bcd60e51b815260206004820152600f60248201526e494e56414c49445f4144445245535360881b60448201526064016108d9565b600454600554816001600160401b0381111561168157611681613700565b6040519080825280602002602001820160405280156116ba57816020015b6116a7613656565b81526020019060019003908161169f5790505b509750806001600160401b038111156116d5576116d5613700565b60405190808252806020026020018201604052801561170e57816020015b6116fb61361c565b8152602001906001900390816116f35790505b509650816001600160401b0381111561172957611729613700565b604051908082528060200260200182016040528015611752578160200160208202803683370190505b5060408051600980825261014082019092529197506020820161012080368337019050509450816001600160401b0381111561179057611790613700565b6040519080825280602002602001820160405280156117b9578160200160208202803683370190505b509350806001600160401b038111156117d4576117d4613700565b6040519080825280602002602001820160405280156117fd578160200160208202803683370190505b509250611808613656565b61181061361c565b60005b8481101561196e576118296102eb826001613cb2565b1561195c5761183c61056d826001613cb2565b6101208101519093501561195c5761185883610120015161134b565b91508b6001600160a01b031682602001516001600160a01b03160361195c57828b828151811061188a5761188a613d30565b6020026020010181905250818a82815181106118a8576118a8613d30565b60200260200101819052506118c1836101200151610697565b8982815181106118d3576118d3613d30565b6020026020010181815250506118ed836101200151610fff565b8882815181106118ff576118ff613d30565b6020908102919091010152611915816001613cb2565b87828151811061192757611927613d30565b602090810291909101015261193d816001613cb2565b86828151811061194f5761194f613d30565b6020026020010181815250505b8061196681613d46565b915050611813565b505050505091939550919395565b6060806001600160a01b0383166119c75760405162461bcd60e51b815260206004820152600f60248201526e494e56414c49445f4144445245535360881b60448201526064016108d9565b600454806001600160401b038111156119e2576119e2613700565b604051908082528060200260200182016040528015611a1b57816020015b611a08613656565b815260200190600190039081611a005790505b509250806001600160401b03811115611a3657611a36613700565b604051908082528060200260200182016040528015611a5f578160200160208202803683370190505b509150611a6a613656565b60005b82811015611b1b57611a836102eb826001613cb2565b15611b0957611a9661056d826001613cb2565b80519092508015611abc5750856001600160a01b031682602001516001600160a01b0316145b15611b0957611acc816001613cb2565b848281518110611ade57611ade613d30565b60200260200101818152505081858281518110611afd57611afd613d30565b60200260200101819052505b80611b1381613d46565b915050611a6d565b505050915091565b42611b2d826133ee565b600082815260076020526040902060020154611b48816135c0565b6000818152600660208181526040808420815161016081018352815460ff80821615158352610100918290046001600160a01b0390811696840196909652600184015495861694830194909452600160a01b850484166060830152600160a81b850484166080830152600160b01b9094046001600160401b031660a0820152600282015460c082015260038083015460e083015260048301549482019490945260058201546101208201529381015490926101408501929190911690811115611c1357611c13613823565b6003811115611c2457611c24613823565b9052506000858152600760209081526040808320815160e081018352815460ff8082161515835261010082046001600160a01b031695830195909552600160a81b90046001600160401b031692810192909252600181015460608301526002810154608083015260038082015460a0840152600482015495965093949193909260c08501921690811115611cba57611cba613823565b6003811115611ccb57611ccb613823565b90525060208301519091506001600160a01b0316336001600160a01b031614611d065760405162461bcd60e51b81526004016108d990613db6565b60035460a0830151611d21916001600160401b031690613c05565b6001600160401b0316846001600160401b03161015611d525760405162461bcd60e51b81526004016108d990613c30565b610120820151158015611d6457508051155b611da65760405162461bcd60e51b815260206004820152601360248201527210d0539393d517d49154d1531150d517d09251606a1b60448201526064016108d9565b60408051868152602081018590527f9295c82ed42927512117ef31a7c3fed86244add76abc91d00191ff9b37a7b8ea910160405180910390a160008160c001516003811115611df757611df7613823565b03611f28576000838152600660208190526040822080546001600160a81b0319168155600180820180546001600160f01b0319169055600282018490556003820184905560048201849055600582019390935501805460ff19169055611e5c9061344b565b600085815260076020526040812080546001600160e81b03191681556001810182905560028082018390556003820192909255600401805460ff19169055611ea39061344b565b81604001516001600160a01b03166342842e0e3083602001518560c001516040518463ffffffff1660e01b8152600401611edf93929190613d0c565b600060405180830381600087803b158015611ef957600080fd5b505af1158015611f0d573d6000803e3d6000fd5b50505050611f2382602001518260a001516134a2565b611fdd565b60008581526007602090815260408083208054600160ff67ffffffffffffffff60a81b0119909116600160a81b6001600160401b038b16021781179091558684526006928390529220805460ff1990811682556005820189905560c0850151919092018054919390929190911690836003811115611fa857611fa8613823565b0217905550606081015160008481526006602052604090206003810191909155600101805460ff60a01b1916600160a01b1790555b5050505050565b611fec613656565b611ff5826135c0565b600082815260066020818152604092839020835161016081018552815460ff80821615158352610100918290046001600160a01b0390811695840195909552600184015494851696830196909652600160a01b840486166060830152600160a81b840486166080830152600160b01b9093046001600160401b031660a0820152600282015460c082015260038083015460e0830152600483015493820193909352600582015461012082015292810154929390926101408501929116908111156113e9576113e9613823565b60006120cc826135c0565b6000828152600660208181526040808420815161016081018352815460ff80821615158352610100918290046001600160a01b0390811696840196909652600184015495861694830194909452600160a01b850484166060830152600160a81b850484166080830152600160b01b9094046001600160401b031660a0820152600282015460c082015260038083015460e08301526004830154948201949094526005820154610120820152938101549092610140850192919091169081111561219757612197613823565b60038111156121a8576121a8613823565b90525060208101519091506001600160a01b0316336001600160a01b0316146121e35760405162461bcd60e51b81526004016108d990613db6565b60035460a08201516121fe916001600160401b031690613c05565b6001600160401b0316426001600160401b0316101561222f5760405162461bcd60e51b81526004016108d990613c30565b610120810151156122825760405162461bcd60e51b815260206004820152601d60248201527f4249444445525f53484f554c445f4e4f545f42455f53454c454354454400000060448201526064016108d9565b6000838152600660208190526040822080546001600160a81b0319168155600180820180546001600160f01b0319169055600282018490556003820184905560048201849055600582019390935501805460ff191690556122e29061344b565b602080820151604080516001600160a01b0390921682529181018590527f23081b4219a1f708aaa2e383d2576bc5abbae9a299668e9c0c0b8cd3b9fb1e87910160405180910390a180604001516001600160a01b03166342842e0e3083602001518460c001516040518463ffffffff1660e01b815260040161236693929190613d0c565b600060405180830381600087803b15801561238057600080fd5b505af1158015612394573d6000803e3d6000fd5b509495945050505050565b6123a8816135c0565b6000818152600660208181526040808420815161016081018352815460ff80821615158352610100918290046001600160a01b0390811696840196909652600184015495861694830194909452600160a01b850484166060830152600160a81b850484166080830152600160b01b9094046001600160401b031660a0820152600282015460c082015260038083015460e08301526004830154948201949094526005820154610120820152938101549092610140850192919091169081111561247357612473613823565b600381111561248457612484613823565b8152505090506124988161012001516133ee565b60208101516001600160a01b0316336001600160a01b0316146124cd5760405162461bcd60e51b81526004016108d990613db6565b6000600182606001516124e09190613ce9565b905060006124f2836101200151612dd0565b90506000836060015160ff168260ff161480156125155750608084015160ff1615155b801561252a57508260ff16846080015160ff16145b90508260ff16846080015160ff1610801561255c57506000846101400151600381111561255957612559613823565b14155b806125645750805b6125a95760405162461bcd60e51b815260206004820152601660248201527510d0539393d517d49150d310525357d410565351539560521b60448201526064016108d9565b600080856080015160ff1660001480156125c657508460ff166001145b156125e057600191506125dd866101200151610697565b90505b608086015160ff161580156125f8575060018560ff16115b1561266b5760008460ff16876060015160ff160361261e5750606086015191508461262f565b85925061262c600184613ce9565b90505b600061263f886101200151610697565b9050600061264c8a610fff565b905061265b60ff841682613bc4565b6126659083613cb2565b93505050505b608086015160ff16156126a25760808601516126879086613ce9565b915061269287610fff565b61269f9060ff8416613bc4565b90505b82156126b857600191506126b587610fff565b90505b600087815260066020526040902060010180548391906015906126e6908490600160a81b900460ff16613c8d565b82546101009290920a60ff81810219909316918316021790915561012088015160008a8152600660209081526040918290206001015482519384529083018c9052908201859052600160a81b900490911660608201527f06e9b09bd40ac99c040ca732ff6217ffca691adb295b89429deacc11a4c71950915060800160405180910390a160008781526006602052604090206001015460ff808616600160a81b909204160361283c576000878152600660208190526040822080546001600160a81b0319168155600180820180546001600160f01b0319169055600282018490556003820184905560048201849055600582019390935501805460ff191690556127ef9061344b565b610120860151600090815260076020526040812080546001600160e81b03191681556001810182905560028082018390556003820192909255600401805460ff1916905561283c9061344b565b61284a8660200151826134a2565b50505050505050565b3461285d826135c0565b600082815260066020526040812060050154908190036128b45760405162461bcd60e51b81526020600482015260126024820152711393d7d0925117d25117d4d1531150d5115160721b60448201526064016108d9565b6000818152600760209081526040808320815160e081018352815460ff8082161515835261010082046001600160a01b031695830195909552600160a81b90046001600160401b031692810192909252600181015460608301526002810154608083015260038082015460a084015260048201549293919260c0850192169081111561294257612942613823565b600381111561295357612953613823565b90525060208101519091506001600160a01b031633146129a85760405162461bcd60e51b815260206004820152601060248201526f21a0a62622a92fa727aa2fa12aaca2a960811b60448201526064016108d9565b606081015160a0820151600086815260066020526040812060010154600160a01b900460ff16906129d886612dd0565b90508060ff168260ff1603612a255760405162461bcd60e51b81526020600482015260136024820152721393d7d25394d51053131351539517d3115195606a1b60448201526064016108d9565b828414612bf8576000612a3789610fff565b9050878114612a885760405162461bcd60e51b815260206004820152601960248201527f494e56414c49445f494e5354414c4c4d454e545f56414c55450000000000000060448201526064016108d9565b6000612a97888560ff16611555565b9050806001600160401b0316426001600160401b031611612afa5760405162461bcd60e51b815260206004820152601a60248201527f5041595f41465445525f415050524f5052494154455f54494d4500000000000060448201526064016108d9565b6000612b0b89610d56876001613c8d565b600354909150612b2b90600160401b90046001600160401b031682613c05565b6001600160401b0316426001600160401b03161115612b7e5760405162461bcd60e51b815260206004820152600f60248201526e11155157d110551157d41054d4d151608a1b60448201526064016108d9565b600089815260076020526040812060030180548c9290612b9f908490613cb2565b909155505060008b81526006602052604090206001018054600160a01b900460ff16906014612bcd83613cca565b91906101000a81548160ff021916908360ff160217905550508986612bf29190613cb2565b95505050505b7f1338839d56446b36e5073895caa0adf0cefc8ba27d7ed85d46c9a2913585cad2338988612c27866001613c8d565b604080516001600160a01b03909516855260208501939093529183015260ff16606082015260800160405180910390a1828403612ce0576000888152600660209081526040918290206001810154918801516002909101549251632142170760e11b81526001600160a01b03909216926342842e0e92612cad9230929091600401613d0c565b600060405180830381600087803b158015612cc757600080fd5b505af1158015612cdb573d6000803e3d6000fd5b505050505b5050505050505050565b6000546001600160a01b03163314612d145760405162461bcd60e51b81526004016108d990613c67565b806001600160401b0316600003612d665760405162461bcd60e51b81526020600482015260166024820152751253959053125117d0925111125391d7d411549253d160521b60448201526064016108d9565b600354604080516001600160401b03928316815291831660208301527f0696b3345d103bed6846e2d0eb033f11551d7f50380deb8770c6eadb74ffa44c910160405180910390a16003805467ffffffffffffffff19166001600160401b0392909216919091179055565b6000612ddb826133ee565b60008281526007602052604090206004015460ff166001816003811115612e0457612e04613823565b03612e125750600392915050565b6002816003811115612e2657612e26613823565b03612e345750600692915050565b6003816003811115612e4857612e48613823565b03612e565750600992915050565b50600092915050565b6000612e6a846135c0565b60035460008581526006602052604090206001015434914291612ea0916001600160401b0390811691600160b01b900416613c05565b6001600160401b0316816001600160401b03161115612ef75760405162461bcd60e51b81526020600482015260136024820152722124a22224a723afa822a924a7a22fa7ab22a960691b60448201526064016108d9565b612f05600280546001019055565b60058054906000612f1583613d46565b91905055506000612f2560025490565b60008181526007602052604090208054610100600160a81b03191661010033021781556004018054919250869160ff19166001836003811115612f6a57612f6a613823565b02179055506000818152600760209081526040808320805467ffffffffffffffff60a81b1916600160a81b6001600160401b0388160217815560018082018b905560029091018b90558a845260069092528220600401805491929091612fd1908490613cb2565b9091555060009050612fe282610697565b90508315801590612ff257508084145b61303e5760405162461bcd60e51b815260206004820152601f60248201527f56414c55455f4e4f545f455155414c5f544f5f444f574e5f5041594d454e540060448201526064016108d9565b60008281526007602052604090206003018490558188336040516001600160401b03871681526001600160a01b0391909116907f5ab6bd288ed4e1289e3291c15622be6529f14e70b0a6e04a211ee938020c6dea9060200160405180910390a4509695505050505050565b600061160f60025490565b6000826000036130f65760405162461bcd60e51b815260206004820152600d60248201526c494e56414c49445f505249434560981b60448201526064016108d9565b42613105600180546001019055565b6004805490600061311583613d46565b9190505550600061312560015490565b6000818152600660205260409020805460ff1916600117905590506131473390565b60008281526006602081905260409091208054610100600160a81b0319166101006001600160a01b039485160217815560018082018054948c167fffff0000000000000000ffff000000000000000000000000000000000000000090951694909417600160b01b6001600160401b0388160217909355600281018990556003808201899055910180548793919260ff19909116919084908111156131ed576131ed613823565b0217905550604080518781526001600160401b038416602082015282916001600160a01b038a169133917fb9120c5321ef5d2f12cd98255cac811fca6e4fbc0ee94caf950c34292603f6af910160405180910390a4604051632142170760e11b81526001600160a01b038816906342842e0e9061327290339030908b90600401613d0c565b600060405180830381600087803b15801561328c57600080fd5b505af11580156132a0573d6000803e3d6000fd5b50929998505050505050505050565b6004546060908190806001600160401b038111156132cf576132cf613700565b60405190808252806020026020018201604052801561330857816020015b6132f5613656565b8152602001906001900390816132ed5790505b509250806001600160401b0381111561332357613323613700565b60405190808252806020026020018201604052801561334c578160200160208202803683370190505b509150613357613656565b60005b828110156133e7576133706102eb826001613cb2565b156133d55761338361056d826001613cb2565b8051909250156133d557613398816001613cb2565b8482815181106133aa576133aa613d30565b602002602001018181525050818582815181106133c9576133c9613d30565b60200260200101819052505b806133df81613d46565b91505061335a565b5050509091565b60008181526007602052604090205461010090046001600160a01b03166134485760405162461bcd60e51b815260206004820152600e60248201526d1253959053125117d0925117d25160921b60448201526064016108d9565b50565b80548061349a5760405162461bcd60e51b815260206004820152601b60248201527f436f756e7465723a2064656372656d656e74206f766572666c6f77000000000060448201526064016108d9565b600019019055565b804710156134f25760405162461bcd60e51b815260206004820152601d60248201527f416464726573733a20696e73756666696369656e742062616c616e636500000060448201526064016108d9565b6000826001600160a01b03168260405160006040518083038185875af1925050503d806000811461353f576040519150601f19603f3d011682016040523d82523d6000602084013e613544565b606091505b50509050806135bb5760405162461bcd60e51b815260206004820152603a60248201527f416464726573733a20756e61626c6520746f2073656e642076616c75652c207260448201527f6563697069656e74206d6179206861766520726576657274656400000000000060648201526084016108d9565b505050565b60008181526006602052604090205461010090046001600160a01b03166134485760405162461bcd60e51b815260206004820152601060248201526f1253959053125117d15395149657d25160821b60448201526064016108d9565b6040805160e081018252600080825260208201819052918101829052606081018290526080810182905260a081018290529060c082015290565b6040805161016081018252600080825260208201819052918101829052606081018290526080810182905260a0810182905260c0810182905260e08101829052610100810182905261012081018290529061014082015290565b6000602082840312156136c257600080fd5b5035919050565b80356001600160a01b03811681146136e057600080fd5b919050565b6000602082840312156136f757600080fd5b6115fb826136c9565b634e487b7160e01b600052604160045260246000fd5b6000806000806080858703121561372c57600080fd5b613735856136c9565b9350613743602086016136c9565b92506040850135915060608501356001600160401b038082111561376657600080fd5b818701915087601f83011261377a57600080fd5b81358181111561378c5761378c613700565b604051601f8201601f19908116603f011681019083821181831017156137b4576137b4613700565b816040528281528a60208487010111156137cd57600080fd5b82602086016020830137600060208483010152809550505050505092959194509250565b80356001600160401b03811681146136e057600080fd5b60006020828403121561381a57600080fd5b6115fb826137f1565b634e487b7160e01b600052602160045260246000fd5b6004811061385757634e487b7160e01b600052602160045260246000fd5b9052565b80511515825260018060a01b0360208201511660208301526001600160401b036040820151166040830152606081015160608301526080810151608083015260a081015160a083015260c08101516135bb60c0840182613839565b60e081016115fe828461385b565b600081518084526020808501945080840160005b83811015612394576138eb87835161385b565b60e09690960195908201906001016138d8565b600081518084526020808501945080840160005b8381101561239457815187529582019590820190600101613912565b60408152600061394160408301856138c4565b828103602084015261078281856138fe565b6000806040838503121561396657600080fd5b82359150613976602084016137f1565b90509250929050565b805115158252602081015161399f60208401826001600160a01b03169052565b5060408101516139ba60408401826001600160a01b03169052565b5060608101516139cf606084018260ff169052565b5060808101516139e4608084018260ff169052565b5060a08101516139ff60a08401826001600160401b03169052565b5060c081015160c083015260e081015160e083015261010080820151818401525061012080820151818401525061014080820151613a3f82850182613839565b50505050565b600081518084526020808501945080840160005b8381101561239457613a6c87835161397f565b610160969096019590820190600101613a59565b60c081526000613a9360c0830189613a45565b8281036020840152613aa581896138c4565b90508281036040840152613ab981886138fe565b90508281036060840152613acd81876138fe565b90508281036080840152613ae181866138fe565b905082810360a0840152613af581856138fe565b9998505050505050505050565b6040815260006139416040830185613a45565b61016081016115fe828461397f565b8035600481106136e057600080fd5b600080600060608486031215613b4857600080fd5b8335925060208401359150613b5f60408501613b24565b90509250925092565b60008060008060808587031215613b7e57600080fd5b613b87856136c9565b93506020850135925060408501359150613ba360608601613b24565b905092959194509250565b634e487b7160e01b600052601160045260246000fd5b6000816000190483118215151615613bde57613bde613bae565b500290565b600082613c0057634e487b7160e01b600052601260045260246000fd5b500490565b60006001600160401b03808316818516808303821115613c2757613c27613bae565b01949350505050565b60208082526017908201527f42494444494e475f504552494f445f4e4f545f4f564552000000000000000000604082015260600190565b6020808252600c908201526b15539055551213d49256915160a21b604082015260600190565b600060ff821660ff84168060ff03821115613caa57613caa613bae565b019392505050565b60008219821115613cc557613cc5613bae565b500190565b600060ff821660ff8103613ce057613ce0613bae565b60010192915050565b600060ff821660ff841680821015613d0357613d03613bae565b90039392505050565b6001600160a01b039384168152919092166020820152604081019190915260600190565b634e487b7160e01b600052603260045260246000fd5b600060018201613d5857613d58613bae565b5060010190565b60006001600160401b0383811690831681811015613d7f57613d7f613bae565b039392505050565b60006001600160401b0380831681851681830481118215151615613dad57613dad613bae565b02949350505050565b60208082526011908201527021a0a62622a92fa727aa2fa9a2a62622a960791b60408201526060019056fea164736f6c634300080f000a",
  "devdoc": {
    "kind": "dev",
    "methods": {
      "onERC721Received(address,address,uint256,bytes)": {
        "details": "See {IERC721Receiver-onERC721Received}. Always returns `IERC721Receiver.onERC721Received.selector`."
      }
    },
    "version": 1
  },
  "userdoc": {
    "kind": "user",
    "methods": {},
    "version": 1
  },
  "storageLayout": {
    "storage": [
      {
        "astId": 1718,
        "contract": "contracts/ProjectY.sol:ProjectY",
        "label": "owner",
        "offset": 0,
        "slot": "0",
        "type": "t_address"
      },
      {
        "astId": 1788,
        "contract": "contracts/ProjectY.sol:ProjectY",
        "label": "p_entryIdTracker",
        "offset": 0,
        "slot": "1",
        "type": "t_struct(Counter)1377_storage"
      },
      {
        "astId": 1791,
        "contract": "contracts/ProjectY.sol:ProjectY",
        "label": "p_bidIdTracker",
        "offset": 0,
        "slot": "2",
        "type": "t_struct(Counter)1377_storage"
      },
      {
        "astId": 1797,
        "contract": "contracts/ProjectY.sol:ProjectY",
        "label": "biddingPeriod",
        "offset": 0,
        "slot": "3",
        "type": "t_uint64"
      },
      {
        "astId": 1800,
        "contract": "contracts/ProjectY.sol:ProjectY",
        "label": "gracePeriod",
        "offset": 8,
        "slot": "3",
        "type": "t_uint64"
      },
      {
        "astId": 1802,
        "contract": "contracts/ProjectY.sol:ProjectY",
        "label": "getHistoricTotalEntryIds",
        "offset": 0,
        "slot": "4",
        "type": "t_uint256"
      },
      {
        "astId": 1804,
        "contract": "contracts/ProjectY.sol:ProjectY",
        "label": "getHistoricTotalBidIds",
        "offset": 0,
        "slot": "5",
        "type": "t_uint256"
      },
      {
        "astId": 1854,
        "contract": "contracts/ProjectY.sol:ProjectY",
        "label": "p_sellerInfo",
        "offset": 0,
        "slot": "6",
        "type": "t_mapping(t_uint256,t_struct(SellerInfo)1833_storage)"
      },
      {
        "astId": 1859,
        "contract": "contracts/ProjectY.sol:ProjectY",
        "label": "p_buyerInfo",
        "offset": 0,
        "slot": "7",
        "type": "t_mapping(t_uint256,t_struct(BuyerInfo)1849_storage)"
      }
    ],
    "types": {
      "t_address": {
        "encoding": "inplace",
        "label": "address",
        "numberOfBytes": "20"
      },
      "t_bool": {
        "encoding": "inplace",
        "label": "bool",
        "numberOfBytes": "1"
      },
      "t_enum(InstallmentPlan)1809": {
        "encoding": "inplace",
        "label": "enum ProjectY.InstallmentPlan",
        "numberOfBytes": "1"
      },
      "t_mapping(t_uint256,t_struct(BuyerInfo)1849_storage)": {
        "encoding": "mapping",
        "key": "t_uint256",
        "label": "mapping(uint256 => struct ProjectY.BuyerInfo)",
        "numberOfBytes": "32",
        "value": "t_struct(BuyerInfo)1849_storage"
      },
      "t_mapping(t_uint256,t_struct(SellerInfo)1833_storage)": {
        "encoding": "mapping",
        "key": "t_uint256",
        "label": "mapping(uint256 => struct ProjectY.SellerInfo)",
        "numberOfBytes": "32",
        "value": "t_struct(SellerInfo)1833_storage"
      },
      "t_struct(BuyerInfo)1849_storage": {
        "encoding": "inplace",
        "label": "struct ProjectY.BuyerInfo",
        "members": [
          {
            "astId": 1835,
            "contract": "contracts/ProjectY.sol:ProjectY",
            "label": "isSelected",
            "offset": 0,
            "slot": "0",
            "type": "t_bool"
          },
          {
            "astId": 1837,
            "contract": "contracts/ProjectY.sol:ProjectY",
            "label": "buyerAddress",
            "offset": 1,
            "slot": "0",
            "type": "t_address"
          },
          {
            "astId": 1839,
            "contract": "contracts/ProjectY.sol:ProjectY",
            "label": "timestamp",
            "offset": 21,
            "slot": "0",
            "type": "t_uint64"
          },
          {
            "astId": 1841,
            "contract": "contracts/ProjectY.sol:ProjectY",
            "label": "bidPrice",
            "offset": 0,
            "slot": "1",
            "type": "t_uint256"
          },
          {
            "astId": 1843,
            "contract": "contracts/ProjectY.sol:ProjectY",
            "label": "entryId",
            "offset": 0,
            "slot": "2",
            "type": "t_uint256"
          },
          {
            "astId": 1845,
            "contract": "contracts/ProjectY.sol:ProjectY",
            "label": "pricePaid",
            "offset": 0,
            "slot": "3",
            "type": "t_uint256"
          },
          {
            "astId": 1848,
            "contract": "contracts/ProjectY.sol:ProjectY",
            "label": "bidInstallment",
            "offset": 0,
            "slot": "4",
            "type": "t_enum(InstallmentPlan)1809"
          }
        ],
        "numberOfBytes": "160"
      },
      "t_struct(Counter)1377_storage": {
        "encoding": "inplace",
        "label": "struct Counters.Counter",
        "members": [
          {
            "astId": 1376,
            "contract": "contracts/ProjectY.sol:ProjectY",
            "label": "_value",
            "offset": 0,
            "slot": "0",
            "type": "t_uint256"
          }
        ],
        "numberOfBytes": "32"
      },
      "t_struct(SellerInfo)1833_storage": {
        "encoding": "inplace",
        "label": "struct ProjectY.SellerInfo",
        "members": [
          {
            "astId": 1811,
            "contract": "contracts/ProjectY.sol:ProjectY",
            "label": "onSale",
            "offset": 0,
            "slot": "0",
            "type": "t_bool"
          },
          {
            "astId": 1813,
            "contract": "contracts/ProjectY.sol:ProjectY",
            "label": "sellerAddress",
            "offset": 1,
            "slot": "0",
            "type": "t_address"
          },
          {
            "astId": 1815,
            "contract": "contracts/ProjectY.sol:ProjectY",
            "label": "contractAddress",
            "offset": 0,
            "slot": "1",
            "type": "t_address"
          },
          {
            "astId": 1817,
            "contract": "contracts/ProjectY.sol:ProjectY",
            "label": "installmentsPaid",
            "offset": 20,
            "slot": "1",
            "type": "t_uint8"
          },
          {
            "astId": 1819,
            "contract": "contracts/ProjectY.sol:ProjectY",
            "label": "paymentsClaimed",
            "offset": 21,
            "slot": "1",
            "type": "t_uint8"
          },
          {
            "astId": 1821,
            "contract": "contracts/ProjectY.sol:ProjectY",
            "label": "timestamp",
            "offset": 22,
            "slot": "1",
            "type": "t_uint64"
          },
          {
            "astId": 1823,
            "contract": "contracts/ProjectY.sol:ProjectY",
            "label": "tokenId",
            "offset": 0,
            "slot": "2",
            "type": "t_uint256"
          },
          {
            "astId": 1825,
            "contract": "contracts/ProjectY.sol:ProjectY",
            "label": "sellingPrice",
            "offset": 0,
            "slot": "3",
            "type": "t_uint256"
          },
          {
            "astId": 1827,
            "contract": "contracts/ProjectY.sol:ProjectY",
            "label": "totalBids",
            "offset": 0,
            "slot": "4",
            "type": "t_uint256"
          },
          {
            "astId": 1829,
            "contract": "contracts/ProjectY.sol:ProjectY",
            "label": "selectedBidId",
            "offset": 0,
            "slot": "5",
            "type": "t_uint256"
          },
          {
            "astId": 1832,
            "contract": "contracts/ProjectY.sol:ProjectY",
            "label": "installment",
            "offset": 0,
            "slot": "6",
            "type": "t_enum(InstallmentPlan)1809"
          }
        ],
        "numberOfBytes": "224"
      },
      "t_uint256": {
        "encoding": "inplace",
        "label": "uint256",
        "numberOfBytes": "32"
      },
      "t_uint64": {
        "encoding": "inplace",
        "label": "uint64",
        "numberOfBytes": "8"
      },
      "t_uint8": {
        "encoding": "inplace",
        "label": "uint8",
        "numberOfBytes": "1"
      }
    }
  }
}