{
  "address": "0xEA592eF153647196282D5d98F0b728b00260A114",
  "abi": [
    {
      "inputs": [
        {
          "internalType": "address",
          "name": "owner_",
          "type": "address"
        }
      ],
      "stateMutability": "nonpayable",
      "type": "constructor"
    },
    {
      "anonymous": false,
      "inputs": [
        {
          "indexed": true,
          "internalType": "address",
          "name": "buyer",
          "type": "address"
        },
        {
          "indexed": true,
          "internalType": "uint256",
          "name": "entryId",
          "type": "uint256"
        },
        {
          "indexed": true,
          "internalType": "uint256",
          "name": "bidId",
          "type": "uint256"
        },
        {
          "indexed": false,
          "internalType": "uint64",
          "name": "timestamp",
          "type": "uint64"
        }
      ],
      "name": "Bid",
      "type": "event"
    },
    {
      "anonymous": false,
      "inputs": [
        {
          "indexed": true,
          "internalType": "uint256",
          "name": "bidId",
          "type": "uint256"
        },
        {
          "indexed": true,
          "internalType": "uint256",
          "name": "entryId",
          "type": "uint256"
        }
      ],
      "name": "BidSelected",
      "type": "event"
    },
    {
      "anonymous": false,
      "inputs": [
        {
          "indexed": true,
          "internalType": "address",
          "name": "user",
          "type": "address"
        },
        {
          "indexed": true,
          "internalType": "address",
          "name": "newOwner",
          "type": "address"
        }
      ],
      "name": "OwnerUpdated",
      "type": "event"
    },
    {
      "anonymous": false,
      "inputs": [
        {
          "indexed": true,
          "internalType": "address",
          "name": "seller",
          "type": "address"
        },
        {
          "indexed": true,
          "internalType": "address",
          "name": "contractAddress",
          "type": "address"
        },
        {
          "indexed": false,
          "internalType": "uint256",
          "name": "tokenId",
          "type": "uint256"
        },
        {
          "indexed": true,
          "internalType": "uint256",
          "name": "entryId",
          "type": "uint256"
        },
        {
          "indexed": false,
          "internalType": "uint64",
          "name": "timestamp",
          "type": "uint64"
        }
      ],
      "name": "Sell",
      "type": "event"
    },
    {
      "inputs": [],
      "name": "ONE_MONTH",
      "outputs": [
        {
          "internalType": "uint64",
          "name": "",
          "type": "uint64"
        }
      ],
      "stateMutability": "view",
      "type": "function"
    },
    {
      "inputs": [
        {
          "internalType": "uint256",
          "name": "entryId_",
          "type": "uint256"
        },
        {
          "internalType": "uint256",
          "name": "bidPrice_",
          "type": "uint256"
        },
        {
          "internalType": "enum ProjectY.InstallmentPlan",
          "name": "installment_",
          "type": "uint8"
        }
      ],
      "name": "bid",
      "outputs": [
        {
          "internalType": "uint256",
          "name": "",
          "type": "uint256"
        }
      ],
      "stateMutability": "payable",
      "type": "function"
    },
    {
      "inputs": [],
      "name": "biddingPeriod",
      "outputs": [
        {
          "internalType": "uint64",
          "name": "",
          "type": "uint64"
        }
      ],
      "stateMutability": "view",
      "type": "function"
    },
    {
      "inputs": [
        {
          "internalType": "uint256",
          "name": "_entryId",
          "type": "uint256"
        }
      ],
      "name": "getAllBidsOnNFT",
      "outputs": [
        {
          "components": [
            {
              "internalType": "bool",
              "name": "isSelected",
              "type": "bool"
            },
            {
              "internalType": "address",
              "name": "buyerAddress",
              "type": "address"
            },
            {
              "internalType": "uint64",
              "name": "timestamp",
              "type": "uint64"
            },
            {
              "internalType": "uint256",
              "name": "bidPrice",
              "type": "uint256"
            },
            {
              "internalType": "uint256",
              "name": "entryId",
              "type": "uint256"
            },
            {
              "internalType": "uint256",
              "name": "pricePaid",
              "type": "uint256"
            },
            {
              "internalType": "enum ProjectY.InstallmentPlan",
              "name": "bidInstallment",
              "type": "uint8"
            }
          ],
          "internalType": "struct ProjectY.BuyerInfo[]",
          "name": "allBidsOnNFT_",
          "type": "tuple[]"
        }
      ],
      "stateMutability": "view",
      "type": "function"
    },
    {
      "inputs": [
        {
          "internalType": "uint256",
          "name": "bidId_",
          "type": "uint256"
        }
      ],
      "name": "getBuyerInfo",
      "outputs": [
        {
          "components": [
            {
              "internalType": "bool",
              "name": "isSelected",
              "type": "bool"
            },
            {
              "internalType": "address",
              "name": "buyerAddress",
              "type": "address"
            },
            {
              "internalType": "uint64",
              "name": "timestamp",
              "type": "uint64"
            },
            {
              "internalType": "uint256",
              "name": "bidPrice",
              "type": "uint256"
            },
            {
              "internalType": "uint256",
              "name": "entryId",
              "type": "uint256"
            },
            {
              "internalType": "uint256",
              "name": "pricePaid",
              "type": "uint256"
            },
            {
              "internalType": "enum ProjectY.InstallmentPlan",
              "name": "bidInstallment",
              "type": "uint8"
            }
          ],
          "internalType": "struct ProjectY.BuyerInfo",
          "name": "",
          "type": "tuple"
        }
      ],
      "stateMutability": "view",
      "type": "function"
    },
    {
      "inputs": [
        {
          "internalType": "uint256",
          "name": "entryId_",
          "type": "uint256"
        },
        {
          "internalType": "uint256",
          "name": "bidId_",
          "type": "uint256"
        }
      ],
      "name": "getDownPayment",
      "outputs": [
        {
          "internalType": "uint256",
          "name": "",
          "type": "uint256"
        }
      ],
      "stateMutability": "view",
      "type": "function"
    },
    {
      "inputs": [
        {
          "internalType": "uint256",
          "name": "bidId_",
          "type": "uint256"
        },
        {
          "internalType": "uint64",
          "name": "installmentNumber_",
          "type": "uint64"
        }
      ],
      "name": "getInstallmentMonthTimestamp",
      "outputs": [
        {
          "internalType": "uint64",
          "name": "",
          "type": "uint64"
        }
      ],
      "stateMutability": "view",
      "type": "function"
    },
    {
      "inputs": [
        {
          "internalType": "uint256",
          "name": "entryId_",
          "type": "uint256"
        },
        {
          "internalType": "uint256",
          "name": "bidId_",
          "type": "uint256"
        }
      ],
      "name": "getInstallmentPaid",
      "outputs": [
        {
          "internalType": "uint256",
          "name": "",
          "type": "uint256"
        }
      ],
      "stateMutability": "view",
      "type": "function"
    },
    {
      "inputs": [
        {
          "internalType": "uint256",
          "name": "entryId_",
          "type": "uint256"
        }
      ],
      "name": "getInstallmentPerMonth",
      "outputs": [
        {
          "internalType": "uint256",
          "name": "",
          "type": "uint256"
        }
      ],
      "stateMutability": "view",
      "type": "function"
    },
    {
      "inputs": [
        {
          "internalType": "uint256",
          "name": "entryId_",
          "type": "uint256"
        },
        {
          "internalType": "uint256",
          "name": "bidId_",
          "type": "uint256"
        },
        {
          "internalType": "uint256",
          "name": "installmentNumber_",
          "type": "uint256"
        }
      ],
      "name": "getInstallmentPercentageOf",
      "outputs": [
        {
          "internalType": "uint256",
          "name": "",
          "type": "uint256"
        }
      ],
      "stateMutability": "view",
      "type": "function"
    },
    {
      "inputs": [],
      "name": "getNFTsOpenForSale",
      "outputs": [
        {
          "components": [
            {
              "internalType": "bool",
              "name": "onSale",
              "type": "bool"
            },
            {
              "internalType": "address",
              "name": "sellerAddress",
              "type": "address"
            },
            {
              "internalType": "address",
              "name": "contractAddress",
              "type": "address"
            },
            {
              "internalType": "uint8",
              "name": "installmentsPaid",
              "type": "uint8"
            },
            {
              "internalType": "uint64",
              "name": "timestamp",
              "type": "uint64"
            },
            {
              "internalType": "uint256",
              "name": "tokenId",
              "type": "uint256"
            },
            {
              "internalType": "uint256",
              "name": "sellingPrice",
              "type": "uint256"
            },
            {
              "internalType": "uint256",
              "name": "totalBids",
              "type": "uint256"
            },
            {
              "internalType": "uint256",
              "name": "selectedBidId",
              "type": "uint256"
            },
            {
              "internalType": "enum ProjectY.InstallmentPlan",
              "name": "installment",
              "type": "uint8"
            }
          ],
          "internalType": "struct ProjectY.SellerInfo[]",
          "name": "nftsOpenForSale_",
          "type": "tuple[]"
        }
      ],
      "stateMutability": "view",
      "type": "function"
    },
    {
      "inputs": [
        {
          "internalType": "uint256",
          "name": "entryId_",
          "type": "uint256"
        }
      ],
      "name": "getSellerInfo",
      "outputs": [
        {
          "components": [
            {
              "internalType": "bool",
              "name": "onSale",
              "type": "bool"
            },
            {
              "internalType": "address",
              "name": "sellerAddress",
              "type": "address"
            },
            {
              "internalType": "address",
              "name": "contractAddress",
              "type": "address"
            },
            {
              "internalType": "uint8",
              "name": "installmentsPaid",
              "type": "uint8"
            },
            {
              "internalType": "uint64",
              "name": "timestamp",
              "type": "uint64"
            },
            {
              "internalType": "uint256",
              "name": "tokenId",
              "type": "uint256"
            },
            {
              "internalType": "uint256",
              "name": "sellingPrice",
              "type": "uint256"
            },
            {
              "internalType": "uint256",
              "name": "totalBids",
              "type": "uint256"
            },
            {
              "internalType": "uint256",
              "name": "selectedBidId",
              "type": "uint256"
            },
            {
              "internalType": "enum ProjectY.InstallmentPlan",
              "name": "installment",
              "type": "uint8"
            }
          ],
          "internalType": "struct ProjectY.SellerInfo",
          "name": "",
          "type": "tuple"
        }
      ],
      "stateMutability": "view",
      "type": "function"
    },
    {
      "inputs": [],
      "name": "getTotalBidIds",
      "outputs": [
        {
          "internalType": "uint256",
          "name": "",
          "type": "uint256"
        }
      ],
      "stateMutability": "view",
      "type": "function"
    },
    {
      "inputs": [],
      "name": "getTotalEntryIds",
      "outputs": [
        {
          "internalType": "uint256",
          "name": "",
          "type": "uint256"
        }
      ],
      "stateMutability": "view",
      "type": "function"
    },
    {
      "inputs": [
        {
          "internalType": "address",
          "name": "user_",
          "type": "address"
        }
      ],
      "name": "getUserNFTsOpenForSale",
      "outputs": [
        {
          "components": [
            {
              "internalType": "bool",
              "name": "onSale",
              "type": "bool"
            },
            {
              "internalType": "address",
              "name": "sellerAddress",
              "type": "address"
            },
            {
              "internalType": "address",
              "name": "contractAddress",
              "type": "address"
            },
            {
              "internalType": "uint8",
              "name": "installmentsPaid",
              "type": "uint8"
            },
            {
              "internalType": "uint64",
              "name": "timestamp",
              "type": "uint64"
            },
            {
              "internalType": "uint256",
              "name": "tokenId",
              "type": "uint256"
            },
            {
              "internalType": "uint256",
              "name": "sellingPrice",
              "type": "uint256"
            },
            {
              "internalType": "uint256",
              "name": "totalBids",
              "type": "uint256"
            },
            {
              "internalType": "uint256",
              "name": "selectedBidId",
              "type": "uint256"
            },
            {
              "internalType": "enum ProjectY.InstallmentPlan",
              "name": "installment",
              "type": "uint8"
            }
          ],
          "internalType": "struct ProjectY.SellerInfo[]",
          "name": "userNFTsOpenForSale_",
          "type": "tuple[]"
        }
      ],
      "stateMutability": "view",
      "type": "function"
    },
    {
      "inputs": [],
      "name": "gracePeriod",
      "outputs": [
        {
          "internalType": "uint64",
          "name": "",
          "type": "uint64"
        }
      ],
      "stateMutability": "view",
      "type": "function"
    },
    {
      "inputs": [
        {
          "internalType": "uint256",
          "name": "bidId_",
          "type": "uint256"
        }
      ],
      "name": "isBidIdValid",
      "outputs": [
        {
          "internalType": "bool",
          "name": "isValid_",
          "type": "bool"
        }
      ],
      "stateMutability": "view",
      "type": "function"
    },
    {
      "inputs": [
        {
          "internalType": "uint256",
          "name": "entryId_",
          "type": "uint256"
        }
      ],
      "name": "isEntryIdValid",
      "outputs": [
        {
          "internalType": "bool",
          "name": "isValid_",
          "type": "bool"
        }
      ],
      "stateMutability": "view",
      "type": "function"
    },
    {
      "inputs": [
        {
          "internalType": "uint256",
          "name": "entryId_",
          "type": "uint256"
        }
      ],
      "name": "liquidate",
      "outputs": [],
      "stateMutability": "payable",
      "type": "function"
    },
    {
      "inputs": [
        {
          "internalType": "address",
          "name": "",
          "type": "address"
        },
        {
          "internalType": "address",
          "name": "",
          "type": "address"
        },
        {
          "internalType": "uint256",
          "name": "",
          "type": "uint256"
        },
        {
          "internalType": "bytes",
          "name": "",
          "type": "bytes"
        }
      ],
      "name": "onERC721Received",
      "outputs": [
        {
          "internalType": "bytes4",
          "name": "",
          "type": "bytes4"
        }
      ],
      "stateMutability": "nonpayable",
      "type": "function"
    },
    {
      "inputs": [],
      "name": "owner",
      "outputs": [
        {
          "internalType": "address",
          "name": "",
          "type": "address"
        }
      ],
      "stateMutability": "view",
      "type": "function"
    },
    {
      "inputs": [
        {
          "internalType": "uint256",
          "name": "entryId_",
          "type": "uint256"
        }
      ],
      "name": "payInstallment",
      "outputs": [],
      "stateMutability": "payable",
      "type": "function"
    },
    {
      "inputs": [
        {
          "internalType": "uint256",
          "name": "bidId_",
          "type": "uint256"
        }
      ],
      "name": "selectBid",
      "outputs": [],
      "stateMutability": "nonpayable",
      "type": "function"
    },
    {
      "inputs": [
        {
          "internalType": "address",
          "name": "contractAddress_",
          "type": "address"
        },
        {
          "internalType": "uint256",
          "name": "tokenId_",
          "type": "uint256"
        },
        {
          "internalType": "uint256",
          "name": "sellingPrice_",
          "type": "uint256"
        },
        {
          "internalType": "enum ProjectY.InstallmentPlan",
          "name": "installment_",
          "type": "uint8"
        }
      ],
      "name": "sell",
      "outputs": [
        {
          "internalType": "uint256",
          "name": "",
          "type": "uint256"
        }
      ],
      "stateMutability": "nonpayable",
      "type": "function"
    },
    {
      "inputs": [
        {
          "internalType": "uint64",
          "name": "biddingPeriod_",
          "type": "uint64"
        }
      ],
      "name": "setBiddingPeriod",
      "outputs": [],
      "stateMutability": "nonpayable",
      "type": "function"
    },
    {
      "inputs": [
        {
          "internalType": "uint64",
          "name": "gracePeriod_",
          "type": "uint64"
        }
      ],
      "name": "setGracePeriod",
      "outputs": [],
      "stateMutability": "nonpayable",
      "type": "function"
    },
    {
      "inputs": [
        {
          "internalType": "address",
          "name": "newOwner",
          "type": "address"
        }
      ],
      "name": "setOwner",
      "outputs": [],
      "stateMutability": "nonpayable",
      "type": "function"
    },
    {
      "inputs": [
        {
          "internalType": "uint256",
          "name": "bidId_",
          "type": "uint256"
        }
      ],
      "name": "withdrawBid",
      "outputs": [],
      "stateMutability": "nonpayable",
      "type": "function"
    }
  ],
  "transactionHash": "0x95f343f8b56e0da426858e7d6e0aec460ef58306949169f05a8ccee14a06c9c5",
  "args": [
    "0xde43f899587aaa2Ea6aD243F3d68a5027F2C6a94"
  ],
  "numDeployments": 5,
  "solcInputHash": "97f1d5f4b492cb4c837b9fe010fd867a",
  "bytecode": "0x6080604052600380546001600160801b0319166a093a800000000000093a801790553480156200002e57600080fd5b5060405162002d4c38038062002d4c8339810160408190526200005191620000a1565b600080546001600160a01b0319166001600160a01b03831690811782556040518392907f8292fce18fa69edf4db7b94ea2e58241df0ae57f97e0a6c9b29067028bf92d76908290a35050620000d3565b600060208284031215620000b457600080fd5b81516001600160a01b0381168114620000cc57600080fd5b9392505050565b612c6980620000e36000396000f3fe6080604052600436106101b75760003560e01c80638da5cb5b116100ec578063cdd265c31161008a578063f8de03ac11610064578063f8de03ac14610542578063f9fb2f0814610555578063fd5f0a251461056a578063fdcd2b871461058a57600080fd5b8063cdd265c3146104e2578063e2f8a0171461050f578063e380dbd31461052257600080fd5b80639a5f1518116100c65780639a5f15181461045b578063a06db7dc1461047b578063a7d53ac3146104a2578063b83bf629146104c257600080fd5b80638da5cb5b146103e357806397205ce41461041b578063985937f51461043b57600080fd5b806355a5133b116101595780635f8909bd116101335780635f8909bd14610361578063643164c21461038157806366da4011146103a15780637b4ed024146103b657600080fd5b806355a5133b146102e75780635aee8703146103075780635d21d50c1461033457600080fd5b806320988cef1161019557806320988cef14610247578063349e478814610276578063415f1240146102a457806345806097146102b757600080fd5b80630eaaf4c8146101bc57806313af4035146101de578063150b7a02146101fe575b600080fd5b3480156101c857600080fd5b506101dc6101d7366004612689565b61059f565b005b3480156101ea57600080fd5b506101dc6101f93660046126b9565b6107e6565b34801561020a57600080fd5b506102296102193660046126ea565b630a85bd0160e11b949350505050565b6040516001600160e01b031990911681526020015b60405180910390f35b34801561025357600080fd5b5061025e62278d0081565b6040516001600160401b03909116815260200161023e565b34801561028257600080fd5b506102966102913660046127c5565b61085b565b60405190815260200161023e565b6101dc6102b2366004612689565b61088c565b3480156102c357600080fd5b506102d76102d2366004612689565b610bbf565b604051901515815260200161023e565b3480156102f357600080fd5b506101dc610302366004612808565b610c21565b34801561031357600080fd5b50610327610322366004612689565b610ccd565b60405161023e91906128b6565b34801561034057600080fd5b5061035461034f366004612689565b610dbb565b60405161023e91906128c4565b34801561036d57600080fd5b5060035461025e906001600160401b031681565b34801561038d57600080fd5b5061025e61039c366004612912565b610ebc565b3480156103ad57600080fd5b50610296610f09565b3480156103c257600080fd5b506103d66103d13660046126b9565b610f19565b60405161023e91906129ed565b3480156103ef57600080fd5b50600054610403906001600160a01b031681565b6040516001600160a01b03909116815260200161023e565b34801561042757600080fd5b50610296610436366004612a30565b611066565b34801561044757600080fd5b506102d7610456366004612689565b611202565b34801561046757600080fd5b50610296610476366004612a30565b611261565b34801561048757600080fd5b5060035461025e90600160401b90046001600160401b031681565b3480156104ae57600080fd5b506101dc6104bd366004612689565b61141a565b3480156104ce57600080fd5b506102966104dd366004612689565b6118e4565b3480156104ee57600080fd5b506105026104fd366004612689565b611b3e565b60405161023e9190612a52565b6101dc61051d366004612689565b611c0e565b34801561052e57600080fd5b506101dc61053d366004612808565b611f39565b610296610550366004612a70565b611fd8565b34801561056157600080fd5b50610296612200565b34801561057657600080fd5b50610296610585366004612aa5565b61220b565b34801561059657600080fd5b506103d66123f4565b6105a881610bbf565b506000818152600560209081526040808320815160e081018352815460ff8082161515835261010082046001600160a01b031695830195909552600160a81b90046001600160401b031692810192909252600181015460608301526002810154608083015260038082015460a084015260048201549293919260c0850192169081111561063757610637612823565b600381111561064857610648612823565b90525060808101516003546000828152600460205260409020600101549293509091610687916001600160401b0390811691600160a81b900416612b01565b6001600160401b0316426001600160401b031610156106e75760405162461bcd60e51b81526020600482015260176024820152762124a22224a723afa822a924a7a22fa727aa2fa7ab22a960491b60448201526064015b60405180910390fd5b8151156107365760405162461bcd60e51b815260206004820152601d60248201527f4249444445525f53484f554c445f4e4f545f42455f53454c454354454400000060448201526064016106de565b60208201516001600160a01b0316336001600160a01b03161461078e5760405162461bcd60e51b815260206004820152601060248201526f21a0a62622a92fa727aa2fa12aaca2a960811b60448201526064016106de565b6000838152600560209081526040822080546001600160e81b0319168155600181018390556002810183905560038101929092556004909101805460ff1916905582015160a08301516107e1919061251e565b505050565b6000546001600160a01b031633146108105760405162461bcd60e51b81526004016106de90612b2c565b600080546001600160a01b0319166001600160a01b0383169081178255604051909133917f8292fce18fa69edf4db7b94ea2e58241df0ae57f97e0a6c9b29067028bf92d769190a350565b6000610866846118e4565b6108709083612b52565b61087a8585611066565b6108849190612b71565b949350505050565b3461089682611202565b506000828152600460208181526040808420815161014081018352815460ff80821615158352610100918290046001600160a01b0390811696840196909652600184015495861694830194909452600160a01b850484166060830152600160a81b9094046001600160401b03166080820152600282015460a082015260038083015460c08301529482015460e0820152600582015493810193909352600681015492939092610120850192169081111561095257610952612823565b600381111561096357610963612823565b90525061010081015190915061097881610bbf565b506000818152600560209081526040808320815160e081018352815460ff8082161515835261010082046001600160a01b031695830195909552600160a81b90046001600160401b031692810192909252600181015460608301526002810154608083015260038082015460a084015260048201549293919260c08501921690811115610a0757610a07612823565b6003811115610a1857610a18612823565b90525090506000610a28866118e4565b905080151580610a3f57508160a001518260600151145b610a815760405162461bcd60e51b81526020600482015260136024820152721393d7d25394d51053131351539517d3115195606a1b60448201526064016106de565b6000610aa08486606001516001610a989190612b89565b60ff16610ebc565b6003546001600160401b039182169250610ac391600160401b9091041682612b71565b426001600160401b031611610b115760405162461bcd60e51b8152602060048201526014602482015273494e5354414c4c4d454e545f4f4e5f545241434b60601b60448201526064016106de565b602083015160a0840151600090606490610b2c90605f612b52565b610b369190612bae565b9050878114610b875760405162461bcd60e51b815260206004820152601960248201527f494e56414c49445f4c49515549444154494f4e5f56414c55450000000000000060448201526064016106de565b60008681526005602052604090208054610100600160a81b0319166101003302179055610bb4828261251e565b505050505050505050565b60008181526005602052604090205461010090046001600160a01b0316151580610c1c5760405162461bcd60e51b815260206004820152600e60248201526d1253959053125117d0925117d25160921b60448201526064016106de565b919050565b6000546001600160a01b03163314610c4b5760405162461bcd60e51b81526004016106de90612b2c565b806001600160401b0316600003610c9b5760405162461bcd60e51b81526020600482015260146024820152731253959053125117d1d49050d157d411549253d160621b60448201526064016106de565b600380546001600160401b03909216600160401b026fffffffffffffffff000000000000000019909216919091179055565b610d0a6040805160e081018252600080825260208201819052918101829052606081018290526080810182905260a081018290529060c082015290565b610d1382610bbf565b50600082815260056020908152604091829020825160e081018452815460ff8082161515835261010082046001600160a01b031694830194909452600160a81b90046001600160401b031693810193909352600181015460608401526002810154608084015260038082015460a08501526004820154919260c08501921690811115610da157610da1612823565b6003811115610db257610db2612823565b90525092915050565b60606000610dc7612200565b905060005b81811015610eb557600081815260056020526040902060020154849003610ead57600081815260056020908152604091829020825160e081018452815460ff8082161515835261010082046001600160a01b031694830194909452600160a81b90046001600160401b031693810193909352600181015460608401526002810154608084015260038082015460a08501526004820154919260c08501921690811115610e7a57610e7a612823565b6003811115610e8b57610e8b612823565b81525050838281518110610ea157610ea1612bd0565b60200260200101819052505b600101610dcc565b5050919050565b600062278d00610ecd600184612be6565b610ed79190612c0e565b600084815260056020526040902054610f009190600160a81b90046001600160401b0316612b01565b90505b92915050565b6000610f1460015490565b905090565b60606000610f25610f09565b9050610f2f612637565b60005b8281101561105e57600081815260046020818152604092839020835161014081018552815460ff80821615158352610100918290046001600160a01b0390811695840195909552600184015494851696830196909652600160a01b840486166060830152600160a81b9093046001600160401b03166080820152600282015460a082015260038083015460c08301529382015460e082015260058201549281019290925260068101549193909261012085019290911690811115610ff857610ff8612823565b600381111561100957611009612823565b905250805190925080156110325750846001600160a01b031682602001516001600160a01b0316145b15611056578184828151811061104a5761104a612bd0565b60200260200101819052505b600101610f32565b505050919050565b600061107183611202565b5061107b82610bbf565b506000828152600560209081526040808320815160e081018352815460ff8082161515835261010082046001600160a01b031695830195909552600160a81b90046001600160401b031692810192909252600181015460608301526002810154608083015260038082015460a084015260048201549293919260c0850192169081111561110a5761110a612823565b600381111561111b5761111b612823565b90525060a0810151909150156111675760405162461bcd60e51b8152602060048201526011602482015270444f574e5f5041594d454e545f444f4e4560781b60448201526064016106de565b60c08101516060820151600182600381111561118557611185612823565b036111ab576064611197826022612b52565b6111a19190612bae565b9350505050610f03565b60028260038111156111bf576111bf612823565b036111d2576103e86111978260af612b52565b60038260038111156111e6576111e6612823565b036111f857606461119782600c612b52565b9250610f03915050565b60008181526004602052604090205461010090046001600160a01b0316151580610c1c5760405162461bcd60e51b815260206004820152601060248201526f1253959053125117d15395149657d25160821b60448201526064016106de565b600061126c83611202565b5061127682610bbf565b506000838152600460208181526040808420815161014081018352815460ff80821615158352610100918290046001600160a01b0390811696840196909652600184015495861694830194909452600160a01b850484166060830152600160a81b9094046001600160401b03166080820152600282015460a082015260038083015460c08301529482015460e0820152600582015493810193909352600681015492939092610120850192169081111561133257611332612823565b600381111561134357611343612823565b9052506000848152600560209081526040808320815160e081018352815460ff8082161515835261010082046001600160a01b031695830195909552600160a81b90046001600160401b031692810192909252600181015460608301526002810154608083015260038082015460a0840152600482015495965093949193909260c085019216908111156113d9576113d9612823565b60038111156113ea576113ea612823565b81525050905080606001516114078686856060015160ff1661085b565b6114119190612b52565b95945050505050565b4261142482610bbf565b5060008281526005602052604090206002015461144081611202565b506000818152600460208181526040808420815161014081018352815460ff80821615158352610100918290046001600160a01b0390811696840196909652600184015495861694830194909452600160a01b850484166060830152600160a81b9094046001600160401b03166080820152600282015460a082015260038083015460c08301529482015460e082015260058201549381019390935260068101549293909261012085019216908111156114fc576114fc612823565b600381111561150d5761150d612823565b9052506000858152600560209081526040808320815160e081018352815460ff8082161515835261010082046001600160a01b031695830195909552600160a81b90046001600160401b031692810192909252600181015460608301526002810154608083015260038082015460a0840152600482015495965093949193909260c085019216908111156115a3576115a3612823565b60038111156115b4576115b4612823565b90525060208301519091506001600160a01b0316336001600160a01b0316146116135760405162461bcd60e51b815260206004820152601160248201527021a0a62622a92fa727aa2fa9a2a62622a960791b60448201526064016106de565b600354608083015161162e916001600160401b031690612b01565b6001600160401b0316846001600160401b031610156116895760405162461bcd60e51b81526020600482015260176024820152762124a22224a723afa822a924a7a22fa727aa2fa7ab22a960491b60448201526064016106de565b610100820151156116d25760405162461bcd60e51b815260206004820152601360248201527210d0539393d517d49154d1531150d517d09251606a1b60448201526064016106de565b60008160c0015160038111156116ea576116ea612823565b036117fb57604080830151602083015160a08501519251632142170760e11b81523060048201526001600160a01b039182166024820152604481019390935216906342842e0e90606401600060405180830381600087803b15801561174e57600080fd5b505af1158015611762573d6000803e3d6000fd5b505050600084815260046020818152604080842080546001600160a81b0319168155600180820180546001600160e81b03199081169091556002808401889055600380850189905584880189905560058086018a90556006909501805460ff199081169091558f8a52949096529387208054909116815590810186905591820185905591810193909355910180549091169055506118b0565b60008581526005602081815260408084208054600160ff67ffffffffffffffff60a81b0119909116600160a81b6001600160401b038c16021781179091558785526004909252909220805460ff19908116825591810188905560c08401516006909101805491939092919091169083600381111561187b5761187b612823565b0217905550606081015160008481526004602052604090206003810191909155600101805460ff60a01b1916600160a01b1790555b604051839086907f9295c82ed42927512117ef31a7c3fed86244add76abc91d00191ff9b37a7b8ea90600090a35050505050565b60006118ef82611202565b506000828152600460208181526040808420815161014081018352815460ff80821615158352610100918290046001600160a01b0390811696840196909652600184015495861694830194909452600160a01b850484166060830152600160a81b9094046001600160401b03166080820152600282015460a082015260038083015460c08301529482015460e082015260058201549381019390935260068101549293909261012085019216908111156119ab576119ab612823565b60038111156119bc576119bc612823565b9052506101008101519091506119d181610bbf565b506000818152600560209081526040808320815160e081018352815460ff8082161515835261010082046001600160a01b031695830195909552600160a81b90046001600160401b031692810192909252600181015460608301526002810154608083015260038082015460a084015260048201549293919260c08501921690811115611a6057611a60612823565b6003811115611a7157611a71612823565b90525060c081015160a08201516060830151929350909103611a995750600095945050505050565b6001816003811115611aad57611aad612823565b03611ad957606482606001516021611ac59190612b52565b611acf9190612bae565b9695505050505050565b6002816003811115611aed57611aed612823565b03611b06576103e8826060015160a5611ac59190612b52565b6003816003811115611b1a57611b1a612823565b03611b325760648260600151600b611ac59190612b52565b50600095945050505050565b611b46612637565b611b4f82611202565b50600082815260046020818152604092839020835161014081018552815460ff80821615158352610100918290046001600160a01b0390811695840195909552600184015494851696830196909652600160a01b840486166060830152600160a81b9093046001600160401b03166080820152600282015460a082015260038083015460c08301529382015460e082015260058201549281019290925260068101549193909261012085019290911690811115610da157610da1612823565b34611c1882611202565b50600082815260046020526040902060050154611c3481610bbf565b506000818152600560209081526040808320815160e081018352815460ff8082161515835261010082046001600160a01b031695830195909552600160a81b90046001600160401b031692810192909252600181015460608301526002810154608083015260038082015460a084015260048201549293919260c08501921690811115611cc357611cc3612823565b6003811115611cd457611cd4612823565b90525060208101519091506001600160a01b03163314611d295760405162461bcd60e51b815260206004820152601060248201526f21a0a62622a92fa727aa2fa12aaca2a960811b60448201526064016106de565b606081015160a0820151808214611e16576000611d45876118e4565b90508581148015611d5557508515155b8015611d6057508015155b611dac5760405162461bcd60e51b815260206004820152601960248201527f494e56414c49445f494e5354414c4c4d454e545f56414c55450000000000000060448201526064016106de565b60008581526005602052604081206003018054889290611dcd908490612b71565b909155505060008781526004602052604090206001018054600160a01b900460ff16906014611dfb83612c3d565b91906101000a81548160ff021916908360ff16021790555050505b808203611f3157600086815260046020819052604080832060018101546002909101548251632142170760e11b81523094810194909452336024850152604484015290516001600160a01b03909116926342842e0e926064808201939182900301818387803b158015611e8857600080fd5b505af1158015611e9c573d6000803e3d6000fd5b505050600087815260046020818152604080842080546001600160a81b0319168155600180820180546001600160e81b03199081169091556002808401889055600380850189905584880189905560058086018a90556006909501805460ff199081169091558e8a52949096529387208054909116815590810186905591820185905591810193909355910180549091169055505b505050505050565b6000546001600160a01b03163314611f635760405162461bcd60e51b81526004016106de90612b2c565b806001600160401b0316600003611fb55760405162461bcd60e51b81526020600482015260166024820152751253959053125117d0925111125391d7d411549253d160521b60448201526064016106de565b6003805467ffffffffffffffff19166001600160401b0392909216919091179055565b60003442611fea600280546001019055565b6000611ff560025490565b60008181526005602052604081208054610100600160a81b03191661010033021790559091506120258883611066565b9050831580159061203557508084145b6120815760405162461bcd60e51b815260206004820152601f60248201527f56414c55455f4e4f545f455155414c5f544f5f444f574e5f5041594d454e540060448201526064016106de565b6003546000898152600460205260409020600101546120b3916001600160401b0390811691600160a81b900416612b01565b6001600160401b0316836001600160401b0316111561210a5760405162461bcd60e51b81526020600482015260136024820152722124a22224a723afa822a924a7a22fa7ab22a960691b60448201526064016106de565b60008281526005602052604090208054610100600160e81b031916336101000267ffffffffffffffff60a81b191617600160a81b6001600160401b038616021781556001808201899055600282018a90556003808301879055600490920180548993919260ff1990911691849081111561218657612186612823565b021790555060008881526004602081905260408220018054600192906121ad908490612b71565b9091555050604080516001600160401b0385168152905183918a9133917f5ab6bd288ed4e1289e3291c15622be6529f14e70b0a6e04a211ee938020c6dea919081900360200190a4509695505050505050565b6000610f1460025490565b60008260000361224d5760405162461bcd60e51b815260206004820152600d60248201526c494e56414c49445f505249434560981b60448201526064016106de565b4261225c600180546001019055565b600061226760015490565b90506001600160a01b0387166342842e0e336040516001600160e01b031960e084901b1681526001600160a01b03909116600482015230602482015260448101899052606401600060405180830381600087803b1580156122c757600080fd5b505af11580156122db573d6000803e3d6000fd5b5050506000828152600460205260409020805460ff19166001179055506122ff3390565b60008281526004602052604090208054610100600160a81b0319166101006001600160a01b039384160217815560018082018054938b16600168ffffffffffffffff0160a01b031990941693909317600160a81b6001600160401b0387160217909255600281018890556003808201889055600690910180548793919260ff199091169190849081111561239557612395612823565b0217905550604080518781526001600160401b038416602082015282916001600160a01b038a169133917fb9120c5321ef5d2f12cd98255cac811fca6e4fbc0ee94caf950c34292603f6af910160405180910390a49695505050505050565b60606000612400610f09565b905061240a612637565b60005b8281101561251857600081815260046020818152604092839020835161014081018552815460ff80821615158352610100918290046001600160a01b0390811695840195909552600184015494851696830196909652600160a01b840486166060830152600160a81b9093046001600160401b03166080820152600282015460a082015260038083015460c08301529382015460e0820152600582015492810192909252600681015491939092610120850192909116908111156124d3576124d3612823565b60038111156124e4576124e4612823565b905250805190925015612510578184828151811061250457612504612bd0565b60200260200101819052505b60010161240d565b50505090565b8047101561256e5760405162461bcd60e51b815260206004820152601d60248201527f416464726573733a20696e73756666696369656e742062616c616e636500000060448201526064016106de565b6000826001600160a01b03168260405160006040518083038185875af1925050503d80600081146125bb576040519150601f19603f3d011682016040523d82523d6000602084013e6125c0565b606091505b50509050806107e15760405162461bcd60e51b815260206004820152603a60248201527f416464726573733a20756e61626c6520746f2073656e642076616c75652c207260448201527f6563697069656e74206d6179206861766520726576657274656400000000000060648201526084016106de565b6040805161014081018252600080825260208201819052918101829052606081018290526080810182905260a0810182905260c0810182905260e0810182905261010081018290529061012082015290565b60006020828403121561269b57600080fd5b5035919050565b80356001600160a01b0381168114610c1c57600080fd5b6000602082840312156126cb57600080fd5b610f00826126a2565b634e487b7160e01b600052604160045260246000fd5b6000806000806080858703121561270057600080fd5b612709856126a2565b9350612717602086016126a2565b92506040850135915060608501356001600160401b038082111561273a57600080fd5b818701915087601f83011261274e57600080fd5b813581811115612760576127606126d4565b604051601f8201601f19908116603f01168101908382118183101715612788576127886126d4565b816040528281528a60208487010111156127a157600080fd5b82602086016020830137600060208483010152809550505050505092959194509250565b6000806000606084860312156127da57600080fd5b505081359360208301359350604090920135919050565b80356001600160401b0381168114610c1c57600080fd5b60006020828403121561281a57600080fd5b610f00826127f1565b634e487b7160e01b600052602160045260246000fd5b6004811061285757634e487b7160e01b600052602160045260246000fd5b9052565b80511515825260018060a01b0360208201511660208301526001600160401b036040820151166040830152606081015160608301526080810151608083015260a081015160a083015260c08101516107e160c0840182612839565b60e08101610f03828461285b565b6020808252825182820181905260009190848201906040850190845b81811015612906576128f383855161285b565b9284019260e092909201916001016128e0565b50909695505050505050565b6000806040838503121561292557600080fd5b82359150612935602084016127f1565b90509250929050565b805115158252602081015161295e60208401826001600160a01b03169052565b50604081015161297960408401826001600160a01b03169052565b50606081015161298e606084018260ff169052565b5060808101516129a960808401826001600160401b03169052565b5060a081015160a083015260c081015160c083015260e081015160e0830152610100808201518184015250610120808201516129e782850182612839565b50505050565b6020808252825182820181905260009190848201906040850190845b8181101561290657612a1c83855161293e565b928401926101409290920191600101612a09565b60008060408385031215612a4357600080fd5b50508035926020909101359150565b6101408101610f03828461293e565b803560048110610c1c57600080fd5b600080600060608486031215612a8557600080fd5b8335925060208401359150612a9c60408501612a61565b90509250925092565b60008060008060808587031215612abb57600080fd5b612ac4856126a2565b93506020850135925060408501359150612ae060608601612a61565b905092959194509250565b634e487b7160e01b600052601160045260246000fd5b60006001600160401b03808316818516808303821115612b2357612b23612aeb565b01949350505050565b6020808252600c908201526b15539055551213d49256915160a21b604082015260600190565b6000816000190483118215151615612b6c57612b6c612aeb565b500290565b60008219821115612b8457612b84612aeb565b500190565b600060ff821660ff84168060ff03821115612ba657612ba6612aeb565b019392505050565b600082612bcb57634e487b7160e01b600052601260045260246000fd5b500490565b634e487b7160e01b600052603260045260246000fd5b60006001600160401b0383811690831681811015612c0657612c06612aeb565b039392505050565b60006001600160401b0380831681851681830481118215151615612c3457612c34612aeb565b02949350505050565b600060ff821660ff8103612c5357612c53612aeb565b6001019291505056fea164736f6c634300080f000a",
  "devdoc": {
    "kind": "dev",
    "methods": {
      "onERC721Received(address,address,uint256,bytes)": {
        "details": "See {IERC721Receiver-onERC721Received}. Always returns `IERC721Receiver.onERC721Received.selector`."
      }
    },
    "version": 1
  },
  "userdoc": {
    "kind": "user",
    "methods": {},
    "version": 1
  },
  "storageLayout": {
    "storage": [
      {
        "astId": 1718,
        "contract": "contracts/ProjectY.sol:ProjectY",
        "label": "owner",
        "offset": 0,
        "slot": "0",
        "type": "t_address"
      },
      {
        "astId": 1788,
        "contract": "contracts/ProjectY.sol:ProjectY",
        "label": "_entryIdTracker",
        "offset": 0,
        "slot": "1",
        "type": "t_struct(Counter)1377_storage"
      },
      {
        "astId": 1791,
        "contract": "contracts/ProjectY.sol:ProjectY",
        "label": "_bidIdTracker",
        "offset": 0,
        "slot": "2",
        "type": "t_struct(Counter)1377_storage"
      },
      {
        "astId": 1797,
        "contract": "contracts/ProjectY.sol:ProjectY",
        "label": "biddingPeriod",
        "offset": 0,
        "slot": "3",
        "type": "t_uint64"
      },
      {
        "astId": 1800,
        "contract": "contracts/ProjectY.sol:ProjectY",
        "label": "gracePeriod",
        "offset": 8,
        "slot": "3",
        "type": "t_uint64"
      },
      {
        "astId": 1848,
        "contract": "contracts/ProjectY.sol:ProjectY",
        "label": "_sellerInfo",
        "offset": 0,
        "slot": "4",
        "type": "t_mapping(t_uint256,t_struct(SellerInfo)1827_storage)"
      },
      {
        "astId": 1853,
        "contract": "contracts/ProjectY.sol:ProjectY",
        "label": "_buyerInfo",
        "offset": 0,
        "slot": "5",
        "type": "t_mapping(t_uint256,t_struct(BuyerInfo)1843_storage)"
      }
    ],
    "types": {
      "t_address": {
        "encoding": "inplace",
        "label": "address",
        "numberOfBytes": "20"
      },
      "t_bool": {
        "encoding": "inplace",
        "label": "bool",
        "numberOfBytes": "1"
      },
      "t_enum(InstallmentPlan)1805": {
        "encoding": "inplace",
        "label": "enum ProjectY.InstallmentPlan",
        "numberOfBytes": "1"
      },
      "t_mapping(t_uint256,t_struct(BuyerInfo)1843_storage)": {
        "encoding": "mapping",
        "key": "t_uint256",
        "label": "mapping(uint256 => struct ProjectY.BuyerInfo)",
        "numberOfBytes": "32",
        "value": "t_struct(BuyerInfo)1843_storage"
      },
      "t_mapping(t_uint256,t_struct(SellerInfo)1827_storage)": {
        "encoding": "mapping",
        "key": "t_uint256",
        "label": "mapping(uint256 => struct ProjectY.SellerInfo)",
        "numberOfBytes": "32",
        "value": "t_struct(SellerInfo)1827_storage"
      },
      "t_struct(BuyerInfo)1843_storage": {
        "encoding": "inplace",
        "label": "struct ProjectY.BuyerInfo",
        "members": [
          {
            "astId": 1829,
            "contract": "contracts/ProjectY.sol:ProjectY",
            "label": "isSelected",
            "offset": 0,
            "slot": "0",
            "type": "t_bool"
          },
          {
            "astId": 1831,
            "contract": "contracts/ProjectY.sol:ProjectY",
            "label": "buyerAddress",
            "offset": 1,
            "slot": "0",
            "type": "t_address"
          },
          {
            "astId": 1833,
            "contract": "contracts/ProjectY.sol:ProjectY",
            "label": "timestamp",
            "offset": 21,
            "slot": "0",
            "type": "t_uint64"
          },
          {
            "astId": 1835,
            "contract": "contracts/ProjectY.sol:ProjectY",
            "label": "bidPrice",
            "offset": 0,
            "slot": "1",
            "type": "t_uint256"
          },
          {
            "astId": 1837,
            "contract": "contracts/ProjectY.sol:ProjectY",
            "label": "entryId",
            "offset": 0,
            "slot": "2",
            "type": "t_uint256"
          },
          {
            "astId": 1839,
            "contract": "contracts/ProjectY.sol:ProjectY",
            "label": "pricePaid",
            "offset": 0,
            "slot": "3",
            "type": "t_uint256"
          },
          {
            "astId": 1842,
            "contract": "contracts/ProjectY.sol:ProjectY",
            "label": "bidInstallment",
            "offset": 0,
            "slot": "4",
            "type": "t_enum(InstallmentPlan)1805"
          }
        ],
        "numberOfBytes": "160"
      },
      "t_struct(Counter)1377_storage": {
        "encoding": "inplace",
        "label": "struct Counters.Counter",
        "members": [
          {
            "astId": 1376,
            "contract": "contracts/ProjectY.sol:ProjectY",
            "label": "_value",
            "offset": 0,
            "slot": "0",
            "type": "t_uint256"
          }
        ],
        "numberOfBytes": "32"
      },
      "t_struct(SellerInfo)1827_storage": {
        "encoding": "inplace",
        "label": "struct ProjectY.SellerInfo",
        "members": [
          {
            "astId": 1807,
            "contract": "contracts/ProjectY.sol:ProjectY",
            "label": "onSale",
            "offset": 0,
            "slot": "0",
            "type": "t_bool"
          },
          {
            "astId": 1809,
            "contract": "contracts/ProjectY.sol:ProjectY",
            "label": "sellerAddress",
            "offset": 1,
            "slot": "0",
            "type": "t_address"
          },
          {
            "astId": 1811,
            "contract": "contracts/ProjectY.sol:ProjectY",
            "label": "contractAddress",
            "offset": 0,
            "slot": "1",
            "type": "t_address"
          },
          {
            "astId": 1813,
            "contract": "contracts/ProjectY.sol:ProjectY",
            "label": "installmentsPaid",
            "offset": 20,
            "slot": "1",
            "type": "t_uint8"
          },
          {
            "astId": 1815,
            "contract": "contracts/ProjectY.sol:ProjectY",
            "label": "timestamp",
            "offset": 21,
            "slot": "1",
            "type": "t_uint64"
          },
          {
            "astId": 1817,
            "contract": "contracts/ProjectY.sol:ProjectY",
            "label": "tokenId",
            "offset": 0,
            "slot": "2",
            "type": "t_uint256"
          },
          {
            "astId": 1819,
            "contract": "contracts/ProjectY.sol:ProjectY",
            "label": "sellingPrice",
            "offset": 0,
            "slot": "3",
            "type": "t_uint256"
          },
          {
            "astId": 1821,
            "contract": "contracts/ProjectY.sol:ProjectY",
            "label": "totalBids",
            "offset": 0,
            "slot": "4",
            "type": "t_uint256"
          },
          {
            "astId": 1823,
            "contract": "contracts/ProjectY.sol:ProjectY",
            "label": "selectedBidId",
            "offset": 0,
            "slot": "5",
            "type": "t_uint256"
          },
          {
            "astId": 1826,
            "contract": "contracts/ProjectY.sol:ProjectY",
            "label": "installment",
            "offset": 0,
            "slot": "6",
            "type": "t_enum(InstallmentPlan)1805"
          }
        ],
        "numberOfBytes": "224"
      },
      "t_uint256": {
        "encoding": "inplace",
        "label": "uint256",
        "numberOfBytes": "32"
      },
      "t_uint64": {
        "encoding": "inplace",
        "label": "uint64",
        "numberOfBytes": "8"
      },
      "t_uint8": {
        "encoding": "inplace",
        "label": "uint8",
        "numberOfBytes": "1"
      }
    }
  }
}