{
  "address": "0xe827d6d46e4171A281351eAb5d59093586c97f9F",
  "abi": [
    {
      "inputs": [
        {
          "internalType": "address",
          "name": "owner_",
          "type": "address"
        }
      ],
      "stateMutability": "nonpayable",
      "type": "constructor"
    },
    {
      "anonymous": false,
      "inputs": [
        {
          "indexed": true,
          "internalType": "address",
          "name": "buyer",
          "type": "address"
        },
        {
          "indexed": true,
          "internalType": "uint256",
          "name": "entryId",
          "type": "uint256"
        },
        {
          "indexed": true,
          "internalType": "uint256",
          "name": "bidId",
          "type": "uint256"
        },
        {
          "indexed": false,
          "internalType": "uint64",
          "name": "timestamp",
          "type": "uint64"
        }
      ],
      "name": "Bid",
      "type": "event"
    },
    {
      "anonymous": false,
      "inputs": [
        {
          "indexed": true,
          "internalType": "uint256",
          "name": "bidId",
          "type": "uint256"
        },
        {
          "indexed": true,
          "internalType": "uint256",
          "name": "entryId",
          "type": "uint256"
        }
      ],
      "name": "BidSelected",
      "type": "event"
    },
    {
      "anonymous": false,
      "inputs": [
        {
          "indexed": true,
          "internalType": "address",
          "name": "user",
          "type": "address"
        },
        {
          "indexed": true,
          "internalType": "address",
          "name": "newOwner",
          "type": "address"
        }
      ],
      "name": "OwnerUpdated",
      "type": "event"
    },
    {
      "anonymous": false,
      "inputs": [
        {
          "indexed": true,
          "internalType": "address",
          "name": "seller",
          "type": "address"
        },
        {
          "indexed": true,
          "internalType": "address",
          "name": "contractAddress",
          "type": "address"
        },
        {
          "indexed": false,
          "internalType": "uint256",
          "name": "tokenId",
          "type": "uint256"
        },
        {
          "indexed": true,
          "internalType": "uint256",
          "name": "entryId",
          "type": "uint256"
        },
        {
          "indexed": false,
          "internalType": "uint64",
          "name": "timestamp",
          "type": "uint64"
        }
      ],
      "name": "Sell",
      "type": "event"
    },
    {
      "inputs": [],
      "name": "ONE_MONTH",
      "outputs": [
        {
          "internalType": "uint64",
          "name": "",
          "type": "uint64"
        }
      ],
      "stateMutability": "view",
      "type": "function"
    },
    {
      "inputs": [
        {
          "internalType": "uint256",
          "name": "",
          "type": "uint256"
        }
      ],
      "name": "_buyerInfo",
      "outputs": [
        {
          "internalType": "bool",
          "name": "isSelected",
          "type": "bool"
        },
        {
          "internalType": "address",
          "name": "buyerAddress",
          "type": "address"
        },
        {
          "internalType": "uint64",
          "name": "timestamp",
          "type": "uint64"
        },
        {
          "internalType": "uint256",
          "name": "bidPrice",
          "type": "uint256"
        },
        {
          "internalType": "uint256",
          "name": "entryId",
          "type": "uint256"
        },
        {
          "internalType": "uint256",
          "name": "pricePaid",
          "type": "uint256"
        },
        {
          "internalType": "enum ProjectY.InstallmentPlan",
          "name": "bidInstallment",
          "type": "uint8"
        }
      ],
      "stateMutability": "view",
      "type": "function"
    },
    {
      "inputs": [
        {
          "internalType": "uint256",
          "name": "entryId_",
          "type": "uint256"
        },
        {
          "internalType": "uint256",
          "name": "bidPrice_",
          "type": "uint256"
        },
        {
          "internalType": "enum ProjectY.InstallmentPlan",
          "name": "installment_",
          "type": "uint8"
        }
      ],
      "name": "bid",
      "outputs": [
        {
          "internalType": "uint256",
          "name": "",
          "type": "uint256"
        }
      ],
      "stateMutability": "payable",
      "type": "function"
    },
    {
      "inputs": [],
      "name": "biddingPeriod",
      "outputs": [
        {
          "internalType": "uint64",
          "name": "",
          "type": "uint64"
        }
      ],
      "stateMutability": "view",
      "type": "function"
    },
    {
      "inputs": [
        {
          "internalType": "uint256",
          "name": "bidId_",
          "type": "uint256"
        }
      ],
      "name": "buyerAddress",
      "outputs": [
        {
          "internalType": "address",
          "name": "",
          "type": "address"
        }
      ],
      "stateMutability": "view",
      "type": "function"
    },
    {
      "inputs": [
        {
          "internalType": "uint256",
          "name": "bidId_",
          "type": "uint256"
        }
      ],
      "name": "buyerBidInstallment",
      "outputs": [
        {
          "internalType": "enum ProjectY.InstallmentPlan",
          "name": "",
          "type": "uint8"
        }
      ],
      "stateMutability": "view",
      "type": "function"
    },
    {
      "inputs": [
        {
          "internalType": "uint256",
          "name": "bidId_",
          "type": "uint256"
        }
      ],
      "name": "buyerBidPrice",
      "outputs": [
        {
          "internalType": "uint256",
          "name": "",
          "type": "uint256"
        }
      ],
      "stateMutability": "view",
      "type": "function"
    },
    {
      "inputs": [
        {
          "internalType": "uint256",
          "name": "bidId_",
          "type": "uint256"
        }
      ],
      "name": "buyerEntryId",
      "outputs": [
        {
          "internalType": "uint256",
          "name": "",
          "type": "uint256"
        }
      ],
      "stateMutability": "view",
      "type": "function"
    },
    {
      "inputs": [
        {
          "internalType": "uint256",
          "name": "bidId_",
          "type": "uint256"
        }
      ],
      "name": "buyerIsSelected",
      "outputs": [
        {
          "internalType": "bool",
          "name": "",
          "type": "bool"
        }
      ],
      "stateMutability": "view",
      "type": "function"
    },
    {
      "inputs": [
        {
          "internalType": "uint256",
          "name": "bidId_",
          "type": "uint256"
        }
      ],
      "name": "buyerPricePaid",
      "outputs": [
        {
          "internalType": "uint256",
          "name": "",
          "type": "uint256"
        }
      ],
      "stateMutability": "view",
      "type": "function"
    },
    {
      "inputs": [
        {
          "internalType": "uint256",
          "name": "bidId_",
          "type": "uint256"
        }
      ],
      "name": "buyerTimestamp",
      "outputs": [
        {
          "internalType": "uint64",
          "name": "",
          "type": "uint64"
        }
      ],
      "stateMutability": "view",
      "type": "function"
    },
    {
      "inputs": [
        {
          "internalType": "uint256",
          "name": "entryId_",
          "type": "uint256"
        }
      ],
      "name": "currentInstallmentToBePaid",
      "outputs": [
        {
          "internalType": "uint256",
          "name": "",
          "type": "uint256"
        }
      ],
      "stateMutability": "view",
      "type": "function"
    },
    {
      "inputs": [
        {
          "internalType": "uint256",
          "name": "entryId_",
          "type": "uint256"
        },
        {
          "internalType": "uint256",
          "name": "bidId_",
          "type": "uint256"
        }
      ],
      "name": "downPayment",
      "outputs": [
        {
          "internalType": "uint256",
          "name": "",
          "type": "uint256"
        }
      ],
      "stateMutability": "view",
      "type": "function"
    },
    {
      "inputs": [
        {
          "internalType": "uint256",
          "name": "bidId_",
          "type": "uint256"
        }
      ],
      "name": "getInstallmentPhase",
      "outputs": [
        {
          "internalType": "enum ProjectY.InstallmentPhase",
          "name": "",
          "type": "uint8"
        }
      ],
      "stateMutability": "view",
      "type": "function"
    },
    {
      "inputs": [
        {
          "internalType": "uint256",
          "name": "entryId_",
          "type": "uint256"
        },
        {
          "internalType": "uint256",
          "name": "bidId_",
          "type": "uint256"
        },
        {
          "internalType": "enum ProjectY.InstallmentPhase",
          "name": "installmentPhase_",
          "type": "uint8"
        }
      ],
      "name": "getPaymentOfPhase",
      "outputs": [
        {
          "internalType": "uint256",
          "name": "",
          "type": "uint256"
        }
      ],
      "stateMutability": "view",
      "type": "function"
    },
    {
      "inputs": [
        {
          "internalType": "uint256",
          "name": "bidId_",
          "type": "uint256"
        }
      ],
      "name": "isBidIdValid",
      "outputs": [
        {
          "internalType": "bool",
          "name": "isValid_",
          "type": "bool"
        }
      ],
      "stateMutability": "view",
      "type": "function"
    },
    {
      "inputs": [
        {
          "internalType": "uint256",
          "name": "entryId_",
          "type": "uint256"
        }
      ],
      "name": "isEntryIdValid",
      "outputs": [
        {
          "internalType": "bool",
          "name": "isValid_",
          "type": "bool"
        }
      ],
      "stateMutability": "view",
      "type": "function"
    },
    {
      "inputs": [
        {
          "internalType": "uint256",
          "name": "entryId_",
          "type": "uint256"
        }
      ],
      "name": "liquidate",
      "outputs": [],
      "stateMutability": "payable",
      "type": "function"
    },
    {
      "inputs": [
        {
          "internalType": "address",
          "name": "",
          "type": "address"
        },
        {
          "internalType": "address",
          "name": "",
          "type": "address"
        },
        {
          "internalType": "uint256",
          "name": "",
          "type": "uint256"
        },
        {
          "internalType": "bytes",
          "name": "",
          "type": "bytes"
        }
      ],
      "name": "onERC721Received",
      "outputs": [
        {
          "internalType": "bytes4",
          "name": "",
          "type": "bytes4"
        }
      ],
      "stateMutability": "nonpayable",
      "type": "function"
    },
    {
      "inputs": [],
      "name": "owner",
      "outputs": [
        {
          "internalType": "address",
          "name": "",
          "type": "address"
        }
      ],
      "stateMutability": "view",
      "type": "function"
    },
    {
      "inputs": [
        {
          "internalType": "uint256",
          "name": "entryId_",
          "type": "uint256"
        }
      ],
      "name": "payInstallment",
      "outputs": [],
      "stateMutability": "payable",
      "type": "function"
    },
    {
      "inputs": [
        {
          "internalType": "uint256",
          "name": "bidId_",
          "type": "uint256"
        }
      ],
      "name": "selectBid",
      "outputs": [],
      "stateMutability": "nonpayable",
      "type": "function"
    },
    {
      "inputs": [
        {
          "internalType": "address",
          "name": "contractAddress_",
          "type": "address"
        },
        {
          "internalType": "uint256",
          "name": "tokenId_",
          "type": "uint256"
        },
        {
          "internalType": "uint256",
          "name": "sellingPrice_",
          "type": "uint256"
        },
        {
          "internalType": "enum ProjectY.InstallmentPlan",
          "name": "installment_",
          "type": "uint8"
        }
      ],
      "name": "sell",
      "outputs": [
        {
          "internalType": "uint256",
          "name": "",
          "type": "uint256"
        }
      ],
      "stateMutability": "nonpayable",
      "type": "function"
    },
    {
      "inputs": [
        {
          "internalType": "uint256",
          "name": "entryId_",
          "type": "uint256"
        }
      ],
      "name": "sellerAddress",
      "outputs": [
        {
          "internalType": "address",
          "name": "",
          "type": "address"
        }
      ],
      "stateMutability": "view",
      "type": "function"
    },
    {
      "inputs": [
        {
          "internalType": "uint256",
          "name": "entryId_",
          "type": "uint256"
        }
      ],
      "name": "sellerContractAddress",
      "outputs": [
        {
          "internalType": "address",
          "name": "",
          "type": "address"
        }
      ],
      "stateMutability": "view",
      "type": "function"
    },
    {
      "inputs": [
        {
          "internalType": "uint256",
          "name": "entryId_",
          "type": "uint256"
        }
      ],
      "name": "sellerInstallment",
      "outputs": [
        {
          "internalType": "enum ProjectY.InstallmentPlan",
          "name": "",
          "type": "uint8"
        }
      ],
      "stateMutability": "view",
      "type": "function"
    },
    {
      "inputs": [
        {
          "internalType": "uint256",
          "name": "entryId_",
          "type": "uint256"
        }
      ],
      "name": "sellerOnSale",
      "outputs": [
        {
          "internalType": "bool",
          "name": "",
          "type": "bool"
        }
      ],
      "stateMutability": "view",
      "type": "function"
    },
    {
      "inputs": [
        {
          "internalType": "uint256",
          "name": "entryId_",
          "type": "uint256"
        }
      ],
      "name": "sellerSelectedBidId",
      "outputs": [
        {
          "internalType": "uint256",
          "name": "",
          "type": "uint256"
        }
      ],
      "stateMutability": "view",
      "type": "function"
    },
    {
      "inputs": [
        {
          "internalType": "uint256",
          "name": "entryId_",
          "type": "uint256"
        }
      ],
      "name": "sellerSellingPrice",
      "outputs": [
        {
          "internalType": "uint256",
          "name": "",
          "type": "uint256"
        }
      ],
      "stateMutability": "view",
      "type": "function"
    },
    {
      "inputs": [
        {
          "internalType": "uint256",
          "name": "entryId_",
          "type": "uint256"
        }
      ],
      "name": "sellerTimestamp",
      "outputs": [
        {
          "internalType": "uint64",
          "name": "",
          "type": "uint64"
        }
      ],
      "stateMutability": "view",
      "type": "function"
    },
    {
      "inputs": [
        {
          "internalType": "uint256",
          "name": "entryId_",
          "type": "uint256"
        }
      ],
      "name": "sellerTokenId",
      "outputs": [
        {
          "internalType": "uint256",
          "name": "",
          "type": "uint256"
        }
      ],
      "stateMutability": "view",
      "type": "function"
    },
    {
      "inputs": [
        {
          "internalType": "uint256",
          "name": "entryId_",
          "type": "uint256"
        }
      ],
      "name": "sellerTotalBids",
      "outputs": [
        {
          "internalType": "uint256",
          "name": "",
          "type": "uint256"
        }
      ],
      "stateMutability": "view",
      "type": "function"
    },
    {
      "inputs": [
        {
          "internalType": "uint64",
          "name": "biddingPeriod_",
          "type": "uint64"
        }
      ],
      "name": "setBiddingPeriod",
      "outputs": [],
      "stateMutability": "nonpayable",
      "type": "function"
    },
    {
      "inputs": [
        {
          "internalType": "address",
          "name": "newOwner",
          "type": "address"
        }
      ],
      "name": "setOwner",
      "outputs": [],
      "stateMutability": "nonpayable",
      "type": "function"
    },
    {
      "inputs": [],
      "name": "totalBidIds",
      "outputs": [
        {
          "internalType": "uint256",
          "name": "",
          "type": "uint256"
        }
      ],
      "stateMutability": "view",
      "type": "function"
    },
    {
      "inputs": [],
      "name": "totalEntryIds",
      "outputs": [
        {
          "internalType": "uint256",
          "name": "",
          "type": "uint256"
        }
      ],
      "stateMutability": "view",
      "type": "function"
    },
    {
      "inputs": [
        {
          "internalType": "uint256",
          "name": "bidId_",
          "type": "uint256"
        }
      ],
      "name": "withdrawBid",
      "outputs": [],
      "stateMutability": "nonpayable",
      "type": "function"
    }
  ],
  "transactionHash": "0xde54e52c1cabaa727cf3c9d88c649b95b621182011f332fab72f4efd7739247d",
  "args": [
    "0xde43f899587aaa2Ea6aD243F3d68a5027F2C6a94"
  ],
  "numDeployments": 1,
  "solcInputHash": "e3fc1ad166bd6a437b8dc247f9e45e18",
  "bytecode": "0x6080604052600380546001600160401b03191662093a801790553480156200002657600080fd5b5060405162002aa338038062002aa3833981016040819052620000499162000099565b600080546001600160a01b0319166001600160a01b03831690811782556040518392907f8292fce18fa69edf4db7b94ea2e58241df0ae57f97e0a6c9b29067028bf92d76908290a35050620000cb565b600060208284031215620000ac57600080fd5b81516001600160a01b0381168114620000c457600080fd5b9392505050565b6129c880620000db6000396000f3fe60806040526004361061021a5760003560e01c80638da5cb5b11610123578063bed9b952116100ab578063e380dbd31161006f578063e380dbd3146106da578063f59d4731146106fa578063f7ac8a0a1461071a578063f8de03ac1461073a578063fd5f0a251461074d57600080fd5b8063bed9b95214610647578063cea8565a14610667578063dc17d52514610687578063e248aa56146106a7578063e2f8a017146106c757600080fd5b8063a7d53ac3116100f2578063a7d53ac31461059a578063a83a0880146105ba578063a850d79a146105da578063aaf6fb1d146105fa578063af834d351461062757600080fd5b80638da5cb5b1461052557806391e1329314610545578063985937f514610565578063a64786f11461058557600080fd5b8063439ac365116101a65780636a63908d116101755780636a63908d146104905780636ea04d5e146104a557806377a39ba9146104c557806386b34270146104e55780638a3b90b11461050557600080fd5b8063439ac36514610403578063444eebc21461042357806345806097146104505780635f8909bd1461047057600080fd5b8063150b7a02116101ed578063150b7a02146102ce57806320988cef146103125780632af25582146103415780633e2ab36f146103c2578063415f1240146103f057600080fd5b806309bb59af1461021f5780630ac6fa9d1461025c5780630eaaf4c81461028c57806313af4035146102ae575b600080fd5b34801561022b57600080fd5b5061023f61023a3660046125b5565b61076d565b6040516001600160a01b0390911681526020015b60405180910390f35b34801561026857600080fd5b5061027c6102773660046125b5565b610798565b6040519015158152602001610253565b34801561029857600080fd5b506102ac6102a73660046125b5565b6107ba565b005b3480156102ba57600080fd5b506102ac6102c93660046125e5565b610999565b3480156102da57600080fd5b506102f96102e936600461261d565b630a85bd0160e11b949350505050565b6040516001600160e01b03199091168152602001610253565b34801561031e57600080fd5b5061032962278d0081565b6040516001600160401b039091168152602001610253565b34801561034d57600080fd5b506103af61035c3660046125b5565b6005602052600090815260409020805460018201546002830154600384015460049094015460ff8085169561010086046001600160a01b031695600160a81b90046001600160401b031694939290911687565b6040516102539796959493929190612722565b3480156103ce57600080fd5b506103e26103dd3660046125b5565b610a2d565b604051908152602001610253565b6102ac6103fe3660046125b5565b610a50565b34801561040f57600080fd5b5061032961041e3660046125b5565b610d97565b34801561042f57600080fd5b5061044361043e3660046125b5565b610dc6565b6040516102539190612777565b34801561045c57600080fd5b5061027c61046b3660046125b5565b6111c3565b34801561047c57600080fd5b50600354610329906001600160401b031681565b34801561049c57600080fd5b506103e2611234565b3480156104b157600080fd5b506103e26104c03660046125b5565b611244565b3480156104d157600080fd5b506103e26104e03660046125b5565b611266565b3480156104f157600080fd5b506103e26105003660046125b5565b611288565b34801561051157600080fd5b506103e26105203660046125b5565b6112aa565b34801561053157600080fd5b5060005461023f906001600160a01b031681565b34801561055157600080fd5b506103296105603660046125b5565b6112cc565b34801561057157600080fd5b5061027c6105803660046125b5565b6112fe565b34801561059157600080fd5b506103e261136a565b3480156105a657600080fd5b506102ac6105b53660046125b5565b611375565b3480156105c657600080fd5b506103e26105d53660046125b5565b611552565b3480156105e657600080fd5b5061027c6105f53660046125b5565b611574565b34801561060657600080fd5b5061061a6106153660046125b5565b611596565b6040516102539190612791565b34801561063357600080fd5b5061023f6106423660046125b5565b6115bb565b34801561065357600080fd5b5061023f6106623660046125b5565b6115e8565b34801561067357600080fd5b506103e261068236600461279f565b611615565b34801561069357600080fd5b506103e26106a23660046125b5565b6117c3565b3480156106b357600080fd5b5061061a6106c23660046125b5565b6117e5565b6102ac6106d53660046125b5565b61180a565b3480156106e657600080fd5b506102ac6106f53660046127c1565b611bd8565b34801561070657600080fd5b506103e26107153660046125b5565b611c9d565b34801561072657600080fd5b506103e26107353660046127ea565b611ed5565b6103e2610748366004612836565b611f18565b34801561075957600080fd5b506103e261076836600461286b565b6121fd565b6000610778826112fe565b50506000908152600460205260409020600101546001600160a01b031690565b60006107a3826112fe565b505060009081526004602052604090205460ff1690565b6107c3816111c3565b506000818152600560209081526040808320815160e081018352815460ff8082161515835261010082046001600160a01b031695830195909552600160a81b90046001600160401b031692810192909252600181015460608301526002810154608083015260038082015460a084015260048201549293919260c08501921690811115610852576108526126f8565b6003811115610863576108636126f8565b905250608081015160208083015160a08401516003546000858152600490945260409093206001015494955092939092916108b2916001600160401b0391821691600160a01b909104166128c7565b6001600160401b0316426001600160401b031610156108ec5760405162461bcd60e51b81526004016108e3906128f2565b60405180910390fd5b83511561094b5760405162461bcd60e51b815260206004820152602760248201527f50726f6a656374593a204269646465722073686f756c64206e6f742062652073604482015266195b1958dd195960ca1b60648201526084016108e3565b600085815260056020526040812080546001600160e81b031916815560018101829055600281018290556003810191909155600401805460ff191690556109928282612497565b5050505050565b6000546001600160a01b031633146109e25760405162461bcd60e51b815260206004820152600c60248201526b15539055551213d49256915160a21b60448201526064016108e3565b600080546001600160a01b0319166001600160a01b0383169081178255604051909133917f8292fce18fa69edf4db7b94ea2e58241df0ae57f97e0a6c9b29067028bf92d769190a350565b6000610a38826112fe565b50506000908152600460208190526040909120015490565b34610a5a826112fe565b506000828152600460208181526040808420815161012081018352815460ff80821615158352610100918290046001600160a01b0390811696840196909652600184015495861694830194909452600160a01b9094046001600160401b031660608201526002820154608082015260038083015460a08301529482015460c0820152600582015460e08201526006820154909491938501921690811115610b0357610b036126f8565b6003811115610b1457610b146126f8565b90525060e0810151909150610b28816111c3565b506000818152600560209081526040808320815160e081018352815460ff8082161515835261010082046001600160a01b031695830195909552600160a81b90046001600160401b031692810192909252600181015460608301526002810154608083015260038082015460a084015260048201549293919260c08501921690811115610bb757610bb76126f8565b6003811115610bc857610bc86126f8565b90525090506000610bd883610dc6565b9050600082602001519050600060648460a00151605f610bf89190612933565b610c029190612952565b90506000610c0f89611c9d565b90506000610c1e8a8887611ed5565b90508560a001518103610c735760405162461bcd60e51b815260206004820152601a60248201527f50726f6a656374593a205068617365207072696365207061696400000000000060448201526064016108e3565b81600003610ce95760405162461bcd60e51b815260206004820152603960248201527f50726f6a656374593a206e6f206c6971756964617465206f70706f7274756e6960448201527f7479206173206e6f20696e7374616c6c6d656e74206c6566740000000000000060648201526084016108e3565b888314610d5e5760405162461bcd60e51b815260206004820152603b60248201527f50726f6a656374593a2076616c7565206d75737420626520657175616c20746f60448201527f2039352520707269636550616964206279206f6c64206275796572000000000060648201526084016108e3565b60008781526005602052604090208054610100600160a81b0319166101003302179055610d8b8484612497565b50505050505050505050565b6000610da2826111c3565b5050600090815260056020526040902054600160a81b90046001600160401b031690565b600081815260056020526040812080546004909101544291600160a81b90046001600160401b03169060ff1683610e0062278d00846128c7565b6001600160401b031690506000610e1b62278d006002612974565b610e2590856128c7565b6001600160401b031690506000610e4062278d006003612974565b610e4a90866128c7565b6001600160401b031690506000610e6562278d006004612974565b610e6f90876128c7565b6001600160401b031690506000610e8a62278d006005612974565b610e9490886128c7565b6001600160401b031690506000610eaf62278d006006612974565b610eb990896128c7565b6001600160401b031690506000610ed462278d006007612974565b610ede908a6128c7565b6001600160401b031690506000610ef962278d006008612974565b610f03908b6128c7565b6001600160401b031690506001896003811115610f2257610f226126f8565b03610fa157868b6001600160401b03161115610f4b575060039c9b505050505050505050505050565b878b6001600160401b03161115610f6f575060029c9b505050505050505050505050565b896001600160401b03168b6001600160401b03161115610f9c575060019c9b505050505050505050505050565b6111b0565b6002896003811115610fb557610fb56126f8565b0361104a57838b6001600160401b03161115610fde575060069c9b505050505050505050505050565b848b6001600160401b03161115611002575060059c9b505050505050505050505050565b858b6001600160401b03161115611026575060049c9b505050505050505050505050565b868b6001600160401b03161115610f4b575060039c9b505050505050505050505050565b600389600381111561105e5761105e6126f8565b036111b057808b6001600160401b03161115611087575060099c9b505050505050505050505050565b818b6001600160401b031611156110ab575060089c9b505050505050505050505050565b828b6001600160401b031611156110cf575060079c9b505050505050505050505050565b838b6001600160401b031611156110f3575060069c9b505050505050505050505050565b848b6001600160401b03161115611117575060059c9b505050505050505050505050565b858b6001600160401b0316111561113b575060049c9b505050505050505050505050565b868b6001600160401b0316111561115f575060039c9b505050505050505050505050565b878b6001600160401b03161115611183575060029c9b505050505050505050505050565b896001600160401b03168b6001600160401b031611156111b0575060019c9b505050505050505050505050565b5060009c9b505050505050505050505050565b60008181526005602052604090205461010090046001600160a01b031615158061122f5760405162461bcd60e51b815260206004820152601760248201527f50726f6a656374593a20496e76616c696420626964496400000000000000000060448201526064016108e3565b919050565b600061123f60015490565b905090565b600061124f826112fe565b505060009081526004602052604090206002015490565b6000611271826112fe565b505060009081526004602052604090206005015490565b6000611293826111c3565b505060009081526005602052604090206003015490565b60006112b5826111c3565b505060009081526005602052604090206001015490565b60006112d7826112fe565b5050600090815260046020526040902060010154600160a01b90046001600160401b031690565b60008181526004602052604090205461010090046001600160a01b031615158061122f5760405162461bcd60e51b815260206004820152601960248201527f50726f6a656374593a20496e76616c696420656e74727949640000000000000060448201526064016108e3565b600061123f60025490565b4261137f826111c3565b5060008281526005602052604090206002015461139b816112fe565b5060008181526004602052604090205461010090046001600160a01b0316336001600160a01b0316146114105760405162461bcd60e51b815260206004820152601f60248201527f50726f6a656374593a2043616c6c6572206d7573742062652073656c6c65720060448201526064016108e3565b600354600082815260046020526040902060010154611442916001600160401b0390811691600160a01b9004166128c7565b6001600160401b0316826001600160401b031610156114735760405162461bcd60e51b81526004016108e3906128f2565b60008381526005602081815260408084208054600160ff67ffffffffffffffff60a81b0119909116600160a81b6001600160401b038a1602178117825586865260049384905291909420805460ff19908116825593810188905591909301546006909101805460ff90921693909291909116908360038111156114f8576114f86126f8565b021790555060008381526005602090815260408083206001015484845260049092528083206003019190915551829185917f9295c82ed42927512117ef31a7c3fed86244add76abc91d00191ff9b37a7b8ea9190a3505050565b600061155d826112fe565b505060009081526004602052604090206003015490565b600061157f826111c3565b505060009081526005602052604090205460ff1690565b60006115a1826111c3565b505060009081526005602052604090206004015460ff1690565b60006115c6826112fe565b505060009081526004602052604090205461010090046001600160a01b031690565b60006115f3826111c3565b505060009081526005602052604090205461010090046001600160a01b031690565b6000611620836112fe565b5061162a826111c3565b506000828152600560209081526040808320815160e081018352815460ff8082161515835261010082046001600160a01b031695830195909552600160a81b90046001600160401b031692810192909252600181015460608301526002810154608083015260038082015460a084015260048201549293919260c085019216908111156116b9576116b96126f8565b60038111156116ca576116ca6126f8565b90525060a0810151909150156117225760405162461bcd60e51b815260206004820152601b60248201527f50726f6a656374593a20446f776e207061796d656e7420646f6e65000000000060448201526064016108e3565b60c081015160608201516001826003811115611740576117406126f8565b03611766576064611752826022612933565b61175c9190612952565b93505050506117bd565b600282600381111561177a5761177a6126f8565b0361178d576103e86117528260af612933565b60038260038111156117a1576117a16126f8565b036117b357606461175282600c612933565b92506117bd915050565b92915050565b60006117ce826111c3565b505060009081526005602052604090206002015490565b60006117f0826112fe565b505060009081526004602052604090206006015460ff1690565b34611814826112fe565b50600082815260046020526040812060050154908190036118775760405162461bcd60e51b815260206004820152601c60248201527f50726f6a656374593a204269644964206e6f742073656c65637465640000000060448201526064016108e3565b6000818152600560209081526040808320815160e081018352815460ff8082161515835261010082046001600160a01b031695830195909552600160a81b90046001600160401b031692810192909252600181015460608301526002810154608083015260038082015460a084015260048201549293919260c08501921690811115611905576119056126f8565b6003811115611916576119166126f8565b90525060208101519091506001600160a01b031633146119785760405162461bcd60e51b815260206004820152601e60248201527f50726f6a656374593a204275796572206d7573742062652063616c6c6572000060448201526064016108e3565b606081015160a08201518181036119d15760405162461bcd60e51b815260206004820152601e60248201527f50726f6a656374593a20696e7374616c6c6d656e7420636f6d706c657465000060448201526064016108e3565b60006119dc87611c9d565b905085811480156119ec57508515155b80156119f757508015155b611a735760405162461bcd60e51b815260206004820152604160248201527f50726f6a656374593a2076616c7565206d75737420626520657175616c20746f60448201527f20696e7374616c6c6d656e74207061796d656e7420616e64206e6f6e2d7a65726064820152606f60f81b608482015260a4016108e3565b60008581526005602052604081206003018054889290611a949084906129a3565b90915550506000858152600560205260409020600381015460019091015403611bcf57600087815260046020819052604080832060018101546002909101548251632142170760e11b81523094810194909452336024850152604484015290516001600160a01b03909116926342842e0e926064808201939182900301818387803b158015611b2257600080fd5b505af1158015611b36573d6000803e3d6000fd5b505050600088815260046020818152604080842080546001600160a81b0319168155600180820180546001600160e01b03191690556002808301879055600380840188905583870188905560058085018990556006909401805460ff199081169091558e89529390955292862080546001600160e81b031916815590810186905591820185905591810193909355910180549091169055505b50505050505050565b6000546001600160a01b03163314611c215760405162461bcd60e51b815260206004820152600c60248201526b15539055551213d49256915160a21b60448201526064016108e3565b806001600160401b0316600003611c7a5760405162461bcd60e51b815260206004820181905260248201527f50726f6a656374593a20496e76616c69642062696464696e6720706572696f6460448201526064016108e3565b6003805467ffffffffffffffff19166001600160401b0392909216919091179055565b6000611ca8826112fe565b506000828152600460208181526040808420815161012081018352815460ff80821615158352610100918290046001600160a01b0390811696840196909652600184015495861694830194909452600160a01b9094046001600160401b031660608201526002820154608082015260038083015460a08301529482015460c0820152600582015460e08201526006820154909491938501921690811115611d5157611d516126f8565b6003811115611d6257611d626126f8565b90525060e0810151909150611d76816111c3565b506000818152600560209081526040808320815160e081018352815460ff8082161515835261010082046001600160a01b031695830195909552600160a81b90046001600160401b031692810192909252600181015460608301526002810154608083015260038082015460a084015260048201549293919260c08501921690811115611e0557611e056126f8565b6003811115611e1657611e166126f8565b8152505090508060a00151816060015103611e3657506000949350505050565b60c081015160608201516001826003811115611e5457611e546126f8565b03611e7b576064611e66826021612933565b611e709190612952565b979650505050505050565b6002826003811115611e8f57611e8f6126f8565b03611ea2576103e8611e668260a5612933565b6003826003811115611eb657611eb66126f8565b03611ec8576064611e6682600b612933565b5060009695505050505050565b6000611ee084611c9d565b826009811115611ef257611ef26126f8565b611efc9190612933565b611f068585611615565b611f1091906129a3565b949350505050565b60003442611f2a600280546001019055565b6000611f3560025490565b60008181526005602052604081208054610100600160a81b0319166101003302179055909150611f658883611615565b90508315801590611f7557508084145b611fd75760405162461bcd60e51b815260206004820152602d60248201527f50726f6a656374593a2076616c7565206d75737420626520657175616c20746f60448201526c08191bdddb881c185e5b595b9d609a1b60648201526084016108e3565b600354600089815260046020526040902060010154612009916001600160401b0390811691600160a01b9004166128c7565b6001600160401b0316836001600160401b0316111561206a5760405162461bcd60e51b815260206004820152601d60248201527f50726f6a656374593a2042696464696e6720706572696f64206f76657200000060448201526064016108e3565b6040805160e081019091526000815260208101336001600160a01b03168152602001846001600160401b031681526020018881526020018981526020018581526020018760038111156120bf576120bf6126f8565b90526000838152600560209081526040918290208351815492850151938501516001600160401b0316600160a81b0267ffffffffffffffff60a81b196001600160a01b0390951661010002610100600160a81b0319921515929092166001600160a81b031990941693909317179290921617815560608201516001808301919091556080830151600283015560a083015160038084019190915560c08401516004840180549193909260ff1992909216918490811115612181576121816126f8565b0217905550505060008881526004602081905260408220018054600192906121aa9084906129a3565b9091555050604080516001600160401b0385168152905183918a9133917f5ab6bd288ed4e1289e3291c15622be6529f14e70b0a6e04a211ee938020c6dea919081900360200190a4509695505050505050565b60008260000361224f5760405162461bcd60e51b815260206004820152601760248201527f50726f6a656374593a20496e76616c696420507269636500000000000000000060448201526064016108e3565b4261225e600180546001019055565b600061226960015490565b90506001600160a01b0387166342842e0e336040516001600160e01b031960e084901b1681526001600160a01b03909116600482015230602482015260448101899052606401600060405180830381600087803b1580156122c957600080fd5b505af11580156122dd573d6000803e3d6000fd5b505050506040518061012001604052806001151581526020016122fd3390565b6001600160a01b03168152602001886001600160a01b03168152602001836001600160401b031681526020018781526020018681526020016000815260200160008152602001856003811115612355576123556126f8565b905260008281526004602081815260409283902084518154928601516001600160a81b0319909316901515610100600160a81b031916176101006001600160a01b03938416810291909117825593850151600180830180546060890151939095166001600160e01b031990951694909417600160a01b6001600160401b0390931692909202919091179092556080850151600282015560a085015160038083019190915560c08601519382019390935560e08501516005820155928401516006840180549193909260ff1990921691908490811115612436576124366126f8565b021790555050604080518881526001600160401b03851660208201528392506001600160a01b038a169133917fb9120c5321ef5d2f12cd98255cac811fca6e4fbc0ee94caf950c34292603f6af910160405180910390a49695505050505050565b804710156124e75760405162461bcd60e51b815260206004820152601d60248201527f416464726573733a20696e73756666696369656e742062616c616e636500000060448201526064016108e3565b6000826001600160a01b03168260405160006040518083038185875af1925050503d8060008114612534576040519150601f19603f3d011682016040523d82523d6000602084013e612539565b606091505b50509050806125b05760405162461bcd60e51b815260206004820152603a60248201527f416464726573733a20756e61626c6520746f2073656e642076616c75652c207260448201527f6563697069656e74206d6179206861766520726576657274656400000000000060648201526084016108e3565b505050565b6000602082840312156125c757600080fd5b5035919050565b80356001600160a01b038116811461122f57600080fd5b6000602082840312156125f757600080fd5b612600826125ce565b9392505050565b634e487b7160e01b600052604160045260246000fd5b6000806000806080858703121561263357600080fd5b61263c856125ce565b935061264a602086016125ce565b92506040850135915060608501356001600160401b038082111561266d57600080fd5b818701915087601f83011261268157600080fd5b81358181111561269357612693612607565b604051601f8201601f19908116603f011681019083821181831017156126bb576126bb612607565b816040528281528a60208487010111156126d457600080fd5b82602086016020830137600060208483010152809550505050505092959194509250565b634e487b7160e01b600052602160045260246000fd5b6004811061271e5761271e6126f8565b9052565b87151581526001600160a01b03871660208201526001600160401b0386166040820152606081018590526080810184905260a0810183905260e0810161276b60c083018461270e565b98975050505050505050565b60208101600a831061278b5761278b6126f8565b91905290565b602081016117bd828461270e565b600080604083850312156127b257600080fd5b50508035926020909101359150565b6000602082840312156127d357600080fd5b81356001600160401b038116811461260057600080fd5b6000806000606084860312156127ff57600080fd5b83359250602084013591506040840135600a811061281c57600080fd5b809150509250925092565b80356004811061122f57600080fd5b60008060006060848603121561284b57600080fd5b833592506020840135915061286260408501612827565b90509250925092565b6000806000806080858703121561288157600080fd5b61288a856125ce565b935060208501359250604085013591506128a660608601612827565b905092959194509250565b634e487b7160e01b600052601160045260246000fd5b60006001600160401b038083168185168083038211156128e9576128e96128b1565b01949350505050565b60208082526021908201527f50726f6a656374593a2042696464696e6720706572696f64206e6f74206f76656040820152603960f91b606082015260800190565b600081600019048311821515161561294d5761294d6128b1565b500290565b60008261296f57634e487b7160e01b600052601260045260246000fd5b500490565b60006001600160401b038083168185168183048111821515161561299a5761299a6128b1565b02949350505050565b600082198211156129b6576129b66128b1565b50019056fea164736f6c634300080f000a",
  "devdoc": {
    "kind": "dev",
    "methods": {
      "onERC721Received(address,address,uint256,bytes)": {
        "details": "See {IERC721Receiver-onERC721Received}. Always returns `IERC721Receiver.onERC721Received.selector`."
      }
    },
    "version": 1
  },
  "userdoc": {
    "kind": "user",
    "methods": {},
    "version": 1
  },
  "storageLayout": {
    "storage": [
      {
        "astId": 1718,
        "contract": "contracts/ProjectY.sol:ProjectY",
        "label": "owner",
        "offset": 0,
        "slot": "0",
        "type": "t_address"
      },
      {
        "astId": 1788,
        "contract": "contracts/ProjectY.sol:ProjectY",
        "label": "_entryIdTracker",
        "offset": 0,
        "slot": "1",
        "type": "t_struct(Counter)1377_storage"
      },
      {
        "astId": 1791,
        "contract": "contracts/ProjectY.sol:ProjectY",
        "label": "_bidIdTracker",
        "offset": 0,
        "slot": "2",
        "type": "t_struct(Counter)1377_storage"
      },
      {
        "astId": 1797,
        "contract": "contracts/ProjectY.sol:ProjectY",
        "label": "biddingPeriod",
        "offset": 0,
        "slot": "3",
        "type": "t_uint64"
      },
      {
        "astId": 1854,
        "contract": "contracts/ProjectY.sol:ProjectY",
        "label": "_sellerInfo",
        "offset": 0,
        "slot": "4",
        "type": "t_mapping(t_uint256,t_struct(SellerInfo)1833_storage)"
      },
      {
        "astId": 1859,
        "contract": "contracts/ProjectY.sol:ProjectY",
        "label": "_buyerInfo",
        "offset": 0,
        "slot": "5",
        "type": "t_mapping(t_uint256,t_struct(BuyerInfo)1849_storage)"
      }
    ],
    "types": {
      "t_address": {
        "encoding": "inplace",
        "label": "address",
        "numberOfBytes": "20"
      },
      "t_bool": {
        "encoding": "inplace",
        "label": "bool",
        "numberOfBytes": "1"
      },
      "t_enum(InstallmentPlan)1802": {
        "encoding": "inplace",
        "label": "enum ProjectY.InstallmentPlan",
        "numberOfBytes": "1"
      },
      "t_mapping(t_uint256,t_struct(BuyerInfo)1849_storage)": {
        "encoding": "mapping",
        "key": "t_uint256",
        "label": "mapping(uint256 => struct ProjectY.BuyerInfo)",
        "numberOfBytes": "32",
        "value": "t_struct(BuyerInfo)1849_storage"
      },
      "t_mapping(t_uint256,t_struct(SellerInfo)1833_storage)": {
        "encoding": "mapping",
        "key": "t_uint256",
        "label": "mapping(uint256 => struct ProjectY.SellerInfo)",
        "numberOfBytes": "32",
        "value": "t_struct(SellerInfo)1833_storage"
      },
      "t_struct(BuyerInfo)1849_storage": {
        "encoding": "inplace",
        "label": "struct ProjectY.BuyerInfo",
        "members": [
          {
            "astId": 1835,
            "contract": "contracts/ProjectY.sol:ProjectY",
            "label": "isSelected",
            "offset": 0,
            "slot": "0",
            "type": "t_bool"
          },
          {
            "astId": 1837,
            "contract": "contracts/ProjectY.sol:ProjectY",
            "label": "buyerAddress",
            "offset": 1,
            "slot": "0",
            "type": "t_address"
          },
          {
            "astId": 1839,
            "contract": "contracts/ProjectY.sol:ProjectY",
            "label": "timestamp",
            "offset": 21,
            "slot": "0",
            "type": "t_uint64"
          },
          {
            "astId": 1841,
            "contract": "contracts/ProjectY.sol:ProjectY",
            "label": "bidPrice",
            "offset": 0,
            "slot": "1",
            "type": "t_uint256"
          },
          {
            "astId": 1843,
            "contract": "contracts/ProjectY.sol:ProjectY",
            "label": "entryId",
            "offset": 0,
            "slot": "2",
            "type": "t_uint256"
          },
          {
            "astId": 1845,
            "contract": "contracts/ProjectY.sol:ProjectY",
            "label": "pricePaid",
            "offset": 0,
            "slot": "3",
            "type": "t_uint256"
          },
          {
            "astId": 1848,
            "contract": "contracts/ProjectY.sol:ProjectY",
            "label": "bidInstallment",
            "offset": 0,
            "slot": "4",
            "type": "t_enum(InstallmentPlan)1802"
          }
        ],
        "numberOfBytes": "160"
      },
      "t_struct(Counter)1377_storage": {
        "encoding": "inplace",
        "label": "struct Counters.Counter",
        "members": [
          {
            "astId": 1376,
            "contract": "contracts/ProjectY.sol:ProjectY",
            "label": "_value",
            "offset": 0,
            "slot": "0",
            "type": "t_uint256"
          }
        ],
        "numberOfBytes": "32"
      },
      "t_struct(SellerInfo)1833_storage": {
        "encoding": "inplace",
        "label": "struct ProjectY.SellerInfo",
        "members": [
          {
            "astId": 1815,
            "contract": "contracts/ProjectY.sol:ProjectY",
            "label": "onSale",
            "offset": 0,
            "slot": "0",
            "type": "t_bool"
          },
          {
            "astId": 1817,
            "contract": "contracts/ProjectY.sol:ProjectY",
            "label": "sellerAddress",
            "offset": 1,
            "slot": "0",
            "type": "t_address"
          },
          {
            "astId": 1819,
            "contract": "contracts/ProjectY.sol:ProjectY",
            "label": "contractAddress",
            "offset": 0,
            "slot": "1",
            "type": "t_address"
          },
          {
            "astId": 1821,
            "contract": "contracts/ProjectY.sol:ProjectY",
            "label": "timestamp",
            "offset": 20,
            "slot": "1",
            "type": "t_uint64"
          },
          {
            "astId": 1823,
            "contract": "contracts/ProjectY.sol:ProjectY",
            "label": "tokenId",
            "offset": 0,
            "slot": "2",
            "type": "t_uint256"
          },
          {
            "astId": 1825,
            "contract": "contracts/ProjectY.sol:ProjectY",
            "label": "sellingPrice",
            "offset": 0,
            "slot": "3",
            "type": "t_uint256"
          },
          {
            "astId": 1827,
            "contract": "contracts/ProjectY.sol:ProjectY",
            "label": "totalBids",
            "offset": 0,
            "slot": "4",
            "type": "t_uint256"
          },
          {
            "astId": 1829,
            "contract": "contracts/ProjectY.sol:ProjectY",
            "label": "selectedBidId",
            "offset": 0,
            "slot": "5",
            "type": "t_uint256"
          },
          {
            "astId": 1832,
            "contract": "contracts/ProjectY.sol:ProjectY",
            "label": "installment",
            "offset": 0,
            "slot": "6",
            "type": "t_enum(InstallmentPlan)1802"
          }
        ],
        "numberOfBytes": "224"
      },
      "t_uint256": {
        "encoding": "inplace",
        "label": "uint256",
        "numberOfBytes": "32"
      },
      "t_uint64": {
        "encoding": "inplace",
        "label": "uint64",
        "numberOfBytes": "8"
      }
    }
  }
}