{
  "address": "0x49c4Bc58e8547c5060d94Ffe645e0eaFD75059Ed",
  "abi": [
    {
      "inputs": [
        {
          "internalType": "address",
          "name": "owner_",
          "type": "address"
        }
      ],
      "stateMutability": "nonpayable",
      "type": "constructor"
    },
    {
      "anonymous": false,
      "inputs": [
        {
          "indexed": true,
          "internalType": "address",
          "name": "buyer",
          "type": "address"
        },
        {
          "indexed": true,
          "internalType": "uint256",
          "name": "entryId",
          "type": "uint256"
        },
        {
          "indexed": true,
          "internalType": "uint256",
          "name": "bidId",
          "type": "uint256"
        },
        {
          "indexed": false,
          "internalType": "uint64",
          "name": "timestamp",
          "type": "uint64"
        }
      ],
      "name": "Bid",
      "type": "event"
    },
    {
      "anonymous": false,
      "inputs": [
        {
          "indexed": true,
          "internalType": "uint256",
          "name": "bidId",
          "type": "uint256"
        },
        {
          "indexed": true,
          "internalType": "uint256",
          "name": "entryId",
          "type": "uint256"
        }
      ],
      "name": "BidSelected",
      "type": "event"
    },
    {
      "anonymous": false,
      "inputs": [
        {
          "indexed": true,
          "internalType": "address",
          "name": "user",
          "type": "address"
        },
        {
          "indexed": true,
          "internalType": "address",
          "name": "newOwner",
          "type": "address"
        }
      ],
      "name": "OwnerUpdated",
      "type": "event"
    },
    {
      "anonymous": false,
      "inputs": [
        {
          "indexed": true,
          "internalType": "address",
          "name": "seller",
          "type": "address"
        },
        {
          "indexed": true,
          "internalType": "address",
          "name": "contractAddress",
          "type": "address"
        },
        {
          "indexed": false,
          "internalType": "uint256",
          "name": "tokenId",
          "type": "uint256"
        },
        {
          "indexed": true,
          "internalType": "uint256",
          "name": "entryId",
          "type": "uint256"
        },
        {
          "indexed": false,
          "internalType": "uint64",
          "name": "timestamp",
          "type": "uint64"
        }
      ],
      "name": "Sell",
      "type": "event"
    },
    {
      "inputs": [],
      "name": "ONE_MONTH",
      "outputs": [
        {
          "internalType": "uint64",
          "name": "",
          "type": "uint64"
        }
      ],
      "stateMutability": "view",
      "type": "function"
    },
    {
      "inputs": [
        {
          "internalType": "uint256",
          "name": "entryId_",
          "type": "uint256"
        },
        {
          "internalType": "uint256",
          "name": "bidPrice_",
          "type": "uint256"
        },
        {
          "internalType": "enum ProjectY.InstallmentPlan",
          "name": "installment_",
          "type": "uint8"
        }
      ],
      "name": "bid",
      "outputs": [
        {
          "internalType": "uint256",
          "name": "",
          "type": "uint256"
        }
      ],
      "stateMutability": "payable",
      "type": "function"
    },
    {
      "inputs": [],
      "name": "biddingPeriod",
      "outputs": [
        {
          "internalType": "uint64",
          "name": "",
          "type": "uint64"
        }
      ],
      "stateMutability": "view",
      "type": "function"
    },
    {
      "inputs": [
        {
          "internalType": "uint256",
          "name": "_entryId",
          "type": "uint256"
        }
      ],
      "name": "getAllBidsOnNFT",
      "outputs": [
        {
          "components": [
            {
              "internalType": "bool",
              "name": "isSelected",
              "type": "bool"
            },
            {
              "internalType": "address",
              "name": "buyerAddress",
              "type": "address"
            },
            {
              "internalType": "uint64",
              "name": "timestamp",
              "type": "uint64"
            },
            {
              "internalType": "uint256",
              "name": "bidPrice",
              "type": "uint256"
            },
            {
              "internalType": "uint256",
              "name": "entryId",
              "type": "uint256"
            },
            {
              "internalType": "uint256",
              "name": "pricePaid",
              "type": "uint256"
            },
            {
              "internalType": "enum ProjectY.InstallmentPlan",
              "name": "bidInstallment",
              "type": "uint8"
            }
          ],
          "internalType": "struct ProjectY.BuyerInfo[]",
          "name": "allBidsOnNFT_",
          "type": "tuple[]"
        }
      ],
      "stateMutability": "view",
      "type": "function"
    },
    {
      "inputs": [
        {
          "internalType": "uint256",
          "name": "bidId_",
          "type": "uint256"
        }
      ],
      "name": "getBuyerInfo",
      "outputs": [
        {
          "components": [
            {
              "internalType": "bool",
              "name": "isSelected",
              "type": "bool"
            },
            {
              "internalType": "address",
              "name": "buyerAddress",
              "type": "address"
            },
            {
              "internalType": "uint64",
              "name": "timestamp",
              "type": "uint64"
            },
            {
              "internalType": "uint256",
              "name": "bidPrice",
              "type": "uint256"
            },
            {
              "internalType": "uint256",
              "name": "entryId",
              "type": "uint256"
            },
            {
              "internalType": "uint256",
              "name": "pricePaid",
              "type": "uint256"
            },
            {
              "internalType": "enum ProjectY.InstallmentPlan",
              "name": "bidInstallment",
              "type": "uint8"
            }
          ],
          "internalType": "struct ProjectY.BuyerInfo",
          "name": "",
          "type": "tuple"
        }
      ],
      "stateMutability": "view",
      "type": "function"
    },
    {
      "inputs": [
        {
          "internalType": "uint256",
          "name": "entryId_",
          "type": "uint256"
        },
        {
          "internalType": "uint256",
          "name": "bidId_",
          "type": "uint256"
        }
      ],
      "name": "getDownPaymentAmount",
      "outputs": [
        {
          "internalType": "uint256",
          "name": "",
          "type": "uint256"
        }
      ],
      "stateMutability": "view",
      "type": "function"
    },
    {
      "inputs": [
        {
          "internalType": "uint256",
          "name": "entryId_",
          "type": "uint256"
        },
        {
          "internalType": "uint256",
          "name": "bidId_",
          "type": "uint256"
        },
        {
          "internalType": "uint256",
          "name": "installmentNumber_",
          "type": "uint256"
        }
      ],
      "name": "getInstallmentAmountOf",
      "outputs": [
        {
          "internalType": "uint256",
          "name": "",
          "type": "uint256"
        }
      ],
      "stateMutability": "view",
      "type": "function"
    },
    {
      "inputs": [
        {
          "internalType": "uint256",
          "name": "entryId_",
          "type": "uint256"
        }
      ],
      "name": "getInstallmentAmountPerMonth",
      "outputs": [
        {
          "internalType": "uint256",
          "name": "",
          "type": "uint256"
        }
      ],
      "stateMutability": "view",
      "type": "function"
    },
    {
      "inputs": [
        {
          "internalType": "uint256",
          "name": "bidId_",
          "type": "uint256"
        },
        {
          "internalType": "uint64",
          "name": "installmentNumber_",
          "type": "uint64"
        }
      ],
      "name": "getInstallmentMonthTimestamp",
      "outputs": [
        {
          "internalType": "uint64",
          "name": "",
          "type": "uint64"
        }
      ],
      "stateMutability": "view",
      "type": "function"
    },
    {
      "inputs": [],
      "name": "getNFTsOpenForSale",
      "outputs": [
        {
          "components": [
            {
              "internalType": "bool",
              "name": "onSale",
              "type": "bool"
            },
            {
              "internalType": "address",
              "name": "sellerAddress",
              "type": "address"
            },
            {
              "internalType": "address",
              "name": "contractAddress",
              "type": "address"
            },
            {
              "internalType": "uint8",
              "name": "installmentsPaid",
              "type": "uint8"
            },
            {
              "internalType": "uint8",
              "name": "paymentsClaimed",
              "type": "uint8"
            },
            {
              "internalType": "uint64",
              "name": "timestamp",
              "type": "uint64"
            },
            {
              "internalType": "uint256",
              "name": "tokenId",
              "type": "uint256"
            },
            {
              "internalType": "uint256",
              "name": "sellingPrice",
              "type": "uint256"
            },
            {
              "internalType": "uint256",
              "name": "totalBids",
              "type": "uint256"
            },
            {
              "internalType": "uint256",
              "name": "selectedBidId",
              "type": "uint256"
            },
            {
              "internalType": "enum ProjectY.InstallmentPlan",
              "name": "installment",
              "type": "uint8"
            }
          ],
          "internalType": "struct ProjectY.SellerInfo[]",
          "name": "nftsOpenForSale_",
          "type": "tuple[]"
        }
      ],
      "stateMutability": "view",
      "type": "function"
    },
    {
      "inputs": [
        {
          "internalType": "uint256",
          "name": "entryId_",
          "type": "uint256"
        }
      ],
      "name": "getSellerInfo",
      "outputs": [
        {
          "components": [
            {
              "internalType": "bool",
              "name": "onSale",
              "type": "bool"
            },
            {
              "internalType": "address",
              "name": "sellerAddress",
              "type": "address"
            },
            {
              "internalType": "address",
              "name": "contractAddress",
              "type": "address"
            },
            {
              "internalType": "uint8",
              "name": "installmentsPaid",
              "type": "uint8"
            },
            {
              "internalType": "uint8",
              "name": "paymentsClaimed",
              "type": "uint8"
            },
            {
              "internalType": "uint64",
              "name": "timestamp",
              "type": "uint64"
            },
            {
              "internalType": "uint256",
              "name": "tokenId",
              "type": "uint256"
            },
            {
              "internalType": "uint256",
              "name": "sellingPrice",
              "type": "uint256"
            },
            {
              "internalType": "uint256",
              "name": "totalBids",
              "type": "uint256"
            },
            {
              "internalType": "uint256",
              "name": "selectedBidId",
              "type": "uint256"
            },
            {
              "internalType": "enum ProjectY.InstallmentPlan",
              "name": "installment",
              "type": "uint8"
            }
          ],
          "internalType": "struct ProjectY.SellerInfo",
          "name": "",
          "type": "tuple"
        }
      ],
      "stateMutability": "view",
      "type": "function"
    },
    {
      "inputs": [],
      "name": "getTotalBidIds",
      "outputs": [
        {
          "internalType": "uint256",
          "name": "",
          "type": "uint256"
        }
      ],
      "stateMutability": "view",
      "type": "function"
    },
    {
      "inputs": [],
      "name": "getTotalEntryIds",
      "outputs": [
        {
          "internalType": "uint256",
          "name": "",
          "type": "uint256"
        }
      ],
      "stateMutability": "view",
      "type": "function"
    },
    {
      "inputs": [
        {
          "internalType": "address",
          "name": "user_",
          "type": "address"
        }
      ],
      "name": "getUserNFTsOpenForSale",
      "outputs": [
        {
          "components": [
            {
              "internalType": "bool",
              "name": "onSale",
              "type": "bool"
            },
            {
              "internalType": "address",
              "name": "sellerAddress",
              "type": "address"
            },
            {
              "internalType": "address",
              "name": "contractAddress",
              "type": "address"
            },
            {
              "internalType": "uint8",
              "name": "installmentsPaid",
              "type": "uint8"
            },
            {
              "internalType": "uint8",
              "name": "paymentsClaimed",
              "type": "uint8"
            },
            {
              "internalType": "uint64",
              "name": "timestamp",
              "type": "uint64"
            },
            {
              "internalType": "uint256",
              "name": "tokenId",
              "type": "uint256"
            },
            {
              "internalType": "uint256",
              "name": "sellingPrice",
              "type": "uint256"
            },
            {
              "internalType": "uint256",
              "name": "totalBids",
              "type": "uint256"
            },
            {
              "internalType": "uint256",
              "name": "selectedBidId",
              "type": "uint256"
            },
            {
              "internalType": "enum ProjectY.InstallmentPlan",
              "name": "installment",
              "type": "uint8"
            }
          ],
          "internalType": "struct ProjectY.SellerInfo[]",
          "name": "userNFTsOpenForSale_",
          "type": "tuple[]"
        }
      ],
      "stateMutability": "view",
      "type": "function"
    },
    {
      "inputs": [],
      "name": "gracePeriod",
      "outputs": [
        {
          "internalType": "uint64",
          "name": "",
          "type": "uint64"
        }
      ],
      "stateMutability": "view",
      "type": "function"
    },
    {
      "inputs": [
        {
          "internalType": "uint256",
          "name": "bidId_",
          "type": "uint256"
        }
      ],
      "name": "isBidIdValid",
      "outputs": [
        {
          "internalType": "bool",
          "name": "isValid_",
          "type": "bool"
        }
      ],
      "stateMutability": "view",
      "type": "function"
    },
    {
      "inputs": [
        {
          "internalType": "uint256",
          "name": "entryId_",
          "type": "uint256"
        }
      ],
      "name": "isEntryIdValid",
      "outputs": [
        {
          "internalType": "bool",
          "name": "isValid_",
          "type": "bool"
        }
      ],
      "stateMutability": "view",
      "type": "function"
    },
    {
      "inputs": [
        {
          "internalType": "uint256",
          "name": "entryId_",
          "type": "uint256"
        }
      ],
      "name": "liquidate",
      "outputs": [],
      "stateMutability": "payable",
      "type": "function"
    },
    {
      "inputs": [
        {
          "internalType": "address",
          "name": "",
          "type": "address"
        },
        {
          "internalType": "address",
          "name": "",
          "type": "address"
        },
        {
          "internalType": "uint256",
          "name": "",
          "type": "uint256"
        },
        {
          "internalType": "bytes",
          "name": "",
          "type": "bytes"
        }
      ],
      "name": "onERC721Received",
      "outputs": [
        {
          "internalType": "bytes4",
          "name": "",
          "type": "bytes4"
        }
      ],
      "stateMutability": "nonpayable",
      "type": "function"
    },
    {
      "inputs": [],
      "name": "owner",
      "outputs": [
        {
          "internalType": "address",
          "name": "",
          "type": "address"
        }
      ],
      "stateMutability": "view",
      "type": "function"
    },
    {
      "inputs": [
        {
          "internalType": "uint256",
          "name": "entryId_",
          "type": "uint256"
        }
      ],
      "name": "payInstallment",
      "outputs": [],
      "stateMutability": "payable",
      "type": "function"
    },
    {
      "inputs": [
        {
          "internalType": "uint256",
          "name": "bidId_",
          "type": "uint256"
        }
      ],
      "name": "selectBid",
      "outputs": [],
      "stateMutability": "nonpayable",
      "type": "function"
    },
    {
      "inputs": [
        {
          "internalType": "address",
          "name": "contractAddress_",
          "type": "address"
        },
        {
          "internalType": "uint256",
          "name": "tokenId_",
          "type": "uint256"
        },
        {
          "internalType": "uint256",
          "name": "sellingPrice_",
          "type": "uint256"
        },
        {
          "internalType": "enum ProjectY.InstallmentPlan",
          "name": "installment_",
          "type": "uint8"
        }
      ],
      "name": "sell",
      "outputs": [
        {
          "internalType": "uint256",
          "name": "",
          "type": "uint256"
        }
      ],
      "stateMutability": "nonpayable",
      "type": "function"
    },
    {
      "inputs": [
        {
          "internalType": "uint64",
          "name": "biddingPeriod_",
          "type": "uint64"
        }
      ],
      "name": "setBiddingPeriod",
      "outputs": [],
      "stateMutability": "nonpayable",
      "type": "function"
    },
    {
      "inputs": [
        {
          "internalType": "uint64",
          "name": "gracePeriod_",
          "type": "uint64"
        }
      ],
      "name": "setGracePeriod",
      "outputs": [],
      "stateMutability": "nonpayable",
      "type": "function"
    },
    {
      "inputs": [
        {
          "internalType": "address",
          "name": "newOwner",
          "type": "address"
        }
      ],
      "name": "setOwner",
      "outputs": [],
      "stateMutability": "nonpayable",
      "type": "function"
    },
    {
      "inputs": [
        {
          "internalType": "uint256",
          "name": "bidId_",
          "type": "uint256"
        }
      ],
      "name": "withdrawBid",
      "outputs": [],
      "stateMutability": "nonpayable",
      "type": "function"
    },
    {
      "inputs": [
        {
          "internalType": "uint256",
          "name": "entryId_",
          "type": "uint256"
        }
      ],
      "name": "withdrawPayment",
      "outputs": [],
      "stateMutability": "nonpayable",
      "type": "function"
    }
  ],
  "transactionHash": "0x528b7484dc9d7ec543cd5b545cde2582dd19beacc371cbb608e3bf0c30dfe109",
  "args": [
    "0xde43f899587aaa2Ea6aD243F3d68a5027F2C6a94"
  ],
  "numDeployments": 6,
  "solcInputHash": "5f1d62611f3da24595ba4d6e071d1c03",
  "bytecode": "0x6080604052600380546001600160801b0319166a093a800000000000093a801790553480156200002e57600080fd5b5060405162002ea538038062002ea58339810160408190526200005191620000a1565b600080546001600160a01b0319166001600160a01b03831690811782556040518392907f8292fce18fa69edf4db7b94ea2e58241df0ae57f97e0a6c9b29067028bf92d76908290a35050620000d3565b600060208284031215620000b457600080fd5b81516001600160a01b0381168114620000cc57600080fd5b9392505050565b612dc280620000e36000396000f3fe6080604052600436106101b75760003560e01c80637b4ed024116100ec578063dbd3cd621161008a578063f8de03ac11610064578063f8de03ac14610542578063f9fb2f0814610555578063fd5f0a251461056a578063fdcd2b871461058a57600080fd5b8063dbd3cd62146104ef578063e2f8a0171461050f578063e380dbd31461052257600080fd5b8063a06db7dc116100c6578063a06db7dc1461045b578063a7d53ac314610482578063b460b1df146104a2578063cdd265c3146104c257600080fd5b80637b4ed024146103d65780638da5cb5b14610403578063985937f51461043b57600080fd5b806350212e75116101595780635d21d50c116101335780635d21d50c146103545780635f8909bd14610381578063643164c2146103a157806366da4011146103c157600080fd5b806350212e75146102e757806355a5133b146103075780635aee87031461032757600080fd5b806320988cef1161019557806320988cef14610247578063415f12401461027657806341cb961a1461028957806345806097146102b757600080fd5b80630eaaf4c8146101bc57806313af4035146101de578063150b7a02146101fe575b600080fd5b3480156101c857600080fd5b506101dc6101d73660046127ae565b61059f565b005b3480156101ea57600080fd5b506101dc6101f93660046127de565b6107e6565b34801561020a57600080fd5b5061022961021936600461280f565b630a85bd0160e11b949350505050565b6040516001600160e01b031990911681526020015b60405180910390f35b34801561025357600080fd5b5061025e62278d0081565b6040516001600160401b03909116815260200161023e565b6101dc6102843660046127ae565b61085b565b34801561029557600080fd5b506102a96102a43660046127ae565b610b9d565b60405190815260200161023e565b3480156102c357600080fd5b506102d76102d23660046127ae565b610e06565b604051901515815260200161023e565b3480156102f357600080fd5b506102a96103023660046128ea565b610e68565b34801561031357600080fd5b506101dc610322366004612923565b61100a565b34801561033357600080fd5b506103476103423660046127ae565b6110b6565b60405161023e91906129d1565b34801561036057600080fd5b5061037461036f3660046127ae565b6111a4565b60405161023e91906129df565b34801561038d57600080fd5b5060035461025e906001600160401b031681565b3480156103ad57600080fd5b5061025e6103bc366004612a2d565b6112a5565b3480156103cd57600080fd5b506102a96112f0565b3480156103e257600080fd5b506103f66103f13660046127de565b611300565b60405161023e9190612b19565b34801561040f57600080fd5b50600054610423906001600160a01b031681565b6040516001600160a01b03909116815260200161023e565b34801561044757600080fd5b506102d76104563660046127ae565b61145c565b34801561046757600080fd5b5060035461025e90600160401b90046001600160401b031681565b34801561048e57600080fd5b506101dc61049d3660046127ae565b6114bb565b3480156104ae57600080fd5b506102a96104bd366004612b5c565b611998565b3480156104ce57600080fd5b506104e26104dd3660046127ae565b6119ce565b60405161023e9190612b88565b3480156104fb57600080fd5b506101dc61050a3660046127ae565b611aad565b6101dc61051d3660046127ae565b611d24565b34801561052e57600080fd5b506101dc61053d366004612923565b612048565b6102a9610550366004612ba6565b6120e7565b34801561056157600080fd5b506102a96122fe565b34801561057657600080fd5b506102a9610585366004612bdb565b612309565b34801561059657600080fd5b506103f6612502565b6105a881610e06565b506000818152600560209081526040808320815160e081018352815460ff8082161515835261010082046001600160a01b031695830195909552600160a81b90046001600160401b031692810192909252600181015460608301526002810154608083015260038082015460a084015260048201549293919260c085019216908111156106375761063761293e565b60038111156106485761064861293e565b90525060808101516003546000828152600460205260409020600101549293509091610687916001600160401b0390811691600160b01b900416612c37565b6001600160401b0316426001600160401b031610156106e75760405162461bcd60e51b81526020600482015260176024820152762124a22224a723afa822a924a7a22fa727aa2fa7ab22a960491b60448201526064015b60405180910390fd5b8151156107365760405162461bcd60e51b815260206004820152601d60248201527f4249444445525f53484f554c445f4e4f545f42455f53454c454354454400000060448201526064016106de565b60208201516001600160a01b0316336001600160a01b03161461078e5760405162461bcd60e51b815260206004820152601060248201526f21a0a62622a92fa727aa2fa12aaca2a960811b60448201526064016106de565b6000838152600560209081526040822080546001600160e81b0319168155600181018390556002810183905560038101929092556004909101805460ff1916905582015160a08301516107e1919061263b565b505050565b6000546001600160a01b031633146108105760405162461bcd60e51b81526004016106de90612c62565b600080546001600160a01b0319166001600160a01b0383169081178255604051909133917f8292fce18fa69edf4db7b94ea2e58241df0ae57f97e0a6c9b29067028bf92d769190a350565b346108658261145c565b506000828152600460208181526040808420815161016081018352815460ff80821615158352610100918290046001600160a01b0390811696840196909652600184015495861694830194909452600160a01b850484166060830152600160a81b850484166080830152600160b01b9094046001600160401b031660a0820152600282015460c082015260038083015460e08301529482015493810193909352600581015461012084015260068101549293909261014085019216908111156109305761093061293e565b60038111156109415761094161293e565b90525061012081015190915061095681610e06565b506000818152600560209081526040808320815160e081018352815460ff8082161515835261010082046001600160a01b031695830195909552600160a81b90046001600160401b031692810192909252600181015460608301526002810154608083015260038082015460a084015260048201549293919260c085019216908111156109e5576109e561293e565b60038111156109f6576109f661293e565b90525090506000610a0686610b9d565b905080151580610a1d57508160a001518260600151145b610a5f5760405162461bcd60e51b81526020600482015260136024820152721393d7d25394d51053131351539517d3115195606a1b60448201526064016106de565b6000610a7e8486606001516001610a769190612c88565b60ff166112a5565b6003546001600160401b039182169250610aa191600160401b9091041682612cad565b426001600160401b031611610aef5760405162461bcd60e51b8152602060048201526014602482015273494e5354414c4c4d454e545f4f4e5f545241434b60601b60448201526064016106de565b602083015160a0840151600090606490610b0a90605f612cc5565b610b149190612ce4565b9050878114610b655760405162461bcd60e51b815260206004820152601960248201527f494e56414c49445f4c49515549444154494f4e5f56414c55450000000000000060448201526064016106de565b60008681526005602052604090208054610100600160a81b0319166101003302179055610b92828261263b565b505050505050505050565b6000610ba88261145c565b506000828152600460208181526040808420815161016081018352815460ff80821615158352610100918290046001600160a01b0390811696840196909652600184015495861694830194909452600160a01b850484166060830152600160a81b850484166080830152600160b01b9094046001600160401b031660a0820152600282015460c082015260038083015460e0830152948201549381019390935260058101546101208401526006810154929390926101408501921690811115610c7357610c7361293e565b6003811115610c8457610c8461293e565b905250610120810151909150610c9981610e06565b506000818152600560209081526040808320815160e081018352815460ff8082161515835261010082046001600160a01b031695830195909552600160a81b90046001600160401b031692810192909252600181015460608301526002810154608083015260038082015460a084015260048201549293919260c08501921690811115610d2857610d2861293e565b6003811115610d3957610d3961293e565b90525060c081015160a08201516060830151929350909103610d615750600095945050505050565b6001816003811115610d7557610d7561293e565b03610da157606482606001516021610d8d9190612cc5565b610d979190612ce4565b9695505050505050565b6002816003811115610db557610db561293e565b03610dce576103e8826060015160a5610d8d9190612cc5565b6003816003811115610de257610de261293e565b03610dfa5760648260600151600b610d8d9190612cc5565b50600095945050505050565b60008181526005602052604090205461010090046001600160a01b0316151580610e635760405162461bcd60e51b815260206004820152600e60248201526d1253959053125117d0925117d25160921b60448201526064016106de565b919050565b6000610e738361145c565b50610e7d82610e06565b506000828152600560209081526040808320815160e081018352815460ff8082161515835261010082046001600160a01b031695830195909552600160a81b90046001600160401b031692810192909252600181015460608301526002810154608083015260038082015460a084015260048201549293919260c08501921690811115610f0c57610f0c61293e565b6003811115610f1d57610f1d61293e565b90525060a081015190915015610f695760405162461bcd60e51b8152602060048201526011602482015270444f574e5f5041594d454e545f444f4e4560781b60448201526064016106de565b60c081015160608201516001826003811115610f8757610f8761293e565b03610fad576064610f99826022612cc5565b610fa39190612ce4565b9350505050611004565b6002826003811115610fc157610fc161293e565b03610fd4576103e8610f998260af612cc5565b6003826003811115610fe857610fe861293e565b03610ffa576064610f9982600c612cc5565b9250611004915050565b92915050565b6000546001600160a01b031633146110345760405162461bcd60e51b81526004016106de90612c62565b806001600160401b03166000036110845760405162461bcd60e51b81526020600482015260146024820152731253959053125117d1d49050d157d411549253d160621b60448201526064016106de565b600380546001600160401b03909216600160401b026fffffffffffffffff000000000000000019909216919091179055565b6110f36040805160e081018252600080825260208201819052918101829052606081018290526080810182905260a081018290529060c082015290565b6110fc82610e06565b50600082815260056020908152604091829020825160e081018452815460ff8082161515835261010082046001600160a01b031694830194909452600160a81b90046001600160401b031693810193909352600181015460608401526002810154608084015260038082015460a08501526004820154919260c0850192169081111561118a5761118a61293e565b600381111561119b5761119b61293e565b90525092915050565b606060006111b06122fe565b905060005b8181101561129e5760008181526005602052604090206002015484900361129657600081815260056020908152604091829020825160e081018452815460ff8082161515835261010082046001600160a01b031694830194909452600160a81b90046001600160401b031693810193909352600181015460608401526002810154608084015260038082015460a08501526004820154919260c085019216908111156112635761126361293e565b60038111156112745761127461293e565b8152505083828151811061128a5761128a612d06565b60200260200101819052505b6001016111b5565b5050919050565b600062278d006112b6600184612d1c565b6112c09190612d44565b6000848152600560205260409020546112e99190600160a81b90046001600160401b0316612c37565b9392505050565b60006112fb60015490565b905090565b6060600061130c6112f0565b9050611316612754565b60005b8281101561145457600081815260046020818152604092839020835161016081018552815460ff80821615158352610100918290046001600160a01b0390811695840195909552600184015494851696830196909652600160a01b840486166060830152600160a81b840486166080830152600160b01b9093046001600160401b031660a0820152600282015460c082015260038083015460e083015293820154928101929092526005810154610120830152600681015491939092610140850192909116908111156113ee576113ee61293e565b60038111156113ff576113ff61293e565b905250805190925080156114285750846001600160a01b031682602001516001600160a01b0316145b1561144c578184828151811061144057611440612d06565b60200260200101819052505b600101611319565b505050919050565b60008181526004602052604090205461010090046001600160a01b0316151580610e635760405162461bcd60e51b815260206004820152601060248201526f1253959053125117d15395149657d25160821b60448201526064016106de565b426114c582610e06565b506000828152600560205260409020600201546114e18161145c565b506000818152600460208181526040808420815161016081018352815460ff80821615158352610100918290046001600160a01b0390811696840196909652600184015495861694830194909452600160a01b850484166060830152600160a81b850484166080830152600160b01b9094046001600160401b031660a0820152600282015460c082015260038083015460e08301529482015493810193909352600581015461012084015260068101549293909261014085019216908111156115ac576115ac61293e565b60038111156115bd576115bd61293e565b9052506000858152600560209081526040808320815160e081018352815460ff8082161515835261010082046001600160a01b031695830195909552600160a81b90046001600160401b031692810192909252600181015460608301526002810154608083015260038082015460a0840152600482015495965093949193909260c085019216908111156116535761165361293e565b60038111156116645761166461293e565b90525060208301519091506001600160a01b0316336001600160a01b0316146116c35760405162461bcd60e51b815260206004820152601160248201527021a0a62622a92fa727aa2fa9a2a62622a960791b60448201526064016106de565b60035460a08301516116de916001600160401b031690612c37565b6001600160401b0316846001600160401b031610156117395760405162461bcd60e51b81526020600482015260176024820152762124a22224a723afa822a924a7a22fa727aa2fa7ab22a960491b60448201526064016106de565b610120820151156117825760405162461bcd60e51b815260206004820152601360248201527210d0539393d517d49154d1531150d517d09251606a1b60448201526064016106de565b60008160c00151600381111561179a5761179a61293e565b036118af57604080830151602083015160c08501519251632142170760e11b81523060048201526001600160a01b039182166024820152604481019390935216906342842e0e90606401600060405180830381600087803b1580156117fe57600080fd5b505af1158015611812573d6000803e3d6000fd5b505050600084815260046020818152604080842080546001600160a81b0319168155600180820180546001600160f01b03191690556002808301879055600380840188905583870188905560058085018990556006909401805460ff199081169091558e89529390955292862080546001600160e81b03191681559081018690559182018590559181019390935591018054909116905550611964565b60008581526005602081815260408084208054600160ff67ffffffffffffffff60a81b0119909116600160a81b6001600160401b038c16021781179091558785526004909252909220805460ff19908116825591810188905560c08401516006909101805491939092919091169083600381111561192f5761192f61293e565b0217905550606081015160008481526004602052604090206003810191909155600101805460ff60a01b1916600160a01b1790555b604051839086907f9295c82ed42927512117ef31a7c3fed86244add76abc91d00191ff9b37a7b8ea90600090a35050505050565b6000816001036119b3576119ac8484610e68565b90506112e9565b6119bc84610b9d565b6119c69083612cc5565b949350505050565b6119d6612754565b6119df8261145c565b50600082815260046020818152604092839020835161016081018552815460ff80821615158352610100918290046001600160a01b0390811695840195909552600184015494851696830196909652600160a01b840486166060830152600160a81b840486166080830152600160b01b9093046001600160401b031660a0820152600282015460c082015260038083015460e0830152938201549281019290925260058101546101208301526006810154919390926101408501929091169081111561118a5761118a61293e565b611ab68161145c565b506000818152600460208181526040808420815161016081018352815460ff80821615158352610100918290046001600160a01b0390811696840196909652600184015495861694830194909452600160a01b850484166060830152600160a81b850484166080830152600160b01b9094046001600160401b031660a0820152600282015460c082015260038083015460e0830152948201549381019390935260058101546101208401526006810154929390926101408501921690811115611b8157611b8161293e565b6003811115611b9257611b9261293e565b815250509050611ba6816101200151610e06565b5060208101516001600160a01b0316336001600160a01b031614611c005760405162461bcd60e51b815260206004820152601160248201527021a0a62622a92fa727aa2fa9a2a62622a960791b60448201526064016106de565b806080015160ff16600003611c4e5760405162461bcd60e51b81526020600482015260146024820152734e4f5f5041594d454e545f415641494c41424c4560601b60448201526064016106de565b600060018260600151611c619190612d73565b90508060ff16826080015160ff1614611cb55760405162461bcd60e51b815260206004820152601660248201527510d0539393d517d49150d310525357d410565351539560521b60448201526064016106de565b6000611cca848461012001518460ff16611998565b60008581526004602052604090206001018054919250600160a81b90910460ff16906015611cf783612d96565b91906101000a81548160ff021916908360ff16021790555050611d1e83602001518261263b565b50505050565b34611d2e8261145c565b50600082815260046020526040902060050154611d4a81610e06565b506000818152600560209081526040808320815160e081018352815460ff8082161515835261010082046001600160a01b031695830195909552600160a81b90046001600160401b031692810192909252600181015460608301526002810154608083015260038082015460a084015260048201549293919260c08501921690811115611dd957611dd961293e565b6003811115611dea57611dea61293e565b90525060208101519091506001600160a01b03163314611e3f5760405162461bcd60e51b815260206004820152601060248201526f21a0a62622a92fa727aa2fa12aaca2a960811b60448201526064016106de565b606081015160a0820151808214611f21576000611e5b87610b9d565b90508581148015611e6b57508515155b611eb75760405162461bcd60e51b815260206004820152601960248201527f494e56414c49445f494e5354414c4c4d454e545f56414c55450000000000000060448201526064016106de565b60008581526005602052604081206003018054889290611ed8908490612cad565b909155505060008781526004602052604090206001018054600160a01b900460ff16906014611f0683612d96565b91906101000a81548160ff021916908360ff16021790555050505b80820361204057600086815260046020819052604080832060018101546002909101548251632142170760e11b81523094810194909452336024850152604484015290516001600160a01b03909116926342842e0e926064808201939182900301818387803b158015611f9357600080fd5b505af1158015611fa7573d6000803e3d6000fd5b505050600087815260046020818152604080842080546001600160a81b0319168155600180820180546001600160f01b03191690556002808301879055600380840188905583870188905560058085018990556006909401805460ff199081169091558d89529390955292862080546001600160e81b031916815590810186905591820185905591810193909355910180549091169055505b505050505050565b6000546001600160a01b031633146120725760405162461bcd60e51b81526004016106de90612c62565b806001600160401b03166000036120c45760405162461bcd60e51b81526020600482015260166024820152751253959053125117d0925111125391d7d411549253d160521b60448201526064016106de565b6003805467ffffffffffffffff19166001600160401b0392909216919091179055565b600034426120f9600280546001019055565b600061210460025490565b60008181526005602052604081208054610100600160a81b03191661010033021790559091506121348883610e68565b9050831580159061214457508084145b6121905760405162461bcd60e51b815260206004820152601f60248201527f56414c55455f4e4f545f455155414c5f544f5f444f574e5f5041594d454e540060448201526064016106de565b6003546000898152600460205260409020600101546121c2916001600160401b0390811691600160b01b900416612c37565b6001600160401b0316836001600160401b031611156122195760405162461bcd60e51b81526020600482015260136024820152722124a22224a723afa822a924a7a22fa7ab22a960691b60448201526064016106de565b6000828152600560205260409020805467ffffffffffffffff60a81b1916600160a81b6001600160401b038616021781556001808201899055600282018a90556003808301879055600490920180548993919260ff199091169184908111156122845761228461293e565b021790555060008881526004602081905260408220018054600192906122ab908490612cad565b9091555050604080516001600160401b0385168152905183918a9133917f5ab6bd288ed4e1289e3291c15622be6529f14e70b0a6e04a211ee938020c6dea919081900360200190a4509695505050505050565b60006112fb60025490565b60008260000361234b5760405162461bcd60e51b815260206004820152600d60248201526c494e56414c49445f505249434560981b60448201526064016106de565b4261235a600180546001019055565b600061236560015490565b90506001600160a01b0387166342842e0e336040516001600160e01b031960e084901b1681526001600160a01b03909116600482015230602482015260448101899052606401600060405180830381600087803b1580156123c557600080fd5b505af11580156123d9573d6000803e3d6000fd5b5050506000828152600460205260409020805460ff19166001179055506123fd3390565b60008281526004602052604090208054610100600160a81b0319166101006001600160a01b039384160217815560018082018054938b167fffff0000000000000000ffff000000000000000000000000000000000000000090941693909317600160b01b6001600160401b0387160217909255600281018890556003808201889055600690910180548793919260ff19909116919084908111156124a3576124a361293e565b0217905550604080518781526001600160401b038416602082015282916001600160a01b038a169133917fb9120c5321ef5d2f12cd98255cac811fca6e4fbc0ee94caf950c34292603f6af910160405180910390a49695505050505050565b6060600061250e6112f0565b9050612518612754565b60005b8281101561263557600081815260046020818152604092839020835161016081018552815460ff80821615158352610100918290046001600160a01b0390811695840195909552600184015494851696830196909652600160a01b840486166060830152600160a81b840486166080830152600160b01b9093046001600160401b031660a0820152600282015460c082015260038083015460e083015293820154928101929092526005810154610120830152600681015491939092610140850192909116908111156125f0576125f061293e565b60038111156126015761260161293e565b90525080519092501561262d578184828151811061262157612621612d06565b60200260200101819052505b60010161251b565b50505090565b8047101561268b5760405162461bcd60e51b815260206004820152601d60248201527f416464726573733a20696e73756666696369656e742062616c616e636500000060448201526064016106de565b6000826001600160a01b03168260405160006040518083038185875af1925050503d80600081146126d8576040519150601f19603f3d011682016040523d82523d6000602084013e6126dd565b606091505b50509050806107e15760405162461bcd60e51b815260206004820152603a60248201527f416464726573733a20756e61626c6520746f2073656e642076616c75652c207260448201527f6563697069656e74206d6179206861766520726576657274656400000000000060648201526084016106de565b6040805161016081018252600080825260208201819052918101829052606081018290526080810182905260a0810182905260c0810182905260e08101829052610100810182905261012081018290529061014082015290565b6000602082840312156127c057600080fd5b5035919050565b80356001600160a01b0381168114610e6357600080fd5b6000602082840312156127f057600080fd5b6112e9826127c7565b634e487b7160e01b600052604160045260246000fd5b6000806000806080858703121561282557600080fd5b61282e856127c7565b935061283c602086016127c7565b92506040850135915060608501356001600160401b038082111561285f57600080fd5b818701915087601f83011261287357600080fd5b813581811115612885576128856127f9565b604051601f8201601f19908116603f011681019083821181831017156128ad576128ad6127f9565b816040528281528a60208487010111156128c657600080fd5b82602086016020830137600060208483010152809550505050505092959194509250565b600080604083850312156128fd57600080fd5b50508035926020909101359150565b80356001600160401b0381168114610e6357600080fd5b60006020828403121561293557600080fd5b6112e98261290c565b634e487b7160e01b600052602160045260246000fd5b6004811061297257634e487b7160e01b600052602160045260246000fd5b9052565b80511515825260018060a01b0360208201511660208301526001600160401b036040820151166040830152606081015160608301526080810151608083015260a081015160a083015260c08101516107e160c0840182612954565b60e081016110048284612976565b6020808252825182820181905260009190848201906040850190845b81811015612a2157612a0e838551612976565b9284019260e092909201916001016129fb565b50909695505050505050565b60008060408385031215612a4057600080fd5b82359150612a506020840161290c565b90509250929050565b8051151582526020810151612a7960208401826001600160a01b03169052565b506040810151612a9460408401826001600160a01b03169052565b506060810151612aa9606084018260ff169052565b506080810151612abe608084018260ff169052565b5060a0810151612ad960a08401826001600160401b03169052565b5060c081015160c083015260e081015160e083015261010080820151818401525061012080820151818401525061014080820151611d1e82850182612954565b6020808252825182820181905260009190848201906040850190845b81811015612a2157612b48838551612a59565b928401926101609290920191600101612b35565b600080600060608486031215612b7157600080fd5b505081359360208301359350604090920135919050565b61016081016110048284612a59565b803560048110610e6357600080fd5b600080600060608486031215612bbb57600080fd5b8335925060208401359150612bd260408501612b97565b90509250925092565b60008060008060808587031215612bf157600080fd5b612bfa856127c7565b93506020850135925060408501359150612c1660608601612b97565b905092959194509250565b634e487b7160e01b600052601160045260246000fd5b60006001600160401b03808316818516808303821115612c5957612c59612c21565b01949350505050565b6020808252600c908201526b15539055551213d49256915160a21b604082015260600190565b600060ff821660ff84168060ff03821115612ca557612ca5612c21565b019392505050565b60008219821115612cc057612cc0612c21565b500190565b6000816000190483118215151615612cdf57612cdf612c21565b500290565b600082612d0157634e487b7160e01b600052601260045260246000fd5b500490565b634e487b7160e01b600052603260045260246000fd5b60006001600160401b0383811690831681811015612d3c57612d3c612c21565b039392505050565b60006001600160401b0380831681851681830481118215151615612d6a57612d6a612c21565b02949350505050565b600060ff821660ff841680821015612d8d57612d8d612c21565b90039392505050565b600060ff821660ff8103612dac57612dac612c21565b6001019291505056fea164736f6c634300080f000a",
  "devdoc": {
    "kind": "dev",
    "methods": {
      "onERC721Received(address,address,uint256,bytes)": {
        "details": "See {IERC721Receiver-onERC721Received}. Always returns `IERC721Receiver.onERC721Received.selector`."
      }
    },
    "version": 1
  },
  "userdoc": {
    "kind": "user",
    "methods": {},
    "version": 1
  },
  "storageLayout": {
    "storage": [
      {
        "astId": 1718,
        "contract": "contracts/ProjectY.sol:ProjectY",
        "label": "owner",
        "offset": 0,
        "slot": "0",
        "type": "t_address"
      },
      {
        "astId": 1788,
        "contract": "contracts/ProjectY.sol:ProjectY",
        "label": "_entryIdTracker",
        "offset": 0,
        "slot": "1",
        "type": "t_struct(Counter)1377_storage"
      },
      {
        "astId": 1791,
        "contract": "contracts/ProjectY.sol:ProjectY",
        "label": "_bidIdTracker",
        "offset": 0,
        "slot": "2",
        "type": "t_struct(Counter)1377_storage"
      },
      {
        "astId": 1797,
        "contract": "contracts/ProjectY.sol:ProjectY",
        "label": "biddingPeriod",
        "offset": 0,
        "slot": "3",
        "type": "t_uint64"
      },
      {
        "astId": 1800,
        "contract": "contracts/ProjectY.sol:ProjectY",
        "label": "gracePeriod",
        "offset": 8,
        "slot": "3",
        "type": "t_uint64"
      },
      {
        "astId": 1850,
        "contract": "contracts/ProjectY.sol:ProjectY",
        "label": "_sellerInfo",
        "offset": 0,
        "slot": "4",
        "type": "t_mapping(t_uint256,t_struct(SellerInfo)1829_storage)"
      },
      {
        "astId": 1855,
        "contract": "contracts/ProjectY.sol:ProjectY",
        "label": "_buyerInfo",
        "offset": 0,
        "slot": "5",
        "type": "t_mapping(t_uint256,t_struct(BuyerInfo)1845_storage)"
      }
    ],
    "types": {
      "t_address": {
        "encoding": "inplace",
        "label": "address",
        "numberOfBytes": "20"
      },
      "t_bool": {
        "encoding": "inplace",
        "label": "bool",
        "numberOfBytes": "1"
      },
      "t_enum(InstallmentPlan)1805": {
        "encoding": "inplace",
        "label": "enum ProjectY.InstallmentPlan",
        "numberOfBytes": "1"
      },
      "t_mapping(t_uint256,t_struct(BuyerInfo)1845_storage)": {
        "encoding": "mapping",
        "key": "t_uint256",
        "label": "mapping(uint256 => struct ProjectY.BuyerInfo)",
        "numberOfBytes": "32",
        "value": "t_struct(BuyerInfo)1845_storage"
      },
      "t_mapping(t_uint256,t_struct(SellerInfo)1829_storage)": {
        "encoding": "mapping",
        "key": "t_uint256",
        "label": "mapping(uint256 => struct ProjectY.SellerInfo)",
        "numberOfBytes": "32",
        "value": "t_struct(SellerInfo)1829_storage"
      },
      "t_struct(BuyerInfo)1845_storage": {
        "encoding": "inplace",
        "label": "struct ProjectY.BuyerInfo",
        "members": [
          {
            "astId": 1831,
            "contract": "contracts/ProjectY.sol:ProjectY",
            "label": "isSelected",
            "offset": 0,
            "slot": "0",
            "type": "t_bool"
          },
          {
            "astId": 1833,
            "contract": "contracts/ProjectY.sol:ProjectY",
            "label": "buyerAddress",
            "offset": 1,
            "slot": "0",
            "type": "t_address"
          },
          {
            "astId": 1835,
            "contract": "contracts/ProjectY.sol:ProjectY",
            "label": "timestamp",
            "offset": 21,
            "slot": "0",
            "type": "t_uint64"
          },
          {
            "astId": 1837,
            "contract": "contracts/ProjectY.sol:ProjectY",
            "label": "bidPrice",
            "offset": 0,
            "slot": "1",
            "type": "t_uint256"
          },
          {
            "astId": 1839,
            "contract": "contracts/ProjectY.sol:ProjectY",
            "label": "entryId",
            "offset": 0,
            "slot": "2",
            "type": "t_uint256"
          },
          {
            "astId": 1841,
            "contract": "contracts/ProjectY.sol:ProjectY",
            "label": "pricePaid",
            "offset": 0,
            "slot": "3",
            "type": "t_uint256"
          },
          {
            "astId": 1844,
            "contract": "contracts/ProjectY.sol:ProjectY",
            "label": "bidInstallment",
            "offset": 0,
            "slot": "4",
            "type": "t_enum(InstallmentPlan)1805"
          }
        ],
        "numberOfBytes": "160"
      },
      "t_struct(Counter)1377_storage": {
        "encoding": "inplace",
        "label": "struct Counters.Counter",
        "members": [
          {
            "astId": 1376,
            "contract": "contracts/ProjectY.sol:ProjectY",
            "label": "_value",
            "offset": 0,
            "slot": "0",
            "type": "t_uint256"
          }
        ],
        "numberOfBytes": "32"
      },
      "t_struct(SellerInfo)1829_storage": {
        "encoding": "inplace",
        "label": "struct ProjectY.SellerInfo",
        "members": [
          {
            "astId": 1807,
            "contract": "contracts/ProjectY.sol:ProjectY",
            "label": "onSale",
            "offset": 0,
            "slot": "0",
            "type": "t_bool"
          },
          {
            "astId": 1809,
            "contract": "contracts/ProjectY.sol:ProjectY",
            "label": "sellerAddress",
            "offset": 1,
            "slot": "0",
            "type": "t_address"
          },
          {
            "astId": 1811,
            "contract": "contracts/ProjectY.sol:ProjectY",
            "label": "contractAddress",
            "offset": 0,
            "slot": "1",
            "type": "t_address"
          },
          {
            "astId": 1813,
            "contract": "contracts/ProjectY.sol:ProjectY",
            "label": "installmentsPaid",
            "offset": 20,
            "slot": "1",
            "type": "t_uint8"
          },
          {
            "astId": 1815,
            "contract": "contracts/ProjectY.sol:ProjectY",
            "label": "paymentsClaimed",
            "offset": 21,
            "slot": "1",
            "type": "t_uint8"
          },
          {
            "astId": 1817,
            "contract": "contracts/ProjectY.sol:ProjectY",
            "label": "timestamp",
            "offset": 22,
            "slot": "1",
            "type": "t_uint64"
          },
          {
            "astId": 1819,
            "contract": "contracts/ProjectY.sol:ProjectY",
            "label": "tokenId",
            "offset": 0,
            "slot": "2",
            "type": "t_uint256"
          },
          {
            "astId": 1821,
            "contract": "contracts/ProjectY.sol:ProjectY",
            "label": "sellingPrice",
            "offset": 0,
            "slot": "3",
            "type": "t_uint256"
          },
          {
            "astId": 1823,
            "contract": "contracts/ProjectY.sol:ProjectY",
            "label": "totalBids",
            "offset": 0,
            "slot": "4",
            "type": "t_uint256"
          },
          {
            "astId": 1825,
            "contract": "contracts/ProjectY.sol:ProjectY",
            "label": "selectedBidId",
            "offset": 0,
            "slot": "5",
            "type": "t_uint256"
          },
          {
            "astId": 1828,
            "contract": "contracts/ProjectY.sol:ProjectY",
            "label": "installment",
            "offset": 0,
            "slot": "6",
            "type": "t_enum(InstallmentPlan)1805"
          }
        ],
        "numberOfBytes": "224"
      },
      "t_uint256": {
        "encoding": "inplace",
        "label": "uint256",
        "numberOfBytes": "32"
      },
      "t_uint64": {
        "encoding": "inplace",
        "label": "uint64",
        "numberOfBytes": "8"
      },
      "t_uint8": {
        "encoding": "inplace",
        "label": "uint8",
        "numberOfBytes": "1"
      }
    }
  }
}