{
  "address": "0xD3D6372cACfBdD49DF33306c3D188D617a4c04A1",
  "abi": [
    {
      "inputs": [
        {
          "internalType": "address",
          "name": "owner_",
          "type": "address"
        }
      ],
      "stateMutability": "nonpayable",
      "type": "constructor"
    },
    {
      "anonymous": false,
      "inputs": [
        {
          "indexed": true,
          "internalType": "address",
          "name": "buyer",
          "type": "address"
        },
        {
          "indexed": true,
          "internalType": "uint256",
          "name": "entryId",
          "type": "uint256"
        },
        {
          "indexed": true,
          "internalType": "uint256",
          "name": "bidId",
          "type": "uint256"
        },
        {
          "indexed": false,
          "internalType": "uint64",
          "name": "timestamp",
          "type": "uint64"
        }
      ],
      "name": "Bid",
      "type": "event"
    },
    {
      "anonymous": false,
      "inputs": [
        {
          "indexed": true,
          "internalType": "uint256",
          "name": "bidId",
          "type": "uint256"
        },
        {
          "indexed": true,
          "internalType": "uint256",
          "name": "entryId",
          "type": "uint256"
        }
      ],
      "name": "BidSelected",
      "type": "event"
    },
    {
      "anonymous": false,
      "inputs": [
        {
          "indexed": true,
          "internalType": "address",
          "name": "user",
          "type": "address"
        },
        {
          "indexed": true,
          "internalType": "address",
          "name": "newOwner",
          "type": "address"
        }
      ],
      "name": "OwnerUpdated",
      "type": "event"
    },
    {
      "anonymous": false,
      "inputs": [
        {
          "indexed": true,
          "internalType": "address",
          "name": "seller",
          "type": "address"
        },
        {
          "indexed": true,
          "internalType": "address",
          "name": "contractAddress",
          "type": "address"
        },
        {
          "indexed": false,
          "internalType": "uint256",
          "name": "tokenId",
          "type": "uint256"
        },
        {
          "indexed": true,
          "internalType": "uint256",
          "name": "entryId",
          "type": "uint256"
        },
        {
          "indexed": false,
          "internalType": "uint64",
          "name": "timestamp",
          "type": "uint64"
        }
      ],
      "name": "Sell",
      "type": "event"
    },
    {
      "inputs": [],
      "name": "ONE_MONTH",
      "outputs": [
        {
          "internalType": "uint64",
          "name": "",
          "type": "uint64"
        }
      ],
      "stateMutability": "view",
      "type": "function"
    },
    {
      "inputs": [
        {
          "internalType": "uint256",
          "name": "",
          "type": "uint256"
        }
      ],
      "name": "_buyerInfo",
      "outputs": [
        {
          "internalType": "bool",
          "name": "isSelected",
          "type": "bool"
        },
        {
          "internalType": "address",
          "name": "buyerAddress",
          "type": "address"
        },
        {
          "internalType": "uint64",
          "name": "timestamp",
          "type": "uint64"
        },
        {
          "internalType": "uint256",
          "name": "bidPrice",
          "type": "uint256"
        },
        {
          "internalType": "uint256",
          "name": "entryId",
          "type": "uint256"
        },
        {
          "internalType": "uint256",
          "name": "pricePaid",
          "type": "uint256"
        },
        {
          "internalType": "enum ProjectY.InstallmentPlan",
          "name": "bidInstallment",
          "type": "uint8"
        }
      ],
      "stateMutability": "view",
      "type": "function"
    },
    {
      "inputs": [
        {
          "internalType": "uint256",
          "name": "entryId_",
          "type": "uint256"
        },
        {
          "internalType": "uint256",
          "name": "bidPrice_",
          "type": "uint256"
        },
        {
          "internalType": "enum ProjectY.InstallmentPlan",
          "name": "installment_",
          "type": "uint8"
        }
      ],
      "name": "bid",
      "outputs": [
        {
          "internalType": "uint256",
          "name": "",
          "type": "uint256"
        }
      ],
      "stateMutability": "payable",
      "type": "function"
    },
    {
      "inputs": [],
      "name": "biddingPeriod",
      "outputs": [
        {
          "internalType": "uint64",
          "name": "",
          "type": "uint64"
        }
      ],
      "stateMutability": "view",
      "type": "function"
    },
    {
      "inputs": [
        {
          "internalType": "uint256",
          "name": "bidId_",
          "type": "uint256"
        }
      ],
      "name": "getBuyerAddress",
      "outputs": [
        {
          "internalType": "address",
          "name": "",
          "type": "address"
        }
      ],
      "stateMutability": "view",
      "type": "function"
    },
    {
      "inputs": [
        {
          "internalType": "uint256",
          "name": "bidId_",
          "type": "uint256"
        }
      ],
      "name": "getBuyerBidInstallment",
      "outputs": [
        {
          "internalType": "enum ProjectY.InstallmentPlan",
          "name": "",
          "type": "uint8"
        }
      ],
      "stateMutability": "view",
      "type": "function"
    },
    {
      "inputs": [
        {
          "internalType": "uint256",
          "name": "bidId_",
          "type": "uint256"
        }
      ],
      "name": "getBuyerBidPrice",
      "outputs": [
        {
          "internalType": "uint256",
          "name": "",
          "type": "uint256"
        }
      ],
      "stateMutability": "view",
      "type": "function"
    },
    {
      "inputs": [
        {
          "internalType": "uint256",
          "name": "bidId_",
          "type": "uint256"
        }
      ],
      "name": "getBuyerEntryId",
      "outputs": [
        {
          "internalType": "uint256",
          "name": "",
          "type": "uint256"
        }
      ],
      "stateMutability": "view",
      "type": "function"
    },
    {
      "inputs": [
        {
          "internalType": "uint256",
          "name": "bidId_",
          "type": "uint256"
        }
      ],
      "name": "getBuyerIsSelected",
      "outputs": [
        {
          "internalType": "bool",
          "name": "",
          "type": "bool"
        }
      ],
      "stateMutability": "view",
      "type": "function"
    },
    {
      "inputs": [
        {
          "internalType": "uint256",
          "name": "bidId_",
          "type": "uint256"
        }
      ],
      "name": "getBuyerPricePaid",
      "outputs": [
        {
          "internalType": "uint256",
          "name": "",
          "type": "uint256"
        }
      ],
      "stateMutability": "view",
      "type": "function"
    },
    {
      "inputs": [
        {
          "internalType": "uint256",
          "name": "bidId_",
          "type": "uint256"
        }
      ],
      "name": "getBuyerTimestamp",
      "outputs": [
        {
          "internalType": "uint64",
          "name": "",
          "type": "uint64"
        }
      ],
      "stateMutability": "view",
      "type": "function"
    },
    {
      "inputs": [
        {
          "internalType": "uint256",
          "name": "entryId_",
          "type": "uint256"
        },
        {
          "internalType": "uint256",
          "name": "bidId_",
          "type": "uint256"
        }
      ],
      "name": "getDownPayment",
      "outputs": [
        {
          "internalType": "uint256",
          "name": "",
          "type": "uint256"
        }
      ],
      "stateMutability": "view",
      "type": "function"
    },
    {
      "inputs": [
        {
          "internalType": "uint256",
          "name": "bidId_",
          "type": "uint256"
        },
        {
          "internalType": "uint64",
          "name": "installmentNumber_",
          "type": "uint64"
        }
      ],
      "name": "getInstallmentMonthTimestamp",
      "outputs": [
        {
          "internalType": "uint64",
          "name": "",
          "type": "uint64"
        }
      ],
      "stateMutability": "view",
      "type": "function"
    },
    {
      "inputs": [
        {
          "internalType": "uint256",
          "name": "entryId_",
          "type": "uint256"
        },
        {
          "internalType": "uint256",
          "name": "bidId_",
          "type": "uint256"
        }
      ],
      "name": "getInstallmentPaid",
      "outputs": [
        {
          "internalType": "uint256",
          "name": "",
          "type": "uint256"
        }
      ],
      "stateMutability": "view",
      "type": "function"
    },
    {
      "inputs": [
        {
          "internalType": "uint256",
          "name": "entryId_",
          "type": "uint256"
        }
      ],
      "name": "getInstallmentPerMonth",
      "outputs": [
        {
          "internalType": "uint256",
          "name": "",
          "type": "uint256"
        }
      ],
      "stateMutability": "view",
      "type": "function"
    },
    {
      "inputs": [
        {
          "internalType": "uint256",
          "name": "entryId_",
          "type": "uint256"
        },
        {
          "internalType": "uint256",
          "name": "bidId_",
          "type": "uint256"
        },
        {
          "internalType": "uint256",
          "name": "installmentNumber_",
          "type": "uint256"
        }
      ],
      "name": "getInstallmentPercentageOf",
      "outputs": [
        {
          "internalType": "uint256",
          "name": "",
          "type": "uint256"
        }
      ],
      "stateMutability": "view",
      "type": "function"
    },
    {
      "inputs": [
        {
          "internalType": "uint256",
          "name": "entryId_",
          "type": "uint256"
        }
      ],
      "name": "getSellerAddress",
      "outputs": [
        {
          "internalType": "address",
          "name": "",
          "type": "address"
        }
      ],
      "stateMutability": "view",
      "type": "function"
    },
    {
      "inputs": [
        {
          "internalType": "uint256",
          "name": "entryId_",
          "type": "uint256"
        }
      ],
      "name": "getSellerContractAddress",
      "outputs": [
        {
          "internalType": "address",
          "name": "",
          "type": "address"
        }
      ],
      "stateMutability": "view",
      "type": "function"
    },
    {
      "inputs": [
        {
          "internalType": "uint256",
          "name": "entryId_",
          "type": "uint256"
        }
      ],
      "name": "getSellerInstallment",
      "outputs": [
        {
          "internalType": "enum ProjectY.InstallmentPlan",
          "name": "",
          "type": "uint8"
        }
      ],
      "stateMutability": "view",
      "type": "function"
    },
    {
      "inputs": [
        {
          "internalType": "uint256",
          "name": "entryId_",
          "type": "uint256"
        }
      ],
      "name": "getSellerInstallmentsPaid",
      "outputs": [
        {
          "internalType": "uint8",
          "name": "",
          "type": "uint8"
        }
      ],
      "stateMutability": "view",
      "type": "function"
    },
    {
      "inputs": [
        {
          "internalType": "uint256",
          "name": "entryId_",
          "type": "uint256"
        }
      ],
      "name": "getSellerOnSale",
      "outputs": [
        {
          "internalType": "bool",
          "name": "",
          "type": "bool"
        }
      ],
      "stateMutability": "view",
      "type": "function"
    },
    {
      "inputs": [
        {
          "internalType": "uint256",
          "name": "entryId_",
          "type": "uint256"
        }
      ],
      "name": "getSellerSelectedBidId",
      "outputs": [
        {
          "internalType": "uint256",
          "name": "",
          "type": "uint256"
        }
      ],
      "stateMutability": "view",
      "type": "function"
    },
    {
      "inputs": [
        {
          "internalType": "uint256",
          "name": "entryId_",
          "type": "uint256"
        }
      ],
      "name": "getSellerSellingPrice",
      "outputs": [
        {
          "internalType": "uint256",
          "name": "",
          "type": "uint256"
        }
      ],
      "stateMutability": "view",
      "type": "function"
    },
    {
      "inputs": [
        {
          "internalType": "uint256",
          "name": "entryId_",
          "type": "uint256"
        }
      ],
      "name": "getSellerTimestamp",
      "outputs": [
        {
          "internalType": "uint64",
          "name": "",
          "type": "uint64"
        }
      ],
      "stateMutability": "view",
      "type": "function"
    },
    {
      "inputs": [
        {
          "internalType": "uint256",
          "name": "entryId_",
          "type": "uint256"
        }
      ],
      "name": "getSellerTokenId",
      "outputs": [
        {
          "internalType": "uint256",
          "name": "",
          "type": "uint256"
        }
      ],
      "stateMutability": "view",
      "type": "function"
    },
    {
      "inputs": [
        {
          "internalType": "uint256",
          "name": "entryId_",
          "type": "uint256"
        }
      ],
      "name": "getSellerTotalBids",
      "outputs": [
        {
          "internalType": "uint256",
          "name": "",
          "type": "uint256"
        }
      ],
      "stateMutability": "view",
      "type": "function"
    },
    {
      "inputs": [],
      "name": "getTotalBidIds",
      "outputs": [
        {
          "internalType": "uint256",
          "name": "",
          "type": "uint256"
        }
      ],
      "stateMutability": "view",
      "type": "function"
    },
    {
      "inputs": [],
      "name": "getTotalEntryIds",
      "outputs": [
        {
          "internalType": "uint256",
          "name": "",
          "type": "uint256"
        }
      ],
      "stateMutability": "view",
      "type": "function"
    },
    {
      "inputs": [],
      "name": "gracePeriod",
      "outputs": [
        {
          "internalType": "uint64",
          "name": "",
          "type": "uint64"
        }
      ],
      "stateMutability": "view",
      "type": "function"
    },
    {
      "inputs": [
        {
          "internalType": "uint256",
          "name": "bidId_",
          "type": "uint256"
        }
      ],
      "name": "isBidIdValid",
      "outputs": [
        {
          "internalType": "bool",
          "name": "isValid_",
          "type": "bool"
        }
      ],
      "stateMutability": "view",
      "type": "function"
    },
    {
      "inputs": [
        {
          "internalType": "uint256",
          "name": "entryId_",
          "type": "uint256"
        }
      ],
      "name": "isEntryIdValid",
      "outputs": [
        {
          "internalType": "bool",
          "name": "isValid_",
          "type": "bool"
        }
      ],
      "stateMutability": "view",
      "type": "function"
    },
    {
      "inputs": [
        {
          "internalType": "uint256",
          "name": "entryId_",
          "type": "uint256"
        }
      ],
      "name": "liquidate",
      "outputs": [],
      "stateMutability": "payable",
      "type": "function"
    },
    {
      "inputs": [
        {
          "internalType": "address",
          "name": "",
          "type": "address"
        },
        {
          "internalType": "address",
          "name": "",
          "type": "address"
        },
        {
          "internalType": "uint256",
          "name": "",
          "type": "uint256"
        },
        {
          "internalType": "bytes",
          "name": "",
          "type": "bytes"
        }
      ],
      "name": "onERC721Received",
      "outputs": [
        {
          "internalType": "bytes4",
          "name": "",
          "type": "bytes4"
        }
      ],
      "stateMutability": "nonpayable",
      "type": "function"
    },
    {
      "inputs": [],
      "name": "owner",
      "outputs": [
        {
          "internalType": "address",
          "name": "",
          "type": "address"
        }
      ],
      "stateMutability": "view",
      "type": "function"
    },
    {
      "inputs": [
        {
          "internalType": "uint256",
          "name": "entryId_",
          "type": "uint256"
        }
      ],
      "name": "payInstallment",
      "outputs": [],
      "stateMutability": "payable",
      "type": "function"
    },
    {
      "inputs": [
        {
          "internalType": "uint256",
          "name": "bidId_",
          "type": "uint256"
        }
      ],
      "name": "selectBid",
      "outputs": [],
      "stateMutability": "nonpayable",
      "type": "function"
    },
    {
      "inputs": [
        {
          "internalType": "address",
          "name": "contractAddress_",
          "type": "address"
        },
        {
          "internalType": "uint256",
          "name": "tokenId_",
          "type": "uint256"
        },
        {
          "internalType": "uint256",
          "name": "sellingPrice_",
          "type": "uint256"
        },
        {
          "internalType": "enum ProjectY.InstallmentPlan",
          "name": "installment_",
          "type": "uint8"
        }
      ],
      "name": "sell",
      "outputs": [
        {
          "internalType": "uint256",
          "name": "",
          "type": "uint256"
        }
      ],
      "stateMutability": "nonpayable",
      "type": "function"
    },
    {
      "inputs": [
        {
          "internalType": "uint64",
          "name": "biddingPeriod_",
          "type": "uint64"
        }
      ],
      "name": "setBiddingPeriod",
      "outputs": [],
      "stateMutability": "nonpayable",
      "type": "function"
    },
    {
      "inputs": [
        {
          "internalType": "uint64",
          "name": "gracePeriod_",
          "type": "uint64"
        }
      ],
      "name": "setGracePeriod",
      "outputs": [],
      "stateMutability": "nonpayable",
      "type": "function"
    },
    {
      "inputs": [
        {
          "internalType": "address",
          "name": "newOwner",
          "type": "address"
        }
      ],
      "name": "setOwner",
      "outputs": [],
      "stateMutability": "nonpayable",
      "type": "function"
    },
    {
      "inputs": [
        {
          "internalType": "uint256",
          "name": "bidId_",
          "type": "uint256"
        }
      ],
      "name": "withdrawBid",
      "outputs": [],
      "stateMutability": "nonpayable",
      "type": "function"
    }
  ],
  "transactionHash": "0xf014fe2a270d9168f9ce6b23b7faf156d2455eb7b4aab4ad5d5d234ac29c2b29",
  "args": [
    "0xde43f899587aaa2Ea6aD243F3d68a5027F2C6a94"
  ],
  "numDeployments": 1,
  "solcInputHash": "e61e3821f694756bc34cc3d7cfcdd243",
  "bytecode": "0x6080604052600380546001600160801b0319166a093a800000000000093a801790553480156200002e57600080fd5b5060405162002c3f38038062002c3f8339810160408190526200005191620000a1565b600080546001600160a01b0319166001600160a01b03831690811782556040518392907f8292fce18fa69edf4db7b94ea2e58241df0ae57f97e0a6c9b29067028bf92d76908290a35050620000d3565b600060208284031215620000b457600080fd5b81516001600160a01b0381168114620000cc57600080fd5b9392505050565b612b5c80620000e36000396000f3fe6080604052600436106102455760003560e01c80637e17c33211610139578063af5c7e24116100b6578063e2f8a0171161007a578063e2f8a01714610789578063e380dbd31461079c578063ee854a0b146107bc578063f8de03ac146107dc578063f9fb2f08146107ef578063fd5f0a251461080457600080fd5b8063af5c7e24146106e9578063b83bf62914610709578063c5e4d82814610729578063db3093b514610749578063e042673b1461076957600080fd5b8063985937f5116100fd578063985937f5146106425780639a5f151814610662578063a06db7dc14610682578063a675364d146106a9578063a7d53ac3146106c957600080fd5b80637e17c3321461058a57806387b77a47146105c25780638da5cb5b146105e25780638df0da621461060257806397205ce41461062257600080fd5b80633c23466b116101c75780635f8909bd1161018b5780635f8909bd146104f5578063632e94a114610515578063643164c21461053557806366da40111461055557806376014d361461056a57600080fd5b80633c23466b14610445578063415f124014610472578063429f8a871461048557806345806097146104b557806355a5133b146104d557600080fd5b806320988cef1161020e57806320988cef1461033b5780632af25582146103525780632d95b954146103d3578063349e4788146103f35780633555c06f1461041357600080fd5b8062553eb71461024a5780630eaaf4c81461028757806313af4035146102a9578063150b7a02146102c9578063209084d11461030d575b600080fd5b34801561025657600080fd5b5061026a6102653660046126a6565b610824565b6040516001600160401b0390911681526020015b60405180910390f35b34801561029357600080fd5b506102a76102a23660046126a6565b610856565b005b3480156102b557600080fd5b506102a76102c43660046126d6565b610a94565b3480156102d557600080fd5b506102f46102e4366004612707565b630a85bd0160e11b949350505050565b6040516001600160e01b0319909116815260200161027e565b34801561031957600080fd5b5061032d6103283660046126a6565b610b09565b60405190815260200161027e565b34801561034757600080fd5b5061026a62278d0081565b34801561035e57600080fd5b506103c061036d3660046126a6565b6005602052600090815260409020805460018201546002830154600384015460049094015460ff8085169561010086046001600160a01b031695600160a81b90046001600160401b031694939290911687565b60405161027e979695949392919061281a565b3480156103df57600080fd5b5061026a6103ee3660046126a6565b610b2b565b3480156103ff57600080fd5b5061032d61040e36600461286f565b610b5a565b34801561041f57600080fd5b5061043361042e3660046126a6565b610b8b565b60405160ff909116815260200161027e565b34801561045157600080fd5b506104656104603660046126a6565b610bb7565b60405161027e919061289b565b6102a76104803660046126a6565b610bdc565b34801561049157600080fd5b506104a56104a03660046126a6565b610f48565b604051901515815260200161027e565b3480156104c157600080fd5b506104a56104d03660046126a6565b610f6a565b3480156104e157600080fd5b506102a76104f03660046128c0565b610fdb565b34801561050157600080fd5b5060035461026a906001600160401b031681565b34801561052157600080fd5b506104a56105303660046126a6565b611090565b34801561054157600080fd5b5061026a6105503660046128db565b6110b2565b34801561056157600080fd5b5061032d6110ff565b34801561057657600080fd5b5061032d6105853660046126a6565b61110f565b34801561059657600080fd5b506105aa6105a53660046126a6565b611132565b6040516001600160a01b03909116815260200161027e565b3480156105ce57600080fd5b5061032d6105dd3660046126a6565b61115f565b3480156105ee57600080fd5b506000546105aa906001600160a01b031681565b34801561060e57600080fd5b5061032d61061d3660046126a6565b611181565b34801561062e57600080fd5b5061032d61063d366004612907565b6111a3565b34801561064e57600080fd5b506104a561065d3660046126a6565b61134b565b34801561066e57600080fd5b5061032d61067d366004612907565b6113b7565b34801561068e57600080fd5b5060035461026a90600160401b90046001600160401b031681565b3480156106b557600080fd5b506105aa6106c43660046126a6565b611570565b3480156106d557600080fd5b506102a76106e43660046126a6565b61159d565b3480156106f557600080fd5b506104656107043660046126a6565b611a53565b34801561071557600080fd5b5061032d6107243660046126a6565b611a78565b34801561073557600080fd5b5061032d6107443660046126a6565b611cd2565b34801561075557600080fd5b506105aa6107643660046126a6565b611cf4565b34801561077557600080fd5b5061032d6107843660046126a6565b611d1f565b6102a76107973660046126a6565b611d41565b3480156107a857600080fd5b506102a76107b73660046128c0565b612079565b3480156107c857600080fd5b5061032d6107d73660046126a6565b61211f565b61032d6107ea366004612938565b612141565b3480156107fb57600080fd5b5061032d612389565b34801561081057600080fd5b5061032d61081f36600461296d565b612394565b600061082f8261134b565b5050600090815260046020526040902060010154600160a81b90046001600160401b031690565b61085f81610f6a565b506000818152600560209081526040808320815160e081018352815460ff8082161515835261010082046001600160a01b031695830195909552600160a81b90046001600160401b031692810192909252600181015460608301526002810154608083015260038082015460a084015260048201549293919260c085019216908111156108ee576108ee6127e2565b60038111156108ff576108ff6127e2565b9052506080810151600354600082815260046020526040902060010154929350909161093e916001600160401b0390811691600160a81b9004166129c9565b6001600160401b0316426001600160401b031610156109785760405162461bcd60e51b815260040161096f906129f4565b60405180910390fd5b8151156109d75760405162461bcd60e51b815260206004820152602760248201527f50726f6a656374593a204269646465722073686f756c64206e6f742062652073604482015266195b1958dd195960ca1b606482015260840161096f565b60208201516001600160a01b0316336001600160a01b031614610a3c5760405162461bcd60e51b815260206004820152601e60248201527f50726f6a656374593a204275796572206d7573742062652063616c6c65720000604482015260640161096f565b6000838152600560209081526040822080546001600160e81b0319168155600181018390556002810183905560038101929092556004909101805460ff1916905582015160a0830151610a8f919061258d565b505050565b6000546001600160a01b03163314610abe5760405162461bcd60e51b815260040161096f90612a35565b600080546001600160a01b0319166001600160a01b0383169081178255604051909133917f8292fce18fa69edf4db7b94ea2e58241df0ae57f97e0a6c9b29067028bf92d769190a350565b6000610b1482610f6a565b505060009081526005602052604090206003015490565b6000610b3682610f6a565b5050600090815260056020526040902054600160a81b90046001600160401b031690565b6000610b6584611a78565b610b6f9083612a5b565b610b7985856111a3565b610b839190612a7a565b949350505050565b6000610b968261134b565b5050600090815260046020526040902060010154600160a01b900460ff1690565b6000610bc282610f6a565b505060009081526005602052604090206004015460ff1690565b34610be68261134b565b506000828152600460208181526040808420815161014081018352815460ff80821615158352610100918290046001600160a01b0390811696840196909652600184015495861694830194909452600160a01b850484166060830152600160a81b9094046001600160401b03166080820152600282015460a082015260038083015460c08301529482015460e08201526005820154938101939093526006810154929390926101208501921690811115610ca257610ca26127e2565b6003811115610cb357610cb36127e2565b905250610100810151909150610cc881610f6a565b506000818152600560209081526040808320815160e081018352815460ff8082161515835261010082046001600160a01b031695830195909552600160a81b90046001600160401b031692810192909252600181015460608301526002810154608083015260038082015460a084015260048201549293919260c08501921690811115610d5757610d576127e2565b6003811115610d6857610d686127e2565b90525090506000610d7886611a78565b905080151580610d8f57508160a001518260600151145b610ddb5760405162461bcd60e51b815260206004820152601d60248201527f50726f6a656374593a206e6f20696e7374616c6c6d656e74206c656674000000604482015260640161096f565b6000610dfa8486606001516001610df29190612a92565b60ff166110b2565b6003546001600160401b039182169250610e1d91600160401b9091041682612a7a565b426001600160401b031611610e745760405162461bcd60e51b815260206004820152601e60248201527f50726f6a656374593a20496e7374616c6c6d656e74206f6e20747261636b0000604482015260640161096f565b602083015160a0840151600090606490610e8f90605f612a5b565b610e999190612ab7565b9050878114610f105760405162461bcd60e51b815260206004820152603b60248201527f50726f6a656374593a2076616c7565206d75737420626520657175616c20746f60448201527f2039352520707269636550616964206279206f6c642062757965720000000000606482015260840161096f565b60008681526005602052604090208054610100600160a81b0319166101003302179055610f3d828261258d565b505050505050505050565b6000610f538261134b565b505060009081526004602052604090205460ff1690565b60008181526005602052604090205461010090046001600160a01b0316151580610fd65760405162461bcd60e51b815260206004820152601760248201527f50726f6a656374593a20496e76616c6964206269644964000000000000000000604482015260640161096f565b919050565b6000546001600160a01b031633146110055760405162461bcd60e51b815260040161096f90612a35565b806001600160401b031660000361105e5760405162461bcd60e51b815260206004820152601e60248201527f50726f6a656374593a20496e76616c696420677261636520706572696f640000604482015260640161096f565b600380546001600160401b03909216600160401b026fffffffffffffffff000000000000000019909216919091179055565b600061109b82610f6a565b505060009081526005602052604090205460ff1690565b600062278d006110c3600184612ad9565b6110cd9190612b01565b6000848152600560205260409020546110f69190600160a81b90046001600160401b03166129c9565b90505b92915050565b600061110a60015490565b905090565b600061111a8261134b565b50506000908152600460208190526040909120015490565b600061113d82610f6a565b505060009081526005602052604090205461010090046001600160a01b031690565b600061116a8261134b565b505060009081526004602052604090206002015490565b600061118c8261134b565b505060009081526004602052604090206003015490565b60006111ae8361134b565b506111b882610f6a565b506000828152600560209081526040808320815160e081018352815460ff8082161515835261010082046001600160a01b031695830195909552600160a81b90046001600160401b031692810192909252600181015460608301526002810154608083015260038082015460a084015260048201549293919260c08501921690811115611247576112476127e2565b6003811115611258576112586127e2565b90525060a0810151909150156112b05760405162461bcd60e51b815260206004820152601b60248201527f50726f6a656374593a20446f776e207061796d656e7420646f6e650000000000604482015260640161096f565b60c0810151606082015160018260038111156112ce576112ce6127e2565b036112f45760646112e0826022612a5b565b6112ea9190612ab7565b93505050506110f9565b6002826003811115611308576113086127e2565b0361131b576103e86112e08260af612a5b565b600382600381111561132f5761132f6127e2565b036113415760646112e082600c612a5b565b92506110f9915050565b60008181526004602052604090205461010090046001600160a01b0316151580610fd65760405162461bcd60e51b815260206004820152601960248201527f50726f6a656374593a20496e76616c696420656e747279496400000000000000604482015260640161096f565b60006113c28361134b565b506113cc82610f6a565b506000838152600460208181526040808420815161014081018352815460ff80821615158352610100918290046001600160a01b0390811696840196909652600184015495861694830194909452600160a01b850484166060830152600160a81b9094046001600160401b03166080820152600282015460a082015260038083015460c08301529482015460e08201526005820154938101939093526006810154929390926101208501921690811115611488576114886127e2565b6003811115611499576114996127e2565b9052506000848152600560209081526040808320815160e081018352815460ff8082161515835261010082046001600160a01b031695830195909552600160a81b90046001600160401b031692810192909252600181015460608301526002810154608083015260038082015460a0840152600482015495965093949193909260c0850192169081111561152f5761152f6127e2565b6003811115611540576115406127e2565b815250509050806060015161155d8686856060015160ff16610b5a565b6115679190612a5b565b95945050505050565b600061157b8261134b565b505060009081526004602052604090205461010090046001600160a01b031690565b426115a782610f6a565b506000828152600560205260409020600201546115c38161134b565b506000818152600460208181526040808420815161014081018352815460ff80821615158352610100918290046001600160a01b0390811696840196909652600184015495861694830194909452600160a01b850484166060830152600160a81b9094046001600160401b03166080820152600282015460a082015260038083015460c08301529482015460e0820152600582015493810193909352600681015492939092610120850192169081111561167f5761167f6127e2565b6003811115611690576116906127e2565b9052506000858152600560209081526040808320815160e081018352815460ff8082161515835261010082046001600160a01b031695830195909552600160a81b90046001600160401b031692810192909252600181015460608301526002810154608083015260038082015460a0840152600482015495965093949193909260c08501921690811115611726576117266127e2565b6003811115611737576117376127e2565b90525060208301519091506001600160a01b0316336001600160a01b0316146117a25760405162461bcd60e51b815260206004820152601f60248201527f50726f6a656374593a2043616c6c6572206d7573742062652073656c6c657200604482015260640161096f565b60035460808301516117bd916001600160401b0316906129c9565b6001600160401b0316846001600160401b031610156117ee5760405162461bcd60e51b815260040161096f906129f4565b610100820151156118415760405162461bcd60e51b815260206004820152601e60248201527f50726f6a656374593a2043616e6e6f742072652073656c656374206269640000604482015260640161096f565b60008160c001516003811115611859576118596127e2565b0361196a57604080830151602083015160a08501519251632142170760e11b81523060048201526001600160a01b039182166024820152604481019390935216906342842e0e90606401600060405180830381600087803b1580156118bd57600080fd5b505af11580156118d1573d6000803e3d6000fd5b505050600084815260046020818152604080842080546001600160a81b0319168155600180820180546001600160e81b03199081169091556002808401889055600380850189905584880189905560058086018a90556006909501805460ff199081169091558f8a5294909652938720805490911681559081018690559182018590559181019390935591018054909116905550611a1f565b60008581526005602081815260408084208054600160ff67ffffffffffffffff60a81b0119909116600160a81b6001600160401b038c16021781179091558785526004909252909220805460ff19908116825591810188905560c0840151600690910180549193909291909116908360038111156119ea576119ea6127e2565b0217905550606081015160008481526004602052604090206003810191909155600101805460ff60a01b1916600160a01b1790555b604051839086907f9295c82ed42927512117ef31a7c3fed86244add76abc91d00191ff9b37a7b8ea90600090a35050505050565b6000611a5e8261134b565b505060009081526004602052604090206006015460ff1690565b6000611a838261134b565b506000828152600460208181526040808420815161014081018352815460ff80821615158352610100918290046001600160a01b0390811696840196909652600184015495861694830194909452600160a01b850484166060830152600160a81b9094046001600160401b03166080820152600282015460a082015260038083015460c08301529482015460e08201526005820154938101939093526006810154929390926101208501921690811115611b3f57611b3f6127e2565b6003811115611b5057611b506127e2565b905250610100810151909150611b6581610f6a565b506000818152600560209081526040808320815160e081018352815460ff8082161515835261010082046001600160a01b031695830195909552600160a81b90046001600160401b031692810192909252600181015460608301526002810154608083015260038082015460a084015260048201549293919260c08501921690811115611bf457611bf46127e2565b6003811115611c0557611c056127e2565b90525060c081015160a08201516060830151929350909103611c2d5750600095945050505050565b6001816003811115611c4157611c416127e2565b03611c6d57606482606001516021611c599190612a5b565b611c639190612ab7565b9695505050505050565b6002816003811115611c8157611c816127e2565b03611c9a576103e8826060015160a5611c599190612a5b565b6003816003811115611cae57611cae6127e2565b03611cc65760648260600151600b611c599190612a5b565b50600095945050505050565b6000611cdd8261134b565b505060009081526004602052604090206005015490565b6000611cff8261134b565b50506000908152600460205260409020600101546001600160a01b031690565b6000611d2a82610f6a565b505060009081526005602052604090206002015490565b34611d4b8261134b565b50600082815260046020526040902060050154611d6781610f6a565b506000818152600560209081526040808320815160e081018352815460ff8082161515835261010082046001600160a01b031695830195909552600160a81b90046001600160401b031692810192909252600181015460608301526002810154608083015260038082015460a084015260048201549293919260c08501921690811115611df657611df66127e2565b6003811115611e0757611e076127e2565b90525060208101519091506001600160a01b03163314611e695760405162461bcd60e51b815260206004820152601e60248201527f50726f6a656374593a204275796572206d7573742062652063616c6c65720000604482015260640161096f565b606081015160a0820151808214611f56576000611e8587611a78565b90508581148015611e9557508515155b8015611ea057508015155b611eec5760405162461bcd60e51b815260206004820152601760248201527f50726f6a656374593a20696e76616c69642076616c7565000000000000000000604482015260640161096f565b60008581526005602052604081206003018054889290611f0d908490612a7a565b909155505060008781526004602052604090206001018054600160a01b900460ff16906014611f3b83612b30565b91906101000a81548160ff021916908360ff16021790555050505b80820361207157600086815260046020819052604080832060018101546002909101548251632142170760e11b81523094810194909452336024850152604484015290516001600160a01b03909116926342842e0e926064808201939182900301818387803b158015611fc857600080fd5b505af1158015611fdc573d6000803e3d6000fd5b505050600087815260046020818152604080842080546001600160a81b0319168155600180820180546001600160e81b03199081169091556002808401889055600380850189905584880189905560058086018a90556006909501805460ff199081169091558e8a52949096529387208054909116815590810186905591820185905591810193909355910180549091169055505b505050505050565b6000546001600160a01b031633146120a35760405162461bcd60e51b815260040161096f90612a35565b806001600160401b03166000036120fc5760405162461bcd60e51b815260206004820181905260248201527f50726f6a656374593a20496e76616c69642062696464696e6720706572696f64604482015260640161096f565b6003805467ffffffffffffffff19166001600160401b0392909216919091179055565b600061212a82610f6a565b505060009081526005602052604090206001015490565b60003442612153600280546001019055565b600061215e60025490565b60008181526005602052604081208054610100600160a81b031916610100330217905590915061218e88836111a3565b9050831580159061219e57508084145b6122005760405162461bcd60e51b815260206004820152602d60248201527f50726f6a656374593a2076616c7565206d75737420626520657175616c20746f60448201526c08191bdddb881c185e5b595b9d609a1b606482015260840161096f565b600354600089815260046020526040902060010154612232916001600160401b0390811691600160a81b9004166129c9565b6001600160401b0316836001600160401b031611156122935760405162461bcd60e51b815260206004820152601d60248201527f50726f6a656374593a2042696464696e6720706572696f64206f766572000000604482015260640161096f565b60008281526005602052604090208054610100600160e81b031916336101000267ffffffffffffffff60a81b191617600160a81b6001600160401b038616021781556001808201899055600282018a90556003808301879055600490920180548993919260ff1990911691849081111561230f5761230f6127e2565b02179055506000888152600460208190526040822001805460019290612336908490612a7a565b9091555050604080516001600160401b0385168152905183918a9133917f5ab6bd288ed4e1289e3291c15622be6529f14e70b0a6e04a211ee938020c6dea919081900360200190a4509695505050505050565b600061110a60025490565b6000826000036123e65760405162461bcd60e51b815260206004820152601760248201527f50726f6a656374593a20496e76616c6964205072696365000000000000000000604482015260640161096f565b426123f5600180546001019055565b600061240060015490565b90506001600160a01b0387166342842e0e336040516001600160e01b031960e084901b1681526001600160a01b03909116600482015230602482015260448101899052606401600060405180830381600087803b15801561246057600080fd5b505af1158015612474573d6000803e3d6000fd5b5050506000828152600460205260409020805460ff19166001179055506124983390565b60008281526004602052604090208054610100600160a81b0319166101006001600160a01b039384160217815560018082018054938b16600168ffffffffffffffff0160a01b031990941693909317600160a81b6001600160401b0387160217909255600281018890556003808201889055600690910180548793919260ff199091169190849081111561252e5761252e6127e2565b0217905550604080518781526001600160401b038416602082015282916001600160a01b038a169133917fb9120c5321ef5d2f12cd98255cac811fca6e4fbc0ee94caf950c34292603f6af910160405180910390a49695505050505050565b804710156125dd5760405162461bcd60e51b815260206004820152601d60248201527f416464726573733a20696e73756666696369656e742062616c616e6365000000604482015260640161096f565b6000826001600160a01b03168260405160006040518083038185875af1925050503d806000811461262a576040519150601f19603f3d011682016040523d82523d6000602084013e61262f565b606091505b5050905080610a8f5760405162461bcd60e51b815260206004820152603a60248201527f416464726573733a20756e61626c6520746f2073656e642076616c75652c207260448201527f6563697069656e74206d61792068617665207265766572746564000000000000606482015260840161096f565b6000602082840312156126b857600080fd5b5035919050565b80356001600160a01b0381168114610fd657600080fd5b6000602082840312156126e857600080fd5b6110f6826126bf565b634e487b7160e01b600052604160045260246000fd5b6000806000806080858703121561271d57600080fd5b612726856126bf565b9350612734602086016126bf565b92506040850135915060608501356001600160401b038082111561275757600080fd5b818701915087601f83011261276b57600080fd5b81358181111561277d5761277d6126f1565b604051601f8201601f19908116603f011681019083821181831017156127a5576127a56126f1565b816040528281528a60208487010111156127be57600080fd5b82602086016020830137600060208483010152809550505050505092959194509250565b634e487b7160e01b600052602160045260246000fd5b6004811061281657634e487b7160e01b600052602160045260246000fd5b9052565b87151581526001600160a01b03871660208201526001600160401b0386166040820152606081018590526080810184905260a0810183905260e0810161286360c08301846127f8565b98975050505050505050565b60008060006060848603121561288457600080fd5b505081359360208301359350604090920135919050565b602081016110f982846127f8565b80356001600160401b0381168114610fd657600080fd5b6000602082840312156128d257600080fd5b6110f6826128a9565b600080604083850312156128ee57600080fd5b823591506128fe602084016128a9565b90509250929050565b6000806040838503121561291a57600080fd5b50508035926020909101359150565b803560048110610fd657600080fd5b60008060006060848603121561294d57600080fd5b833592506020840135915061296460408501612929565b90509250925092565b6000806000806080858703121561298357600080fd5b61298c856126bf565b935060208501359250604085013591506129a860608601612929565b905092959194509250565b634e487b7160e01b600052601160045260246000fd5b60006001600160401b038083168185168083038211156129eb576129eb6129b3565b01949350505050565b60208082526021908201527f50726f6a656374593a2042696464696e6720706572696f64206e6f74206f76656040820152603960f91b606082015260800190565b6020808252600c908201526b15539055551213d49256915160a21b604082015260600190565b6000816000190483118215151615612a7557612a756129b3565b500290565b60008219821115612a8d57612a8d6129b3565b500190565b600060ff821660ff84168060ff03821115612aaf57612aaf6129b3565b019392505050565b600082612ad457634e487b7160e01b600052601260045260246000fd5b500490565b60006001600160401b0383811690831681811015612af957612af96129b3565b039392505050565b60006001600160401b0380831681851681830481118215151615612b2757612b276129b3565b02949350505050565b600060ff821660ff8103612b4657612b466129b3565b6001019291505056fea164736f6c634300080f000a",
  "devdoc": {
    "kind": "dev",
    "methods": {
      "onERC721Received(address,address,uint256,bytes)": {
        "details": "See {IERC721Receiver-onERC721Received}. Always returns `IERC721Receiver.onERC721Received.selector`."
      }
    },
    "version": 1
  },
  "userdoc": {
    "kind": "user",
    "methods": {},
    "version": 1
  },
  "storageLayout": {
    "storage": [
      {
        "astId": 1718,
        "contract": "contracts/ProjectY.sol:ProjectY",
        "label": "owner",
        "offset": 0,
        "slot": "0",
        "type": "t_address"
      },
      {
        "astId": 1788,
        "contract": "contracts/ProjectY.sol:ProjectY",
        "label": "_entryIdTracker",
        "offset": 0,
        "slot": "1",
        "type": "t_struct(Counter)1377_storage"
      },
      {
        "astId": 1791,
        "contract": "contracts/ProjectY.sol:ProjectY",
        "label": "_bidIdTracker",
        "offset": 0,
        "slot": "2",
        "type": "t_struct(Counter)1377_storage"
      },
      {
        "astId": 1797,
        "contract": "contracts/ProjectY.sol:ProjectY",
        "label": "biddingPeriod",
        "offset": 0,
        "slot": "3",
        "type": "t_uint64"
      },
      {
        "astId": 1800,
        "contract": "contracts/ProjectY.sol:ProjectY",
        "label": "gracePeriod",
        "offset": 8,
        "slot": "3",
        "type": "t_uint64"
      },
      {
        "astId": 1848,
        "contract": "contracts/ProjectY.sol:ProjectY",
        "label": "_sellerInfo",
        "offset": 0,
        "slot": "4",
        "type": "t_mapping(t_uint256,t_struct(SellerInfo)1827_storage)"
      },
      {
        "astId": 1853,
        "contract": "contracts/ProjectY.sol:ProjectY",
        "label": "_buyerInfo",
        "offset": 0,
        "slot": "5",
        "type": "t_mapping(t_uint256,t_struct(BuyerInfo)1843_storage)"
      }
    ],
    "types": {
      "t_address": {
        "encoding": "inplace",
        "label": "address",
        "numberOfBytes": "20"
      },
      "t_bool": {
        "encoding": "inplace",
        "label": "bool",
        "numberOfBytes": "1"
      },
      "t_enum(InstallmentPlan)1805": {
        "encoding": "inplace",
        "label": "enum ProjectY.InstallmentPlan",
        "numberOfBytes": "1"
      },
      "t_mapping(t_uint256,t_struct(BuyerInfo)1843_storage)": {
        "encoding": "mapping",
        "key": "t_uint256",
        "label": "mapping(uint256 => struct ProjectY.BuyerInfo)",
        "numberOfBytes": "32",
        "value": "t_struct(BuyerInfo)1843_storage"
      },
      "t_mapping(t_uint256,t_struct(SellerInfo)1827_storage)": {
        "encoding": "mapping",
        "key": "t_uint256",
        "label": "mapping(uint256 => struct ProjectY.SellerInfo)",
        "numberOfBytes": "32",
        "value": "t_struct(SellerInfo)1827_storage"
      },
      "t_struct(BuyerInfo)1843_storage": {
        "encoding": "inplace",
        "label": "struct ProjectY.BuyerInfo",
        "members": [
          {
            "astId": 1829,
            "contract": "contracts/ProjectY.sol:ProjectY",
            "label": "isSelected",
            "offset": 0,
            "slot": "0",
            "type": "t_bool"
          },
          {
            "astId": 1831,
            "contract": "contracts/ProjectY.sol:ProjectY",
            "label": "buyerAddress",
            "offset": 1,
            "slot": "0",
            "type": "t_address"
          },
          {
            "astId": 1833,
            "contract": "contracts/ProjectY.sol:ProjectY",
            "label": "timestamp",
            "offset": 21,
            "slot": "0",
            "type": "t_uint64"
          },
          {
            "astId": 1835,
            "contract": "contracts/ProjectY.sol:ProjectY",
            "label": "bidPrice",
            "offset": 0,
            "slot": "1",
            "type": "t_uint256"
          },
          {
            "astId": 1837,
            "contract": "contracts/ProjectY.sol:ProjectY",
            "label": "entryId",
            "offset": 0,
            "slot": "2",
            "type": "t_uint256"
          },
          {
            "astId": 1839,
            "contract": "contracts/ProjectY.sol:ProjectY",
            "label": "pricePaid",
            "offset": 0,
            "slot": "3",
            "type": "t_uint256"
          },
          {
            "astId": 1842,
            "contract": "contracts/ProjectY.sol:ProjectY",
            "label": "bidInstallment",
            "offset": 0,
            "slot": "4",
            "type": "t_enum(InstallmentPlan)1805"
          }
        ],
        "numberOfBytes": "160"
      },
      "t_struct(Counter)1377_storage": {
        "encoding": "inplace",
        "label": "struct Counters.Counter",
        "members": [
          {
            "astId": 1376,
            "contract": "contracts/ProjectY.sol:ProjectY",
            "label": "_value",
            "offset": 0,
            "slot": "0",
            "type": "t_uint256"
          }
        ],
        "numberOfBytes": "32"
      },
      "t_struct(SellerInfo)1827_storage": {
        "encoding": "inplace",
        "label": "struct ProjectY.SellerInfo",
        "members": [
          {
            "astId": 1807,
            "contract": "contracts/ProjectY.sol:ProjectY",
            "label": "onSale",
            "offset": 0,
            "slot": "0",
            "type": "t_bool"
          },
          {
            "astId": 1809,
            "contract": "contracts/ProjectY.sol:ProjectY",
            "label": "sellerAddress",
            "offset": 1,
            "slot": "0",
            "type": "t_address"
          },
          {
            "astId": 1811,
            "contract": "contracts/ProjectY.sol:ProjectY",
            "label": "contractAddress",
            "offset": 0,
            "slot": "1",
            "type": "t_address"
          },
          {
            "astId": 1813,
            "contract": "contracts/ProjectY.sol:ProjectY",
            "label": "installmentsPaid",
            "offset": 20,
            "slot": "1",
            "type": "t_uint8"
          },
          {
            "astId": 1815,
            "contract": "contracts/ProjectY.sol:ProjectY",
            "label": "timestamp",
            "offset": 21,
            "slot": "1",
            "type": "t_uint64"
          },
          {
            "astId": 1817,
            "contract": "contracts/ProjectY.sol:ProjectY",
            "label": "tokenId",
            "offset": 0,
            "slot": "2",
            "type": "t_uint256"
          },
          {
            "astId": 1819,
            "contract": "contracts/ProjectY.sol:ProjectY",
            "label": "sellingPrice",
            "offset": 0,
            "slot": "3",
            "type": "t_uint256"
          },
          {
            "astId": 1821,
            "contract": "contracts/ProjectY.sol:ProjectY",
            "label": "totalBids",
            "offset": 0,
            "slot": "4",
            "type": "t_uint256"
          },
          {
            "astId": 1823,
            "contract": "contracts/ProjectY.sol:ProjectY",
            "label": "selectedBidId",
            "offset": 0,
            "slot": "5",
            "type": "t_uint256"
          },
          {
            "astId": 1826,
            "contract": "contracts/ProjectY.sol:ProjectY",
            "label": "installment",
            "offset": 0,
            "slot": "6",
            "type": "t_enum(InstallmentPlan)1805"
          }
        ],
        "numberOfBytes": "224"
      },
      "t_uint256": {
        "encoding": "inplace",
        "label": "uint256",
        "numberOfBytes": "32"
      },
      "t_uint64": {
        "encoding": "inplace",
        "label": "uint64",
        "numberOfBytes": "8"
      },
      "t_uint8": {
        "encoding": "inplace",
        "label": "uint8",
        "numberOfBytes": "1"
      }
    }
  }
}